:100000000FC100002AC1000028C1000026C1000065
:1000100024C1000022C1000020C100001EC1000058
:100020001CC100001AC1000018C1000017C1000067
:1000300014C1000012C1000010C100000EC1000078
:100040000CC100000AC100000C94EB0906C10000BD
:1000500004C1000002C1000000C10000FEC0000099
:10006000FCC00000FAC00000084AD73B3BCE016E3E
:1000700084BCBFFDC12F3D6C74319ABD56833DDAFF
:100080003D00C77F11BED9E4BB4C3E916BAAAABE0E
:10009000000000803F006E616E00696E66000040E7
:1000A0007A10F35A00A0724E18090010A5D4E80087
:1000B00000E87648170000E40B54020000CA9A3B9F
:1000C000000000E1F5050000809698000000404225
:1000D0000F000000A08601000000102700000000B3
:1000E000E803000000006400000000000A000000B7
:1000F00000000100000000002C76D888DC674F0863
:1001000023DFC1DFAE59E1B1B796E5E3E453C63A68
:10011000E651997696E8E6C28426EB898C9B62EDDF
:10012000407C6FFCEFBC9C9F40F2BAA56FA5F49099
:10013000055A2AF75C936B6CF9676DC11BFCE0E410
:100140000D47FEF520E6B500D0ED902E0300943566
:1001500077050080841E080000204E0A000000C8B9
:100160000C333333330F986E12831141EF8D21140A
:10017000893BE65516CFFEE6DB18D1844B381BF7DA
:100180007C1D901DA4BBE424203284725E22810079
:10019000C9F124ECA1E53D274E414E494E49545941
:1001A000494E46CDCCCC3D0AD7233C17B7D1387742
:1001B000CC2B329595E6241FB14F0A000020410058
:1001C00000C84200401C4620BCBE4CCA1B0E5AAEA2
:1001D000C59D746364696E6F70737578585B6566EE
:1001E0006745464700616E006E66696E6974790006
:1001F000CDCCCC3D0AD7233C17B7D13877CC2B32A6
:100200009595E6241FB14F0A000020410000C84226
:1002100000401C4620BCBE4CCA1B0E5AAEC59D7485
:1002200011241FBECFEFD8E0DEBFCDBF12E0A0E0AB
:10023000B1E0E2E4F2E302C005900D92A233B1070F
:10024000D9F724E0A2E3B2E001C01D92A030B207CA
:10025000E1F70E94590A0C941F19D2CE1F920F92F7
:100260000FB60F9211240F900FBE0F901F9018958C
:10027000109280008DE08093810085E0809389005A
:1002800084E68093880082E080936F0013BC089519
:10029000259A08959091C00095FFFCCF8093C600E9
:1002A00080E090E00895CF93DF93EC01892B09F46F
:1002B00041C0440F551F661F771F440F551F661F0F
:1002C000771F9A01AB01220F331F441F551F60E0B7
:1002D00074E284EF90E00E94C714BA01A901415072
:1002E000510961097109519A5098BB27A72F962F80
:1002F000852F8093C5004093C4008091C100886918
:100300008093C1008091C20086608093C20080917A
:10031000C00082608093C0008EE0E0E0F1E0DE018A
:1003200001900D928A95E1F780E091E09093FB03B4
:100330008093FA03DF91CF9108959091C00095FFCB
:10034000FCCF8093C600089502C08091C6008091C2
:10035000C00087FDFACF08958091C00087FFFCCFD1
:100360008091C6000895AC01F89420E06217A9F0CE
:100370009091C00097FFFCCF9091C600FA01E20F68
:10038000F11DE491E91779F020E06111F1CF80913E
:10039000C00087FF06C08091C6008091C00087FD25
:1003A000FACF789408952F5FE1CF860F80937C0079
:1003B00087EC80937A0080917A0086FDFCCF809153
:1003C00078009091790097FF089580E090E008957B
:1003D00017B818B80895CF92DF92EF92FF920F935B
:1003E0001F934423B1F1860F50E0C12CD12C76012C
:1003F00067EC80937C0060937A0090917A0096FD80
:10040000FCCF009178001091790017FD1FC0012EDC
:10041000000C220B330BC00ED11EE21EF31E95E31F
:100420009A95F1F700005F5F5413E3CF242F30E07B
:1004300040E050E0C701B6010E94C714C9011F91F6
:100440000F91FF90EF90DF90CF90089500E010E0C3
:10045000DECFC12CD12C7601E9CF4F925F926F9203
:100460007F928F929F92AF92BF92CF92DF92EF9244
:10047000FF92AC019C01ACE7B1E00E94E9146B0172
:100480007C01BA0180E090E00E9428139B01AC013E
:100490000E940A144B015C01C701B60164507D48FB
:1004A0008109910924E0C20E2DE8D21EE11CF11C45
:1004B0000E942A13A50194010E94031220E032E455
:1004C0004FEE58E40E94041220E030E44CE155E481
:1004D0000E9404122B013C01C701B6010E942A139D
:1004E000A50194010E94041220E032E44FEE58E48A
:1004F0000E94031220E030E44CE155E40E94031214
:100500009B01AC01C301B2010E940A140E94711444
:100510009B01AC0160E072EE81E898E40E94031256
:100520006B017C01A501940160E07CE387E597E421
:100530000E94031220E032E44FEE58E40E940412BD
:1005400020E030E44CE155E40E9404129B01AC0130
:10055000C701B6010E9494120E94681220E030E0A8
:1005600044EB53E40E940A1490582BED3FE049E419
:1005700050E40E949412FF90EF90DF90CF90BF90D4
:10058000AF909F908F907F906F905F904F90089565
:100590004F925F926F927F928F929F92AF92BF9293
:1005A000CF92DF92EF92FF92AC019C01A4E5B1E003
:1005B0000E94E9146B017C01BA0180E090E00E9486
:1005C00028139B01AC010E940A144B015C01C70176
:1005D000B601645E70478109910924EEC20E20E7DE
:1005E000D21EE11CF11C0E942A13A50194010E9455
:1005F000031220E032E64EE858E40E94041220E0A4
:1006000030E44CE155E40E9404122B013C01C70187
:10061000B6010E942A13A50194010E94041220E051
:1006200032E64EE858E40E94031220E030E44CE148
:1006300055E40E9403129B01AC01C301B2010E9468
:100640000A140E9471149B01AC0160E07CE483E316
:1006500098E40E9403126B017C01A501940160E003
:100660007CE483E397E40E94031220E032E64EE844
:1006700058E40E94041220E030E44CE155E40E946A
:1006800004129B01AC01C701B6010E9494120E94A2
:10069000681220E030E044EB53E40E940A142BED92
:1006A0003FE049E450E40E9494129B01AC0160E0F9
:1006B00070E084EB92E40E940312FF90EF90DF90D1
:1006C000CF90BF90AF909F908F907F906F905F90F2
:1006D0004F9008956091610270916202809163026F
:1006E0009091640208956091BC027091BD02809166
:1006F000BE029091BF0208958F929F92AF92BF92D7
:10070000CF92DF92EF92FF926B017C018090740296
:1007100090907502A0907602B0907702A5019401A6
:100720000E94FF1387FD22C0209178023091790248
:1007300040917A0250917B02C501B4010E940412DB
:100740009B01AC01C701B6010E949012181674F00B
:10075000C0926502D0926602E0926702F09268024F
:1007600010928B0210928A0280E001C081E0FF901B
:10077000EF90DF90CF90BF90AF909F908F900895B3
:100780008F929F92AF92BF92CF92DF92EF92FF92A1
:100790006B017C018090CF029090D002A090D1029A
:1007A000B090D202A50194010E94FF1387FD22C0E0
:1007B0002091D3023091D4024091D5025091D602BB
:1007C000C501B4010E9404129B01AC01C701B6012E
:1007D0000E949012181674F0C092C002D092C1020A
:1007E000E092C202F092C3021092E6021092E50279
:1007F00080E001C081E0FF90EF90DF90CF90BF904C
:10080000AF909F908F9008958F929F92AF92BF92DA
:10081000CF92DF92EF92FF92CF93DF93EC016A01C8
:100820007B01FC01E05CFF4F80809180A280B3805F
:100830009A01AB01C501B4010E9490121816ECF0A8
:10084000FE01EC5BFF4F2081318142815381C50164
:10085000B4010E9404129B01AC01C701B6010E94C1
:100860009012181654F0C9AADAAAEBAAFCAACA5A1E
:10087000DF4F1982188280E001C081E0DF91CF91C3
:10088000FF90EF90DF90CF90BF90AF909F908F90B0
:10089000089560916502709166028091670290915F
:1008A000680208956091C0027091C1028091C202F5
:1008B0009091C302089580918C0208958091E7027F
:1008C00008959C0136952795ABE7B4E10E94E914A1
:1008D00096958795009759F020E030E04AEF4A95C9
:1008E000F1F700C02F5F3F4F28173907B9F7089578
:1008F000FC01A28DB38D2C9181E090E0068C02C0AA
:10090000880F991F0A94E2F7809582238C93A58122
:10091000B6811C92A085B1851C92A385B4851C92DA
:10092000A289B3891C92A589B6891C92008CF18D8D
:10093000E02D10820895FC0143A7442391F161301A
:1009400089F1A385B4851C92A08DB18D4C93A081B3
:10095000B1812C9181E090E0048002C0880F991F42
:100960000A94E2F7809582238C93A581B6811C922C
:10097000A289B38984898C93A085B1851C92A589AD
:10098000B68987898C93A28DB38D2C9181E090E0FC
:10099000068C02C0880F991F0A94E2F7822B8C9371
:1009A0000895A6CFA08DB18D1C92A385B4854C93DC
:1009B000A585B6852C9181E090E0018802C0880F62
:1009C000991F0A94E2F7809582238C93A289B389B8
:1009D0001C92A581B68187818C93A589B6891C92CA
:1009E000A085B18582858C93CECF0F931F93CF9333
:1009F000DF93EC01162F042F8CA5861308C00AC0C4
:100A00008CA51BA6CE0174DF8CA5811719F08BA5D0
:100A10008111F6CF8BA58017A8F58BA5801769F1FA
:100A20004BA52DA93FAD822F90E0840F911D432F40
:100A300050E0481759070CF04FC03BA7032F4BA5B8
:100A4000612FCE0178DF2FA938AD36952795ABE71A
:100A5000B4E10E94E914969587950097F1F220E0A1
:100A600030E04AEF4A95F1F700C02F5F3F4F28175B
:100A70003907B9F78BA58013D3CFDF91CF911F91A1
:100A80000F9108958BA58017C1F38BA52EA990E037
:100A9000821B9109181619061CF58BA5280F2BA788
:100AA0004BA5612FCE0147DF29AD3AAD369527958D
:100AB000ABE7B4E10E94E91496958795009711F38E
:100AC00020E030E04AEF4A95F1F700C02F5F3F4F3A
:100AD00028173907B9F7D6CF8BA5280F2BA7AFCF8B
:100AE0001BA6DECFA0E0B0E0E8E7F5E00C94FE1432
:100AF000EC0144E060E48F8D6EDC8C01FE01E45B70
:100B0000FF4FA080B180B50180E090E00E942813E3
:100B10006B017C01FE01E25BFF4F408151814A196C
:100B20005B09BA0180E090E00E94281320E030E0E9
:100B300040E85AE30E940A144B015C01B80180E0CE
:100B400090E00E9428139B01AC01C501B4010E94F2
:100B50000A149B01AC01C701B6010E9404120E9455
:100B6000FC126B017C01FE01EE5AFF4F20813181A6
:100B700062177307E8F4FE01E05BFF4F20813181CB
:100B80002617370738F4C601CDB7DEB7ECE00C9472
:100B90001A1511C0389684E0808340E061E0CE01F0
:100BA00024DFC601CDB7DEB7ECE00C941A1503C004
:100BB000369685E0F1CFCF93DF93EC0193DFFE0112
:100BC000E75AFF4F0190F081E02D0995C85BDF4F98
:100BD000288139814A815B810E940412DF91CF9183
:100BE0000895A1E1B1E0E7EFF5E00C9403158BE582
:100BF000EEE0F1E0DE01A954BF4F01900D928A951D
:100C0000E1F78BE5E9E6F1E0DE01A45ABF4F019080
:100C10000D928A95E1F78BE5FE01E954FF4FA4E3BD
:100C2000B2E001900D928A95E1F78BE5FE01E45A5E
:100C3000FF4FAFE8B2E001900D928A95E1F784E3AF
:100C4000E82E82E0F82E9BE5D92E01E010E0F701B6
:100C5000DE0111968D2D01900D928A95E1F7EB81C1
:100C6000FC812081C8010D8002C0880F991F0A9461
:100C7000E2F7822B8083E889F9892081C8010A88FC
:100C800002C0880F991F0A94E2F7822B8083ED8DB2
:100C9000FE8D2081C8010F8C02C0880F991F0A9415
:100CA000E2F7822B8083E981FA81908198010D809F
:100CB00002C0220F331F0A94E2F7822F8095892306
:100CC0008083EE85FF85908198010A8802C0220FFB
:100CD000331F0A94E2F7822F809589238083EB8D5E
:100CE000FC8D908198010F8C02C0220F331F0A9453
:100CF000E2F7822F809589238083EE81FF81108225
:100D0000E985FA851082EC85FD851082EB89FC89E6
:100D10001082EE89FF891082E98DFA8D1082EAA196
:100D2000FBA12081C8010EA002C0880F991F0A9460
:100D3000E2F7822B8083ECA1FDA12081C8010EA0E7
:100D400002C0880F991F0A94E2F7822B8083EAA1E0
:100D5000FBA1908198010BA402C0220F331F0A94BB
:100D6000E2F7822F809589238083ECA1FDA19081F9
:100D700098010BA402C0220F331F0A94E2F7822FBE
:100D80008095892380838FE39CE90197F1F700C068
:100D90000000CE0101960FDF6EA77FA788AB99AB4D
:100DA0009BE5E90EF11C8AEEE81682E0F80609F0F0
:100DB0004ECFCF5EDE4FE7E00C941F158FE892E038
:100DC00091CE089584E392E08DCE0895A0E0B0E046
:100DD000ECEEF6E00C94FA14EC018C010A5A1F4F69
:100DE000FC01EC5AFF4FD8012D913C9180819181FB
:100DF0002817390708F073C0C9A8DAA8EBA8FCA81F
:100E00006DA57EA58FA598A98BAC9CACADACBEACF6
:100E1000A50194010E9404129B01AC01C701B60117
:100E20000E94FF13181684F57E01B8E5EB0EF11C45
:100E3000F7018081853009F064C049A85AA86BA8E1
:100E40007CA86DA57EA58FA598A9A50194010E94F7
:100E500003129B01AC01C301B2010E94901287FFF3
:100E60002FC04FAD60E0CE01C0DDF80180819181DF
:100E700001969183808382E0D7018C93CDB7DEB752
:100E8000E0E10C94161550C0C9A8DAA8EBA8FCA89C
:100E90006DA57EA58FA598A9A50194010E940312B6
:100EA0009B01AC01C701B6010E94901287FF24C0CC
:100EB0007E0198E5E90EF11CD7018C91843089F60A
:100EC00040E060E0CE0191DDF80111821082D7018F
:100ED0001C92CDB7DEB7E0E10C94161525C0349610
:100EE00083E0808340E060E0CE017FDDCDB7DEB7F8
:100EF000E0E10C94161518C0CE01885A9F4F7C0172
:100F0000DFCF4FAD61E0CE0170DDD8018D919C91B6
:100F1000119701968D939C9381E0F7018083CDB763
:100F2000DEB7E0E10C941615CF9384E392E043DE44
:100F300060936102709362028093630290936402F3
:100F400084E392E043DFC0918C028FE892E033DECD
:100F50006093BC027093BD028093BE029093BF0267
:100F60008FE892E033DF8091E7028C0FCF910895F4
:100F7000E0913202F0E0E850FD4F80818A30A1F02C
:100F8000E0913202F0E0E850FD4F80818D3061F059
:100F90009091320280913302981731F080913202A1
:100FA0008F5F80933202E4CF08959093EB02809399
:100FB000EA02E8EFF2E01082319683E0E73FF807BB
:100FC000D1F70895A5E0B0E0E8EEF7E00C9408153D
:100FD000E82FAE014F5F5F4F85E0DA011D928A95E1
:100FE000E9F7DA0135E03E0F91E09E0FF0E0E850BE
:100FF000FD4F20812D93961719F0E92F9313F4CF0D
:10100000CA010E9432152596E2E00C942415AAE04C
:10101000B0E0EDE0F8E00C940615E82F8E010F5FCC
:101020001F4F8AE0D8011D928A95E9F7D8013AE06E
:101030003E0F91E09E0FF0E0E850FD4F20812D9390
:10104000961719F0E92F9313F4CF1F930F930E9473
:1010500018178AE090E00E942C17C8010E942F15F3
:101060000F900F902A96E4E00C942215EF92FF92D5
:101070000F931F930DC030913202909133023917B4
:1010800079F0909132029F5F909332022150E9F102
:10109000E0913202F0E0E850FD4F90819813EBCFE1
:1010A0009091320280913302981749F18091320277
:1010B0008F5F8093320280913202F80180830DC0ED
:1010C000E0913202F0E0E850FD4F8081481769F06E
:1010D000809132028F5F80933202E0913202F0E021
:1010E000E850FD4F80816813EBCF80913202F70109
:1010F000808381E01F910F91FF90EF90089582E02F
:101100001F910F91FF90EF90089583E01F910F9131
:10111000FF90EF900895A4E0B0E0E1E9F8E00C94CE
:10112000F81488E2A82E82E0B82E91E2C92E92E04F
:10113000D92E29E1822E22E0922E3FE0632E32E06A
:10114000732E4FEE242E41E0342E58EE452E51E002
:10115000552E9091320280913302981789F1E091D7
:10116000320281E08E0F80933202F0E0E850FD4FB2
:101170008081803549F1873409F43FC0813409F416
:1011800068C0833531F79ADB182F95DB1F921F93C8
:101190001F928F93BF92AF928091EB028F938091B9
:1011A000EA028F930E949E16E3DE0FB6F894DEBF2C
:1011B0000FBECDBF90913202809133029813CFCFF2
:1011C0002496E2E10C9414151B821982E0913202FC
:1011D000F0E0E850FD4F8081813309F47CC020911C
:1011E000EA023091EB0244E050E061E070E083EE0F
:1011F00091E00E94E616BCDEACCFE091320281E0C5
:101200008E0F80933202F0E0E850FD4F80818133F1
:1012100009F49CC0823309F4ADC0833309F4C8C01B
:101220008433E9F64BDB182F46DB1F921F931F9286
:101230008F937F926F928091EB028F938091EA025D
:101240008F930E949E160FB6F894DEBF0FBECDBFDF
:10125000D2CF19821A82E0913202F0E0E850FD4FBD
:1012600080818983CE0101960E9432158C018830DD
:1012700008F462C0883009F0B2CF6091EA02709140
:10128000EB0281E490E00E94AE1600E010E060E422
:10129000802F8BD89F938F931F930F93DF92CF92C2
:1012A0008091EB028F938091EA028F930E949E16A9
:1012B0000F5F1F4F0FB6F894DEBF0FBECDBF0830D3
:1012C000110529F76091EA027091EB028AE090E043
:1012D0000E94AE1690CFCE0101967C018E010D5F6B
:1012E0001F4F24E14AE06AE38AE3C0DE813009F05F
:1012F00076CF69818B818BDEFFD98C8324E14AE034
:101300006AE38AE3B3DE813009F069CF69818B81BA
:101310007EDE36DABC812091EA023091EB02B11117
:1013200062CF811160CF43E050E061E070E08FED6B
:1013300091E00E94E6165FCF60E437D89F938F93C9
:1013400011271F930F939F928F9275CF1F9281E069
:101350008F935F924F928091EB028F938091EA027C
:101360008F930E949E160F900F900F900F900F90EA
:101370000F9041CF97DA162F072FF82EE92E89DA32
:10138000EF92FF920F931F939F938F937F936F938F
:101390003F922F928091EB028F938091EA028F937C
:1013A0000E949E160FB6F894DEBF0FBECDBF23CFAE
:1013B0009AD9162F072FF82EE92E8CD9EF92FF928B
:1013C0000F931F939F938F937F936F93AFEFB1E032
:1013D000BF93AF93DFCF1F920F920FB60F921124DE
:1013E0002F933F934F935F936F937F938F939F932D
:1013F000AF93BF93EF93FF93CF93DF931F92CDB73C
:10140000DEB78091C00087FFFCCF8091C600898342
:10141000E091330281E08E0F80933302F0E0898106
:10142000E850FD4F808389818A30B9F089818D3001
:10143000A1F00F90DF91CF91FF91EF91BF91AF910C
:101440009F918F917F916F915F914F913F912F91DC
:101450000F900FBE0F901F9018955DDEEACF529847
:101460005A9822982A982198299820982898549830
:101470005C980895529A5A9889B182FB882780F91E
:1014800008951A9908C093B1892F827091FF02C004
:1014900082E00895089581E00895189908C093B1F5
:1014A000892F807194FF02C082E00895089581E041
:1014B0000895A0E0B0E0EFE5FAE00C94021540E0FA
:1014C00052EC61E070E08AEE92E00E9453010E94CB
:1014D000A401259A0E94E80184DB8AEE92E065DD92
:1014E000BEDF109280008DE08093810085E08093C4
:1014F000890084E68093880082E080936F0013BCAB
:101500007894C0E084ECE82E81E0F82E0AEE12E038
:1015100090E2D92EC2DFC82EB4DFD82FABDF1F92E6
:10152000CF921F92DF931F928F93FF92EF921F93A0
:101530000F930E949E16D1E0DC0F6C2F70E080E0CC
:1015400090E00E942813D8D86DE76C0F70E080E01F
:1015500090E00E94281314D92FEF81EE94E02150DF
:1015600080409040E1F700C000008DB79EB70A961A
:101570000FB6F8949EBF0FBE8DBF85B18D2585B97E
:10158000CD2FC8CFA3E1B0E0E8ECFAE00C94F8145A
:101590006C014B012A01FC0117821682838181FFB5
:1015A00043C3AE014F5F5F4F3A01F6019381F401EF
:1015B00093FD859193FF81914F01882309F430C3F6
:1015C000853239F493FD859193FF81914F018532E6
:1015D00039F4B60190E00E94AE1652012501E5CF24
:1015E00010E0F12C20E02032A0F48B3269F030F4CE
:1015F000803259F0833269F420612CC08D3239F089
:10160000803339F4216026C02260246023C0286022
:1016100021C027FD27C030ED380F3A3078F426FF7F
:1016200006C0FAE01F9F300D1124132F13C04AE0AB
:10163000F49E300D1124F32E20620CC08E3221F462
:1016400026FDEEC2206406C08C3611F4206802C06C
:10165000883641F4F40193FD859193FF81914F0108
:101660008111C1CF9BEB980F933018F42061805EFD
:1016700006C09BE9980F933008F071C12F7E26FFBA
:1016800016E02F73322E853619F42064322E08C0EE
:10169000863621F4F22FF0683F2E02C0111111504E
:1016A00037FE07C01C3350F4EE24E394E10E27E02C
:1016B0000BC0183038F027E017E005C027E04CE3F6
:1016C000E42E02C0212FE12C520144E0A40EB11CF3
:1016D000F20160817181828193810E2DA3010E94AC
:1016E0004F152C01098100FF02C003FF07C031FC28
:1016F00008C032FE09C030E2232E07C02DE2222EA0
:1017000004C09BE2292E01C0212C802F8C7019F07F
:10171000211068C2A8C237FE0FC0E40C04FF04C049
:101720008A81813309F4EA941E1474F5F8E0FE15F9
:1017300078F588E0E82E2CC036FC2AC0812F90E096
:10174000841595059CF02CEF42162FEF520674F08D
:10175000432D4068342E0AC0E2E0F0E0EC0FFD1F9C
:10176000E10FF11D8081803319F411501111F4CF74
:1017700037FE0EC0EE24E394E10E812F90E0481670
:1017800059062CF4141904C0EE24E39401C010E0AF
:1017900037FE06C01414150434F4C201019605C0C6
:1017A00085E090E002C081E090E0211001961123D5
:1017B00031F0212F30E02F5F3F4F820F931F2F2DED
:1017C00030E08217930714F4F81A01C0F12C832D2E
:1017D000897049F4FF2039F0B60180E290E00E9460
:1017E000AE16FA94F7CF222029F0B601822D90E0B0
:1017F0000E94AE1633FC09C0FF2039F0B60180E329
:1018000090E00E94AE16FA94F7CF37FE5AC0942D9E
:10181000852D57FE02C090E080E0292E382E20E072
:1018200030E0A2014E1951095D874C87A20142198F
:1018300053095F874E87612F70E044275527461B69
:10184000570B598B488B5FEF2516350649F4B601C7
:101850008EE290E02A8B3B8B0E94AE163B892A8950
:10186000421453046CF04C855D854215530544F4D5
:10187000EE85FF85E20FF31FE60DF71D818101C0A4
:1018800080E351E0251A31082F5F3F4F488959897D
:10189000241635064CF0B60190E02A8B3B8B0E9453
:1018A000AE162A893B89CFCF2414350439F49A81A6
:1018B000963318F4953311F404FF81E3B60190E0F8
:1018C0004BC08A81813309F00F7EB60190E00E94FF
:1018D000AE16111105C034FC18C085E690E017C0A3
:1018E000B6018EE290E00E94AE1682E0EE24E39410
:1018F000E80EF301E80FF11D8081B60190E00E942F
:10190000AE1611508E2D91F7E6CF85E490E0B6012A
:101910000E94AE1657FC05C04114510439F404FF6F
:1019200005C05194419451088DE201C08BE2B6018B
:1019300090E00E94AE1680E39AE0491651042CF024
:101940008F5F5AE0451A5108F7CFB60190E00E9428
:10195000AE16B601C201C0960E94AE1657C18336BC
:1019600031F0833779F0833509F058C021C0520136
:10197000E2E0AE0EB11CF2018081898301E010E04B
:10198000230114C05201F2E0AF0EB11CF2014080FD
:10199000518026FF03C0612F70E002C06FEF7FEF20
:1019A000C2012A8B0E944D168C012A892F7715C0FF
:1019B0005201F2E0AF0EB11CF2014080518026FFCF
:1019C00003C0612F70E002C06FEF7FEFC2012A8B6E
:1019D0000E9442168C012A892068322E23FD1AC0EB
:1019E0008F2D90E008171907A8F4B60180E290E067
:1019F0000E94AE16FA94F4CFF20137FC859137FEBF
:101A000081912F01B60190E00E94AE16F110FA9478
:101A1000015011090115110579F7F8C0843611F04C
:101A2000893659F5520127FF09C0F4E0AF0EB11C09
:101A3000F20160817181828193810AC0F2E0AF0E70
:101A4000B11CF20160817181072E000C880B990B8B
:101A50002F76322E97FF09C09095809570956195ED
:101A60007F4F8F4F9F4F2068322E2AE030E0A30136
:101A70000E944A17E82EE6183FC0022F853721F44E
:101A80000F7E2AE030E01DC0097F8F3691F018F4F8
:101A9000883559F0C5C0803719F0883711F0C0C0BB
:101AA000006104FF09C0046007C024FF08C006608D
:101AB00006C028E030E005C020E130E002C020E1AF
:101AC00032E0520107FF09C0F4E0AF0EB11CF20191
:101AD000608171818281938108C0F2E0AF0EB11CF8
:101AE000F2016081718180E090E0A3010E944A17B9
:101AF000E82EE6180F77302E36FE0BC0332D3E7FD2
:101B0000E11650F434FE0AC032FC08C0332D3E7E8C
:101B100005C00E2D332D03C00E2D01C0012F34FF43
:101B20000CC0FE01EE0DF11D8081803311F4397E71
:101B300008C032FF05C00E5F04C0832F867809F00D
:101B40000F5F33FD13C030FF06C01E2D0F1518F4B4
:101B50001F0D101B0F2D0F1568F4B60180E290E0E9
:101B60003B8B0E94AE160F5F3B89F5CF0F1510F42B
:101B7000F01A01C0F12C34FF12C0B60180E390E0EE
:101B80003B8B0E94AE163B8932FF17C031FD03C06C
:101B900088E790E002C088E590E0B6010CC0832F92
:101BA000867859F031FF02C08BE201C080E237FD38
:101BB0008DE2B60190E00E94AE16E11638F4B6014F
:101BC00080E390E00E94AE161150F7CFEA94F30143
:101BD000EE0DF11D8081B60190E00E94AE16E1107D
:101BE000F5CF14C0F4E0FF1558F584E0F81A33FE81
:101BF0001EC0211026C003FF2AC006E910E0F32D05
:101C0000F0713F2EF8018491811124C0FF2009F466
:101C1000E5CCB60180E290E00E94AE16FA94F6CFD1
:101C2000F6018681978126C08FEF9FEF23C0B60112
:101C300080E290E00E94AE16FA94F110F8CFD9CF6E
:101C4000F12CB601822D90E00E94AE16D4CF0AE9A5
:101C500010E0D5CF31108052B60190E00E94AE1650
:101C60000F5F1F4FCFCF23E02F1510F483E0BECFBF
:101C7000F12CC1CF6396E2E1D7C620FD09C0FC017B
:101C800023FD05C022FF02C073836283518340831A
:101C9000089544FD10C046FD10C0DB01FC01AA0FF1
:101CA000BB1FEE1FFF1F1094D1F76A0F7B1F8E1F03
:101CB0009F1F31E003C033E001C034E0660F771F9F
:101CC000881F991F3150D1F7620F711D811D911D21
:101CD00008950F931F93CF93DF938C01C801F0D722
:101CE000EC0197FD07C0B3D7892BC1F7B801CE012E
:101CF0000E943117CE01DF91CF911F910F9108956E
:101D0000A0E0B0E0E5E8FEE079C67C018B016A0165
:101D1000D22FD6D79C0133272B32310521F02D321B
:101D2000310551F4D0680150110911F480E063C00D
:101D3000C701C6D797FDFACFCD2FCD7F2D2F2073AA
:101D4000F9F48033E9F4580181E0A81AB10809F4E4
:101D50003FC0C701B5D797FD3BC0282F2F7D283541
:101D600049F4C2640250110999F1C701A9D797FF3C
:101D700007C02EC0D6FF02C0C26001C0C26185018B
:101D8000812C912C540120ED280F283080F0C4FFC5
:101D900004C0B7010E94311718C02A3040F0C6FFB6
:101DA000F8CF2F7D3FEE320F363098F727504C2F6B
:101DB000C501B4016EDF4B015C01C2600150110925
:101DC00051F0C7017DD797FFDECFC1FD04C0AECF74
:101DD000812C912C5401C7FF08C0B094A09490941A
:101DE0008094811C911CA11CB11C2C2FB501A40155
:101DF000C60143DF81E0CDB7DEB7ECE01BC6A0E251
:101E0000B0E0E4E0FFE0F6C54C015B017A018E0131
:101E10000F5F1F4F680180E2F80111928A95E9F780
:101E2000F401638040E050E0712C412C80E0A1E09F
:101E3000B0E0F90163FC559063FE51908F01952D40
:101E40009F01511003C080E090E07EC0FEE55F126C
:101E500003C04115510561F1682F70E064177507E3
:101E60004CF46DE5561669F1EDE25E1203C04420B4
:101E700009F103C0411001C0752C692F6695669564
:101E80006695F601E60FF11D692F67708D0102C09E
:101E9000000F111F6A95E2F7B8017081672B60830C
:101EA000971559F0971510F49F5FE7CF9150E5CF44
:101EB00081E004C04424439401C0412C4F5F5F4F34
:101EC000B8CF442019F09E8190629E83811103C097
:101ED0007724739418C0F6019E012F5D3F4F8081D7
:101EE00080958193E217F307D1F7F2CFE114F10463
:101EF00029F0F7018083C70101967C0191E0A91ABE
:101F0000B108712CD9F0C401DBD697FD15C0282F7C
:101F1000269526952695F601E20FF11D208130E0E9
:101F2000AC014770552702C0359527954A95E2F7D1
:101F300020FDDCCFB40195D7711085CFE114F104F9
:101F400011F0F7011082C801A096E0E16FC5A6E08C
:101F5000B0E0ECEAFFE04CC55C017B011A01B0D6B1
:101F60009E838D8399278B32910521F08D9781F483
:101F700010E801C010E021E0E21AF10811F480E05D
:101F80001EC1C5019DD69E838D8397FF02C0F7CFEA
:101F900010E08D819E8163D68936910549F08E3699
:101FA000910509F038C065EE862E61E0962E04C0DA
:101FB00078EE872E71E0972EEFEF8E1A9E0AF401CD
:101FC000319704910023B1F081E0E81AF10859F04B
:101FD000C50176D66C0197FD06C041D6081761F39E
:101FE000B501C6013ED79BEE891691E0990609F02E
:101FF000C6CF05C0F8EE8F16F1E09F0629F080E00D
:1020000090E0A0E8BFE704C080E090E0A0ECBFE76C
:10201000BC01CD01C4C0412C512C3201C12CD12CAA
:102020002D8120532A3010F5012F0260812F8870F6
:1020300012FF06C0811120C02FEFC21AD20A1CC0A5
:10204000882319F081E0C81AD10840E2C301B20127
:1020500020DE2B013C0198E9491699E959066906E9
:1020600099E1790648F0012F066006C02E3F89F4F9
:1020700013FD0FC0012F0860E1E0EE1AF10841F0F6
:10208000C5011ED69E838D83102F97FFC9CF01C037
:10209000102F11FF74CF8D818F7D853409F04AC0D8
:1020A0004701F1E08F1A910809F469CFC50108D6FC
:1020B0009E838D8397FD63CF99278B32910519F00D
:1020C0008D9759F41061470122E0821A910809F4B2
:1020D00056CFC501F5D59E838D838D819E81C09796
:1020E0000A9708F04CCF7401812C912CB401990C03
:1020F000880B990B2D81205340E2CBDDAB01BC0155
:102100004A0181E0E81AF10869F0C50149835A8360
:102110006B837C83D5D59E838D83C09749815A81FB
:102120000A9720F314FF04C088249924841A950A7E
:10213000C80CD91CEF2839F0ED81FE81F7FD03C0F2
:10214000B501CF018ED6C301B20182D2D7FE08C03D
:10215000D194C194D10854E0852E52E0952E04C04C
:102160004CE1842E42E0942E5401F8E1AF1AB108FC
:1021700030E2E32EF12CCE14DF0448F0F401259177
:1021800035914591549146D3CE18DF08F4CF24E021
:10219000821A9108F694E7948A149B0461F717FF5A
:1021A00005C0DC01CB01B058BC01CD0121143104C4
:1021B00029F0F101608371838283938381E0269605
:1021C000E2E132C4A1E0B0E0E7EEF0E113C46C015B
:1021D0002B014A01FC0117821682A12CF601F38023
:1021E000F201F3FC8591F3FE8191482F2F018823A2
:1021F00009F401C190E049832AD54981892B19F05E
:10220000C60167DDEBCF453241F4F201F3FC4591A5
:10221000F3FE41912F01453259F4C601498350D54F
:10222000498197FDE6C04817C9F2B6011AD6E3C046
:102230004A3239F4F3FC4591F3FE41912F0151E00C
:1022400001C050E0320100E010E020ED240F2A3000
:1022500080F45260B80180E090E040E2598319DDDB
:102260008B01F301F3FC4591F3FE41913F0159814C
:10227000ECCFB52E342F230151FF04C001151105F9
:1022800019F4B9C00FEF1FEF483619F04C3659F06A
:1022900013C0F301F3FC3591F3FE31912F01383671
:1022A00059F45860B52EFB2DF460BF2EF201F3FCFB
:1022B0003591F3FE31912F01332309F49CC0632F34
:1022C00070E083ED91E03983D2D43981892B09F410
:1022D00092C0B0FC07C0F401E080F180C401029616
:1022E0004C0102C0E12CF12C3E3649F4F601468146
:1022F000578160E070E02B2DC701BFDC6FCF333614
:10230000A1F4B1FC02C001E010E0C601D9D497FDF0
:1023100070C0E114F10429F0F7018083C701019630
:102320007C010150110989F760C03B3551F49201DD
:10233000A701B801C60163DD2C01892B09F055C046
:102340004FC0C6013983C5DC398197FD52C03F3685
:10235000C1F140F4343689F13936B1F1383509F03C
:1023600039C027C03337A1F018F4303711F132C02B
:10237000353719F13837E9F02DC0E114F10429F0AF
:10238000F7016082C70101967C010150110959F0E3
:10239000C60196D43C0197FD06C059D4892B69F338
:1023A000B601C3015ED5E114F104F9F0F701108222
:1023B0001CC0FB2DF064BF2E07C08B2D8062B82E91
:1023C00003C09B2D9061B92E2B2DA701B801C6012A
:1023D00097DC04C0A701B801C601B9DD811105C0B1
:1023E000F6018381807329F406C0B0FCF7CEA39474
:1023F000F5CEAA2019F08A2D90E002C08FEF9FEF52
:102400002196E0E113C35058BB27AA270ED0BDC1C7
:10241000AED130F0B3D120F031F49F3F11F41EF46F
:102420007EC10EF4E095E7FB74C1E92FBFD180F3C4
:10243000BA17620773078407950718F071F49EF5C1
:10244000D7C10EF4E0950B2EBA2FA02D0B01B901C8
:1024500090010C01CA01A0011124FF27591B99F01A
:10246000593F50F4503E68F11A16F040A22F232F26
:10247000342F4427585FF3CF469537952795A79576
:10248000F0405395C9F77EF41F16BA0B620B730B1D
:10249000840BBAF09150A1F0FF0FBB1F661F771F8E
:1024A000881FC2F70EC0BA0F621F731F841F48F443
:1024B000879577956795B795F7959E3F08F0B3CFC9
:1024C0009395880F08F09927EE0F979587950895B3
:1024D000DF93DD27B92FBF7740E85FE316161706B5
:1024E00048075B0710F4D92F8ED19F938F937F936A
:1024F0006F9335D2E8E6F0E015D147D12F913F91A7
:102500004F915F9193D1DD2349F09058A2EA2AEDD3
:102510003FE049EC5FE3D0785D2787DFDF9135C18D
:10252000D4D008F481E008950CD02FC127D140F019
:102530001ED130F021F45F3F19F0EBC0511159C1A9
:10254000EEC034D198F39923C9F35523B1F3951B09
:10255000550BBB27AA2762177307840738F09F5FC4
:102560005F4F220F331F441FAA1FA9F333D00E2E33
:102570003AF0E0E830D091505040E695001CCAF7A0
:1025800029D0FE2F27D0660F771F881FBB1F261765
:1025900037074807AB07B0E809F0BB0B802DBF0138
:1025A000FF2793585F4F2AF09E3F510568F0B1C056
:1025B00020C15F3FECF3983EDCF3869577956795F5
:1025C000B795F7959F5FC9F7880F911D96958795E9
:1025D00097F90895E1E0660F771F881FBB1F621708
:1025E00073078407BA0720F0621B730B840BBA0BC6
:1025F000EE1F88F7E0950895E1D088F09F5790F09E
:10260000B92F9927B751A0F0D1F0660F771F881F17
:10261000991F1AF0BA95C9F712C0B13081F0E8D00D
:10262000B1E00895E5C0672F782F8827B85F39F0AB
:10263000B93FCCF3869577956795B395D9F73EF476
:1026400090958095709561957F4F8F4F9F4F08951E
:10265000E89409C097FB3EF490958095709561953C
:102660007F4F8F4F9F4F9923A9F0F92F96E9BB27F2
:102670009395F695879577956795B795F111F8CF6E
:10268000FAF4BB0F11F460FF1BC06F5F7F4F8F4FD9
:102690009F4F16C0882311F096E911C0772321F0CF
:1026A0009EE8872F762F05C0662371F096E8862F67
:1026B00070E060E02AF09A95660F771F881FDAF7BE
:1026C000880F9695879597F90895990F0008550FEB
:1026D000AA0BE0E8FEEF16161706E807F907C0F0A8
:1026E00012161306E407F50798F0621B730B840BB0
:1026F000950B39F40A2661F0232B242B252B21F48A
:1027000008950A2609F4A140A6958FEF811D811D29
:10271000089597F99F6780E870E060E008959FEF63
:1027200080EC0895DF93CF931F930F93FF92EF9266
:10273000DF927B018C01689405C0DA2EEF0176D020
:10274000FE01E894A5912591359145915591AEF3FF
:10275000EF016BDEFE019701A801DA9479F7DF90B3
:10276000EF90FF900F911F91CF91DF91089500247A
:102770000A941616170618060906089500240A94E6
:1027800012161306140605060895092E0394000C6C
:1027900011F4882352F0BB0F40F4BF2B11F460FFFB
:1027A00004C06F5F7F4F8F4F9F4F089557FD905824
:1027B000440F551F59F05F3F71F04795880F97FB05
:1027C000991F61F09F3F79F08795089512161306BF
:1027D0001406551FF2CF4695F1DF08C016161706EE
:1027E0001806991FF1CF8695710561050894089523
:1027F000E894BB2766277727CB0197F9089565DF13
:1028000008F48FEF08959B01AC0160E070E080E870
:102810009FE38ACE0BD0B9CFAADF28F0AFDF18F044
:10282000952309F076CF7BCF1124E3CFBFDFA0F350
:10283000959FD1F3950F50E0551F629FF001729F55
:10284000BB27F00DB11D639FAA27F00DB11DAA1F74
:10285000649F6627B00DA11D661F829F2227B00DC1
:10286000A11D621F739FB00DA11D621F839FA00D4C
:10287000611D221F749F3327A00D611D231F849F9C
:10288000600D211D822F762F6A2F11249F575040F3
:102890008AF0E1F088234AF0EE0FFF1FBB1F661F8E
:1028A000771F881F91505040A9F79E3F510570F047
:1028B00030CF9FCF5F3FECF3983EDCF38695779562
:1028C0006795B795F795E7959F5FC1F7FE2B880F42
:1028D000911D9695879597F9089511F40EF41FCFE1
:1028E00041C06CDFD0F39923D9F3CEF39F57550B3A
:1028F00087FF46D00024A0E640EA90018058569514
:10290000979528F4805C660F771F881F20F02617A4
:102910003707480730F4621B730B840B20293129D9
:102920004A2BA69517940794202531254A2758F756
:10293000660F771F881F20F026173707480730F4E7
:10294000620B730B840B200D311D411DA09581F787
:10295000B901842F9158880F9695879508959B010A
:10296000AC0158CF9F3F31F0915020F48795779577
:102970006795B795880F911D9695879597F9089556
:1029800091505040660F771F881FD2F70895A1E23B
:102990001A2EAA1BBB1BFD010DC0AA1FBB1FEE1FD9
:1029A000FF1FA217B307E407F50720F0A21BB30B24
:1029B000E40BF50B661F771F881F991F1A9469F7A0
:1029C00060957095809590959B01AC01BD01CF01FC
:1029D0000895A29FB001B39FC001A39F700D811DF8
:1029E0001124911DB29F700D811D1124911D089518
:1029F0002F923F924F925F926F927F928F929F920F
:102A0000AF92BF92CF92DF92EF92FF920F931F93FC
:102A1000CF93DF93CDB7DEB7CA1BDB0B0FB6F894AD
:102A2000DEBF0FBECDBF09942A88398848885F84ED
:102A30006E847D848C849B84AA84B984C884DF805E
:102A4000EE80FD800C811B81AA81B981CE0FD11D42
:102A50000FB6F894DEBF0FBECDBFED010895662717
:102A6000772776C2FC0188279927E89421912032A4
:102A7000E9F3293010F02E30C8F32B3239F02D3223
:102A800031F4689403C014D1820F911D2191205319
:102A90002A30C8F31EF4909581959F4F08952830F1
:102AA00008F027E03327DA01990F311D87FD916087
:102AB00000966105710539F432602E5F3D9330E375
:102AC0002A95E1F708959F3F30F080387105610540
:102AD00009F03C5F3C5F3D93913008F08068911DA8
:102AE000DF93CF931F930F93FF92EF92192F987F4D
:102AF0009695E92F96959695E90FFF27E850FF4F99
:102B000099273327EE24FF24A701E70105900894B5
:102B1000079428F4360FE71EF81E491F511D660F53
:102B2000771F881F991F0694A1F70590079428F432
:102B3000E70EF81E491F561FC11D770F881F991FEA
:102B4000661F0694A1F70590079428F4F80E491F14
:102B5000561FC71FD11D880F991F661F771F069428
:102B6000A1F70590079420F4490F561FC71FD81FDF
:102B7000990F661F771F881F0694A9F784911095F7
:102B8000177041F0D695C79557954795F794E794F8
:102B90001A95C1F7EEE9F0E068941590159135911A
:102BA0006591959105907FE27395E118F10A430BC9
:102BB000560BC90BD009C0F7E10CF11E431F561F7D
:102BC000C91FD01D7EF4703311F48A95E6CFE894C6
:102BD000015030F0080F0AF40027021708F4202FE4
:102BE0002395022F7A3328F079E37D932A95E9F72C
:102BF00010C07D932A9589F6069497956795379529
:102C000017951794E118F10A430B560BC90BD0091D
:102C100098F023957E9173957A3308F070E37C9356
:102C20002013B8F77E9170617D9330F0839571E346
:102C30007D9370E32A95E1F71124EF90FF900F91B7
:102C40001F91CF91DF91992787FD9095089591115C
:102C5000D1C2803219F089508550D0F70895911172
:102C6000089581548A5108F4805E855A0895FC01C4
:102C70000590061621F00020D9F7C001089531977C
:102C8000CF010895FC010590615070400110D8F704
:102C9000809590958E0F9F1F0895FC0161507040A4
:102CA00001900110D8F7809590958E0F9F1F089581
:102CB0007AE0979F902D879F802D910D1124089584
:102CC000CF93DF93EC012B8120FF33C026FF0AC096
:102CD0002F7B2B838E819F8101969F838E838A8198
:102CE00090E029C022FF0FC0E881F9818081082E81
:102CF000000C990B009719F420622B831AC03196AF
:102D0000F983E8830EC0EA85FB85099597FF09C022
:102D10002B81019611F080E201C080E1822B8B8330
:102D200008C02E813F812F5F3F4F3F832E8399271D
:102D300002C08FEF9FEFDF91CF910895A0E0B0E048
:102D4000E3EAF6E165CEAE01475F5F4F6F817885BC
:102D50008D819E810E94C20AE2E076CE0F931F937E
:102D6000CF93DF93FB01238121FD03C08FEF9FEF02
:102D700028C022FF16C04681578124813581421721
:102D8000530744F4A081B1819D012F5F3F4F3183F0
:102D900020838C93268137812F5F3F4F3783268393
:102DA00010C0EB01092F182F0084F185E02D099543
:102DB000892BE1F68E819F8101969F838E83812FDF
:102DC000902FDF91CF911F910F910895A0E0B0E077
:102DD000EBEEF6E113CE5B014A017901D9011396BE
:102DE0002C9121FF1DC0C0E0D0E0C815D905D9F055
:102DF0008C016C01CA0CDB1CC8010C151D0571F09F
:102E00000F5F1F4FD7011896ED91FC911997B701ED
:102E1000DC018C910995892B79F305C02196E5CFCA
:102E200080E090E001C0CE01CDB7DEB7ECE002CE8D
:102E3000A0E0B0E0EDE1F7E1EBCDAE014B5F5F4F1D
:102E4000FA0161917191AF018091FA039091FB03B6
:102E50000E94C20AE2E0F8CD6091FA037091FB0390
:102E60007DCFFB01238120FF12C026FD10C08F3FC4
:102E70003FEF930761F082832F7D206423832681B7
:102E800037812150310937832683992708958FEFA1
:102E90009FEF0895FA01AA27283051F1203181F1DE
:102EA000E8946F936E7F6E5F7F4F8F4F9F4FAF4F52
:102EB000B1E03ED0B4E03CD0670F781F891F9A1F65
:102EC000A11D680F791F8A1F911DA11D6A0F711D19
:102ED000811D911DA11D20D009F468943F912AE025
:102EE000269F11243019305D3193DEF6CF0108950D
:102EF000462F4770405D4193B3E00FD0C9F7F6CF3E
:102F0000462F4F70405D4A3318F0495D31FD405205
:102F1000419302D0A9F7EACFB4E0A695979587959B
:102F200077956795BA95C9F700976105710508957A
:102F30009B01AC010A2E0694579547953795279526
:102F4000BA95C9F7620F731F841F951FA01D0895BE
:102F5000A0E0B0E0EDEAF7E14FCDEC017B016115B7
:102F6000710519F0DB018D939C938E010F5F1F4F4C
:102F70007880872D90E06BDE892B11F0E801F5CF8A
:102F8000BDE27B1205C00F5F1F4F7980C1E008C012
:102F9000EBE27E1204C08E010E5F1F4F7980C0E00D
:102FA0006801F1E0CF1AD10843E050E060EA71E037
:102FB000C60123D1892BE9F4680122E0C20ED11C9D
:102FC00045E050E06BE971E0C60117D1892B21F48F
:102FD000680187E0C80ED11CE114F10419F0D70193
:102FE000CD92DC92C111F9C060E070E080E89FE70B
:102FF000FDC043E050E068E971E0C601FED0892BD6
:1030000051F4E114F10409F4EDC00E5F1F4FF70114
:1030100011830083E7C0680160E070E0CB0100E04D
:1030200010E0F601D0EDD70DDA3050F52C2F2260EC
:10303000622E2C2F2870C2FF05C0211127C00F5F00
:103040001F4F24C0222311F001501109A5E0B0E068
:103050009B01AC01EAD04B015C01880C991CAA1CB5
:10306000BB1CC501B4016D0F711D811D911D683917
:10307000A9E97A078A07A9E19A0740F0C66005C066
:10308000DE3F51F4C3FD44C0C8606C2EBFEFCB1AC5
:10309000DB0A7080C62DC5CF2D2F2F7D2531C1F5C0
:1030A00040814D3211F4C06106C04B3221F031969F
:1030B00021E030E006C03296D60111964C9122E014
:1030C00030E0A0EDA40FAA3018F0E21BF30B20C0F3
:1030D00040E050E04038BCE05B075CF49A01220F0E
:1030E000331F220F331F420F531F440F551F4A0F28
:1030F000511D3196DF0111972C91A0EDA20FAA303E
:1031000048F3C4FF03C0519541955109040F151FA1
:10311000C1FF07C0E114F10421F03197D701ED930D
:10312000FC9396DAC370C33019F06B017C0106C0C2
:103130006B017C01F7FAF094F7F8F09420E030E0AE
:10314000A901C701B601ECD9882309F443C017FFD0
:1031500006C0119501951109C7EBD1E002C0CFEC73
:10316000D1E05E01B8E1AB1AB1084601BE2DAF2D2A
:1031700090E2E92EF12C0E151F057CF0FE01259141
:10318000359145915491B4018B2F9A2F43DB4B011C
:10319000B82FA92F0E191F09EECF2497F594E794A5
:1031A000CA15DB0541F76401EB2EFA2E8E2D880F30
:1031B0008F2D881F8F3F41F020E030E0A901C7012B
:1031C000B601AED9811106C082E290E09093FF0370
:1031D0008093FE03C701B60109C060E070E080E89B
:1031E0009FEF04C060E070E080EC9FE7CDB7DEB7F2
:1031F000EEE01ECC992788270895FB01DC014150A1
:10320000504088F08D9181341CF08B350CF4805E39
:10321000659161341CF06B350CF4605E861B6111A6
:1032200071F3990B0895881BFCCFD3DBA59F900DFC
:10323000B49F900DA49F800D911D11240895F894C2
:02324000FFCFBE
:1032420000000002000000004A01000000002B0004
:103252002A000644002345000047002B002A0005EF
:1032620044008345000048002B002A00070006287E
:1032720000270002280027000300010000000000D0
:1032820000344301018813881300000040C8000085
:10329200C842000020430000344303027A030802BC
:1032A2007003983A0000002D022500240003B000AC
:1032B20083B10004B3002B002A0003B00023B10045
:1032C20004B4002500240004010728002700042874
:1032D2000027000500010000000000003E4201013D
:1032E2008813881300000040C80000A0400000AA14
:1032F200420000A04054011C025E011202983A00F2
:103302000000C8026175746F3A25642C2074696CE0
:10331200743A25642C207475726E3A25640A004F43
:103322004B0A004552520A0047313A25640A0047C7
:10333200323A25352E32663A25352E32660A004754
:10334200333A25352E32663A25352E32660A004743
:10335200343A25643A25640A004125643A25640A10
:103362000025643A25643A00533A25643A25640AF2
:02337200000059
:00000001FF
