:100000000FC100002AC1000028C1000026C1000065
:1000100024C1000022C1000020C100001EC1000058
:100020001CC100001AC1000018C1000017C1000067
:1000300014C1000012C1000010C100000EC1000078
:100040000CC100000AC100000C943F1106C1000061
:1000500004C1000002C1000000C10000FEC0000099
:10006000FCC00000FAC00000084AD73B3BCE016E3E
:1000700084BCBFFDC12F3D6C74319ABD56833DDAFF
:100080003D00C77F11BED9E4BB4C3E916BAAAABE0E
:10009000000000803F006E616E00696E66000040E7
:1000A0007A10F35A00A0724E18090010A5D4E80087
:1000B00000E87648170000E40B54020000CA9A3B9F
:1000C000000000E1F5050000809698000000404225
:1000D0000F000000A08601000000102700000000B3
:1000E000E803000000006400000000000A000000B7
:1000F00000000100000000002C76D888DC674F0863
:1001000023DFC1DFAE59E1B1B796E5E3E453C63A68
:10011000E651997696E8E6C28426EB898C9B62EDDF
:10012000407C6FFCEFBC9C9F40F2BAA56FA5F49099
:10013000055A2AF75C936B6CF9676DC11BFCE0E410
:100140000D47FEF520E6B500D0ED902E0300943566
:1001500077050080841E080000204E0A000000C8B9
:100160000C333333330F986E12831141EF8D21140A
:10017000893BE65516CFFEE6DB18D1844B381BF7DA
:100180007C1D901DA4BBE424203284725E22810079
:10019000C9F124ECA1E53D274E414E494E49545941
:1001A000494E46CDCCCC3D0AD7233C17B7D1387742
:1001B000CC2B329595E6241FB14F0A000020410058
:1001C00000C84200401C4620BCBE4CCA1B0E5AAEA2
:1001D000C59D746364696E6F70737578585B6566EE
:1001E0006745464700616E006E66696E6974790006
:1001F000CDCCCC3D0AD7233C17B7D13877CC2B32A6
:100200009595E6241FB14F0A000020410000C84226
:1002100000401C4620BCBE4CCA1B0E5AAEC59D7485
:1002200011241FBECFEFD8E0DEBFCDBF12E0A0E0AB
:10023000B1E0ECE9F1E402C005900D92AA3DB107EE
:10024000D9F723E0AAEDB2E001C01D92A23FB207A8
:10025000E1F70E94AB110C94CC20D2CE1F920F92EA
:100260000FB60F9211240F900FBE0F901F9018958C
:1002700013BC0895259A08959091C00095FFFCCF76
:100280008093C60080E090E00895CF93DF93EC0167
:10029000892B09F441C0440F551F661F771F440F77
:1002A000551F661F771F9A01AB01220F331F441F92
:1002B000551F60E074E284EF90E00E94741CBA0164
:1002C000A9014150510961097109519A5098BB2700
:1002D000A72F962F852F8093C5004093C40080914F
:1002E000C10088698093C1008091C20086608093BC
:1002F000C2008091C00082608093C0008EE0E0E088
:10030000F1E0DE0101900D928A95E1F780E091E045
:100310009093ED038093EC03DF91CF91089590913A
:10032000C00095FFFCCF8093C600089502C0809165
:10033000C6008091C00087FDFACF08958091C0006B
:1003400087FFFCCF8091C6000895AC01F89420E0AF
:100350006217A9F09091C00097FFFCCF9091C60062
:10036000FA01E20FF11DE491E91779F020E0611143
:10037000F1CF8091C00087FF06C08091C6008091B8
:10038000C00087FDFACF789408952F5FE1CF860FE4
:1003900080937C0087EC80937A0080917A0086FDC0
:1003A000FCCF8091780090917900089517B818B823
:1003B0000895CF92DF92EF92FF92242F860F8093C1
:1003C0007C0097EC90937A0090917A0096FDFCCF98
:1003D0004091780050917900222359F130E0C12CEE
:1003E000D12C760147EC80937C0040937A00909169
:1003F0007A0096FDFCCFE0917800F0917900CE0E66
:10040000DF1EE11CF11CE7ECF0E03197F1F700C0D2
:1004100000003F5F3213E7CF30E040E050E0C7011B
:10042000B6010E94741CC901FF90EF90DF90CF903D
:100430000895C12CD12C7601EFCF860F2AE040E041
:1004400050E0BA0137EC80937C0030937A009091B1
:100450007A0096FDFCCFE0917800F09179004E0F84
:100460005F1F611D711D215071F7CB01BA01089505
:100470004F925F926F927F928F929F92AF92BF92B4
:10048000CF92DF92EF92FF92AC019C01ACE7B1E01A
:100490000E94961C6B017C01BA0180E090E00E94F2
:1004A000D51A9B01AC010E94B71B4B015C01C7012F
:1004B000B60164507D488109910924E0C20E2DE8FF
:1004C000D21EE11CF11C0E94D71AA50194010E94C2
:1004D000B01920E032E44FEE58E40E94B11920E058
:1004E00030E048EC51E40E94B1192B013C01C701F6
:1004F000B6010E94D71AA50194010E94B11920E00B
:1005000032E44FEE58E40E94B01920E030E048ECAD
:1005100051E40E94B0199B01AC01C301B2010E94D9
:10052000B71B0E941E1C9B01AC0160E072EE81E8CB
:1005300098E40E94B0196B017C01A501940160E070
:1005400070E784E197E40E94B01920E032E44FEEB6
:1005500058E40E94B11920E030E048EC51E40E94D8
:10056000B1199B01AC01C701B6010E94411A0E945A
:10057000151A20E030E044EB53E40E94B71B90587A
:100580002BED3FE049E450E40E94411AFF90EF90C8
:10059000DF90CF90BF90AF909F908F907F906F90A3
:1005A0005F904F9008954F925F926F927F928F92DB
:1005B0009F92AF92BF92CF92DF92EF92FF92AC01E7
:1005C0009C01A4E5B1E00E94961C6B017C01BA017C
:1005D00080E090E00E94D51A9B01AC010E94B71BFD
:1005E0004B015C01C701B601645E70478109910946
:1005F00024EEC20E20E7D21EE11CF11C0E94D71A85
:10060000A50194010E94B01920E031E04EE758E4C2
:100610000E94B11920E030E0A9010E94B1192B011C
:100620003C01C701B6010E94D71AA50194010E949E
:10063000B11920E031E04EE758E40E94B0199B0167
:10064000AC01C301B2010E94B71B0E941E1C9B019A
:10065000AC0160E076E589E298E40E94B0196B0194
:100660007C01A501940160E078EC81EE96E40E94A3
:10067000B01920E031E04EE758E40E94B11920E0C3
:1006800030E0A9010E94B1199B01AC01C701B6017C
:100690000E94411A0E94151A20E030E044EB53E416
:1006A0000E94B71B2BED3FE049E450E40E94411A41
:1006B0009B01AC0160E070E084EB92E40E94B01911
:1006C000FF90EF90DF90CF90BF90AF909F908F9072
:1006D0007F906F905F904F90089560913B01709173
:1006E0003C0180913D0190913E0108956091A001EF
:1006F0007091A1018091A2019091A3010895CF92E0
:10070000DF92EF92FF926B017C0120914E013091BC
:100710004F0140915001509151010E94AC1B87FF45
:1007200006C081E0FF90EF90DF90CF900895609138
:100730004E0170914F018091500190915101209193
:1007400052013091530140915401509155010E9442
:10075000B1199B01AC01C701B6010E943D1A1816E0
:1007600004F3C0923F01D0924001E0924101F09227
:100770004201109269011092680180E0FF90EF90B1
:10078000DF90CF900895CF92DF92EF92FF926B01AE
:100790007C012091B3013091B4014091B501509199
:1007A000B6010E94AC1B87FF06C081E0FF90EF906E
:1007B000DF90CF9008956091B3017091B401809162
:1007C000B5019091B6012091B7013091B8014091E7
:1007D000B9015091BA010E94B1199B01AC01C70146
:1007E000B6010E943D1A181604F3C092A401D092DB
:1007F000A501E092A601F092A7011092CE011092FD
:10080000CD0180E0FF90EF90DF90CF900895A0E0C1
:10081000B0E0EDE0F4E00C94AF1CEC016A017B0168
:100820008C01005C1F4FF80160817181828193818E
:10083000A70196010E943D1A18161CF1F80160816B
:1008400071818281938134962081318142815381EB
:100850000E94B1199B01AC01C701B6010E943D1A6B
:1008600018167CF0C9AADAAAEBAAFCAAC65ADF4F6E
:100870001982188280E0CDB7DEB7E8E00C94CB1C7B
:1008800006C081E0CDB7DEB7E8E00C94CB1C6091E8
:100890003F01709140018091410190914201089582
:1008A0006091A4017091A5018091A6019091A7018A
:1008B000089580916A0108958091CF0108959C0167
:1008C00036952795ABE7B4E10E94961C96958795DF
:1008D000009759F020E030E04AEF4A95F1F700C068
:1008E0002F5F3F4F28173907B9F70895FC01368D60
:1008F000A28DB38D2C9181E090E002C0880F991FEA
:100900003A95E2F78095909582238C93A581B681E4
:100910001C92A085B1851C92A385B4851C92A289E6
:10092000B3891C92A589B6891C92A08DB18D1C92A9
:1009300013A6E65AFF4F118210820895FC0143A7C7
:100940004423A1F1613009F458C0A385B4851C92F9
:10095000A08DB18D4C933481A081B1812C9181E027
:1009600090E002C0880F991F3A95E2F78095909524
:1009700082238C93A581B6811C92A289B389848934
:100980008C93A085B1851C92A589B68987898C93A3
:10099000368D028CF38DE02D208181E090E001C046
:1009A000880F3A95EAF7822B80830895368DA28DC1
:1009B000B38D2C9181E090E002C0880F991F3A9589
:1009C000E2F78095909582238C93A581B6811C9245
:1009D000A085B1851C92A385B4851C92A289B38998
:1009E0001C92A589B6891C92A08DB18D1C9213A66C
:1009F000E65AFF4F118210820895A08DB18D1C928E
:100A0000A385B4854C933189A585B6852C9181E069
:100A100090E002C0880F991F3A95E2F78095909573
:100A200082238C93A289B3891C92A581B681878188
:100A30008C93A589B6891C92A085B18582858C93FB
:100A4000A7CF0F931F93CF93DF93EC01062F142FA3
:100A50008FAD841708F41FAD8BA5811708F069C00E
:100A60008BA5811708F05BC041E050E0FE01E65A1B
:100A7000FF4F8BA58BA7882309F480C0013009F4B0
:100A8000A2C0AB85BC851C92A88DB98D8C938C813E
:100A9000A881B9812C91BA0102C0660F771F8A958F
:100AA000E2F7CB018095909582238C93AD81BE8136
:100AB0001C92AA89BB898C898C93A885B9851C92C4
:100AC000AD89BE898F898C938E8DAA8DBB8D2C911B
:100AD000BA0102C0660F771F8A95E2F7CB01822B1D
:100AE0008C932FA938AD36952795ABE7B4E10E94DA
:100AF000961C96958795009759F020E030E07AEFA4
:100B00007A95F1F700C02F5F3F4F28173907B9F7E3
:100B10008BA58F5F8BA78BA5811708F4AACF4BA558
:100B2000602FCE010BDF0CA7DF91CF911F910F91AA
:100B300008958BA51817B8F78BA5181780F74BA544
:100B4000602FCE01FBDE29AD3AAD36952795ABE798
:100B5000B4E10E94961C96958795009759F020E085
:100B600030E04AEF4A95F1F700C02F5F3F4F28175A
:100B70003907B9F78BA581508BA7DECF8E8DAA8D53
:100B8000BB8D2C91BA0102C0660F771F8A95E2F7E0
:100B9000CB018095909582238C93AD81BE811C9270
:100BA000A885B9851C92AB85BC851C92AA89BB8996
:100BB0001C92AD89BE891C92A88DB98D1C921BA672
:100BC000118210828ECFA88DB98D1C92AB85BC8509
:100BD0008C938989AD85BE852C91BA0102C0660FC0
:100BE000771F8A95E2F7CB018095909582238C93AD
:100BF000AA89BB891C92AD81BE818F818C93AD89FE
:100C0000BE891C92A885B9858A858C935DCFA0E0AA
:100C1000B0E0EDE0F6E00C94A51CEC018F8D44E013
:100C200060E4C7DB6C01E12CF12CFE01E15AFF4FBF
:100C3000208031807397608171813496408051802B
:100C40006280738073960081118180E090E00E9441
:100C5000D51A4B015C01B80180E090E00E94D51AE2
:100C60009B01AC01C301B2010E94411A2B013C015E
:100C7000C701B60162197309810991090E94D51A49
:100C80009B01AC01C301B2010E94B71B9B01AC01E7
:100C9000C501B4010E94B1190E94A91A6B017C011F
:100CA000FE01EA5AFF4F2081318162177307E8F491
:100CB000FE01EC5AFF4F208131812617370738F4A7
:100CC000C601CDB7DEB7E2E10C94C11C11C0389665
:100CD00084E080836CA540E0CE01B3DEC601CDB7D1
:100CE000DEB7E2E10C94C11C03C0369685E0F1CF7B
:100CF000A0E0B0E0EEE7F6E00C94AF1CEC018C0154
:100D0000065A1F4FF80120813181329780819181ED
:100D10002817390708F00EC1CDA4DEA4EFA4F8A867
:100D200069A97AA98BA99CA92BAD3CAD4DAD5EAD4F
:100D30000E94B0199B01AC01C701B6010E943D1A87
:100D400018160CF019C1CDA4DEA4EFA4F8A869A967
:100D50007AA98BA99CA92BAD3CAD4DAD5EAD0E948F
:100D6000B1199B01AC01C701B6010E94AC1B87FF02
:100D700017C18BA5882309F458C041E050E08BA52A
:100D80009CA58BA7882309F48BC0913009F4AEC0D1
:100D9000EB85FC851082E88DF98D80838C81E8815C
:100DA000F9812081BA0102C0660F771F8A95E2F7A8
:100DB000CB018095909582238083ED81FE81108206
:100DC000EA89FB898C898083E885F9851082ED8921
:100DD000FE898F8980838E8DEA8DFB8D2081BA01FB
:100DE00002C0660F771F8A95E2F7CB01822B8083C2
:100DF00029AD3AAD36952795ABE7B4E10E94961C34
:100E000096958795009759F020E030E0FAEFFA9533
:100E1000F1F700C02F5F3F4F28173907B9F78BA5AF
:100E200081508BA78BA58111AACFF8011182108266
:100E3000FE01E45AFF4F10823E8DEA8DFB8D20812A
:100E400081E090E002C0880F991F3A95E2F7809503
:100E5000909582238083ED81FE811082E885F9855B
:100E60001082EB85FC851082EA89FB891082ED896E
:100E7000FE891082E88DF98D10821BA6F80111827F
:100E80001082FFEF20E762E0F15020406040E1F780
:100E900000C00000CDB7DEB7E8E00C94CB1C93C0D7
:100EA0008E8DEA8DFB8D2081BA0102C0660F771FFF
:100EB0008A95E2F7CB018095909582238083ED811E
:100EC000FE811082E885F9851082EB85FC85108211
:100ED000EA89FB891082ED89FE891082E88DF98DFF
:100EE00010821BA6F8011182108282CFE88DF98D45
:100EF0001082EB85FC8580838989ED85FE852081C4
:100F0000BA0102C0660F771F8A95E2F7CB01809580
:100F1000909582238083EA89FB891082ED81FE818E
:100F20008F818083ED89FE891082E885F9858A8525
:100F3000808351CF349683E080832091DC0230910E
:100F4000DD0248E050E061E070E087E692E00E9458
:100F5000931E6CA540E0CE0174DDFFEF21EE64E04E
:100F6000F15020406040E1F700C00000CDB7DEB78F
:100F7000E8E00C94CB1C27C04FAD61E0CE0161DDF1
:100F8000F80180819181019691838083C45ADF4F5B
:100F900081E08883CDB7DEB7E8E00C94CB1C13C0AA
:100FA0004FAD60E0CE014DDDF80180819181019669
:100FB00091838083C45ADF4F82E08883CDB7DEB748
:100FC000E8E00C94CB1CA0E0B0E0E9EEF7E00C9474
:100FD000A71C8091920144E060E4EBD96C01E12C04
:100FE000F12CC091D201D091D3016091BF017091D9
:100FF000C0014090C3015090C4016090C501709041
:10100000C6010091D6011091D70180E090E00E94C6
:10101000D51A4B015C01B80180E090E00E94D51A1E
:101020009B01AC01C301B2010E94411A2B013C019A
:10103000C701B6016C1B7D0B810991090E94D51A6D
:101040009B01AC01C301B2010E94B71B9B01AC0123
:10105000C501B4010E94B1190E94A91A6B017C015B
:101060002091C9013091CA0162177307F0F42091F1
:10107000C7013091C8012617370738F4C601CDB72C
:10108000DEB7E0E10C94C31C12C084E08093CF0172
:1010900060919F0140E083E791E0D3DCC601CDB7CA
:1010A000DEB7E0E10C94C31C02C085E0EFCFA0E006
:1010B000B0E0EDE5F8E00C94A71C80912D0144E030
:1010C00060E477D96C01E12CF12CC0916D01D091D5
:1010D0006E0160915A0170915B0140905E015090E9
:1010E0005F01609060017090610100917101109149
:1010F000720180E090E00E94D51A4B015C01B801BA
:1011000080E090E00E94D51A9B01AC01C301B201BE
:101110000E94411A2B013C01C701B6016C1B7D0BDB
:10112000810991090E94D51A9B01AC01C301B2014A
:101130000E94B71B9B01AC01C501B4010E94B1190B
:101140000E94A91A6B017C01209164013091650114
:1011500062177307F0F42091620130916301261742
:10116000370738F4C601CDB7DEB7E0E10C94C31CF5
:1011700012C084E080936A0160913A0140E08EE001
:1011800091E05FDCC601CDB7DEB7E0E10C94C31C93
:1011900002C085E0EFCFA0E0B0E0E1EDF8E00C9414
:1011A000A51CEC018F8D44E060E403D96C01E12CB7
:1011B000F12CFE01E15AFF4F20803180739760814E
:1011C0007181349640805180628073807396008173
:1011D000118180E090E00E94D51A4B015C01B801BA
:1011E00080E090E00E94D51A9B01AC01C301B201DE
:1011F0000E94411A2B013C01C701B6016219730913
:10120000810991090E94D51A9B01AC01C301B20169
:101210000E94B71B9B01AC01C501B4010E94B1192A
:101220000E94A91A6B017C01FE01EA5AFF4F20813E
:1012300031816217730738F5FE01EC5AFF4F2081A8
:10124000318126173707B8F4FE01E35AFF4F0190AA
:10125000F081E02DC60109959B01AC01C85BDF4F11
:10126000688179818A819B810E94B119CDB7DEB7EF
:10127000E2E10C94C11C84E0389680836CA540E0C8
:10128000CE01DFDBE1CF85E03696F7CFA7E0B0E017
:10129000ECE4F9E00C94A51C0EE011E0212C312CBB
:1012A000198285E6829D9001839D300D1124F901FC
:1012B000E25FFE4FFF83EE83878D44E060E479D8E0
:1012C0002C01612C712CEE81FF81E15AFF4F2081AE
:1012D00031813B832A83EE81FF81E45BFF4F608194
:1012E0007181EE81FF81E05BFF4F80809180A28061
:1012F000B380EE81FF81ED59FF4F2081318180E085
:1013000090E02C833D830E94D51A6B017C012C81D7
:101310003D81B90180E090E00E94D51A9B01AC01AB
:10132000C501B4010E94411A4B015C01C301B20125
:10133000EA81FB816E1B7F0B810991090E94D51AFE
:101340009B01AC01C501B4010E94B71B9B01AC011C
:10135000C701B6010E94B1190E94A91A6B017C0154
:10136000EE81FF81EA5AFF4F20813181EE81FF81BA
:101370006217730708F04CC0EC5AFF4F208131818F
:1013800026173707C0F5F5E6F29D9001F39D300D65
:101390001124C901825F9E4F5C01FC01E35AFF4F9B
:1013A0000190F081E02DC6010995F501E85BFF4F42
:1013B00020813181428153810E94B119F50165A7D5
:1013C00076A787A790ABC80193DCF501E45AFF4FDD
:1013D0008081F981F80FF9830B591F4F21E0221604
:1013E000310429F48F2F2796E2E10C94C11C2224AA
:1013F0002394312C56CFEE81FF81E45AFF4F84E0D5
:101400008083EE81FF8164A540E0C8011ADBBBCF79
:10141000E45AFF4F25E02083F4CFA6E0B0E0E3E1FB
:10142000FAE00C94A51C8EE0282E81E0382E00E016
:1014300010E045E6409F9001419F300D1124C90105
:10144000825F9E4F9E838D83DC015E968C915E97BA
:101450005A96ED91FC915B97208141E050E002C0EB
:10146000440F551F8A95E2F7CA0180959095822313
:1014700080831596ED91FC91169710821896ED9148
:10148000FC91199710821B96ED91FC911C9710828C
:101490005296ED91FC91539710825596ED91FC91E7
:1014A000569710825896ED91FC91599710829B9611
:1014B0001C929B97FD01E65AFF4F118210825F96A6
:1014C0008C9144E060E40E94D9016C01E12CF12C84
:1014D000ED81FE81E15AFF4F808191819A8389835A
:1014E000ED81FE81E45BFF4F60817181ED81FE81C2
:1014F000E05BFF4F4080518062807380ED81FE8110
:10150000ED59FF4F2081318180E090E02B833C83B7
:101510000E94D51A4B015C012B813C81B90180E00E
:1015200090E00E94D51A9B01AC01C301B2010E9458
:10153000411A2B013C01C701B601A981BA816A1B7E
:101540007B0B810991090E94D51A9B01AC01C30153
:10155000B2010E94B71B9B01AC01C501B4010E94FE
:10156000B1190E94A91A6B017C01ED81FE81EA5A32
:10157000FF4F20813181ED81FE816217730708F0F2
:101580004DC0EC5AFF4F208131812617370768F094
:10159000ED81FE81E45AFF4F84E08083AD81BE81FE
:1015A0009C966C9140E0C1014CDAB5E6B09F900189
:1015B000B19F300D1124F901E25FFE4F5F01E35A44
:1015C000FF4F0190F081E02DC6010995F501E85B20
:1015D000FF4F20813181428153810E94B119D50191
:1015E0009D966D937D938D939C93D0979D968D91B1
:1015F0009D910D90BC91A02DF50181AB92ABA3AB59
:10160000B4ABF5E62F0E311C0130110521F42696FE
:10161000E2E10C94C11C01E010E00BCFE45AFF4F53
:10162000B5E0B083ED81FE8164A540E0C10109DA37
:10163000BCCFA8E0B0E0EFE1FBE00C94A51C9093D8
:10164000DD028093DC022EE031E03A832983212CF5
:10165000312C01E010E045E6429D9001439D300DA4
:101660001124C901825F9E4F98878F83DC011496F5
:101670008C9114971296ED91FC9113972081A801FB
:1016800002C0440F551F8A95E2F7CA01822B80835E
:1016900051968C9151971F96ED91FC915097208116
:1016A000D80102C0AA0FBB1F8A95E2F7CD01822B99
:1016B0008083EF81F885868D048CF58DE02D208167
:1016C000A80102C0440F551F8A95E2F7CA01822B78
:1016D0008083AF81B88514968C911497ED91FC911D
:1016E00011972081A80102C0440F551F8A95E2F787
:1016F000CA01809590958223808351968C91519751
:101700001D96ED91FC911E972081D80102C0AA0F71
:10171000BB1F8A95E2F7CD01809590958223808347
:10172000EF81F885868D028CF38DE02D2081A80154
:1017300002C0440F551F8A95E2F7CA018095909523
:1017400082238083AF81B8851596ED91FC91169721
:1017500010821896ED91FC91199710821B96ED91CD
:10176000FC911C9710825296ED91FC915397108238
:101770005596ED91FC91569710825896ED91FC91FB
:1017800059971082EFE3FCE93197F1F700C00000B0
:101790005F968C9144E060E40E94D9012C01612C99
:1017A000712CEF81F885E15AFF4F208131813C8314
:1017B0002B83EF81F885E45BFF4F60817181EF81BE
:1017C000F885E05BFF4F80809180A280B380EF813D
:1017D000F885ED59FF4F2081318180E090E02D8325
:1017E0003E830E94D51A6B017C012D813E81B90197
:1017F00080E090E00E94D51A9B01AC01C501B401C4
:101800000E94411A4B015C01C301B2014B815C8112
:10181000641B750B810991090E94D51A9B01AC01CB
:10182000C501B4010E94B71B9B01AC01C701B60101
:101830000E94B1190E94A91A6B017C01EF81F88501
:10184000EA5AFF4F20813181EF81F88562177307D3
:1018500008F053C0EC5AFF4F20813181261737071B
:1018600068F0EF81F885E45AFF4F84E08083EF81D0
:10187000F88564A540E089819A81E3D8F5E6F29D78
:101880009001F39D300D1124A901425F5E4F5A0172
:10189000FA01E35AFF4F0190F081E02DC60109954E
:1018A000F501E85BFF4F20813181428153810E9425
:1018B000B119D5019D966D937D938D939C93D0978F
:1018C0009D968D919D910D90BC91A02DF50181ABC0
:1018D00092ABA3ABB4AB29813A812B593F4F3A83EA
:1018E000298331E02316310421F42896E2E10C9497
:1018F000C11C22242394312CAECEE45AFF4F55E074
:101900005083AF81B8859C966C9140E089819A8123
:1019100098D8B4CFE091DA02F0E0E651FD4F808133
:101920008A30A1F0E091DA02F0E0E651FD4F8081CB
:101930008D3061F09091DA028091DB02981731F0DE
:101940008091DA028F5F8093DA02E4CF089590935A
:10195000DD028093DC02EAEEF2E01082319683E051
:10196000E93EF807D1F70895A5E0B0E0EAEBFCE026
:101970000C94B51CE82FCE01019625E0DC011D92E8
:101980002A95E9F741E04E0F2E2F30E026513D4FCA
:10199000D9012C912983461711F122E02E0FA42F93
:1019A000B0E0A651BD4F3C913A832617C1F033E019
:1019B0003E0FA22FB0E0A651BD4F2C912B833617BE
:1019C00071F0EC5FA32FB0E0A651BD4F2C912C839A
:1019D000E61729F0F0E0E651FD4F20812D830E94AB
:1019E000DF1C2596E2E00C94D11CAAE0B0E0EBEFFE
:1019F000FCE00C94B31CE82F8E010F5F1F4F8AE0B0
:101A0000D8011D928A95E9F721E02E0F8E2F90E0E4
:101A100086519D4FDC018C918983261709F456C0AD
:101A200082E08E0FA22FB0E0A651BD4F9C919A8309
:101A3000861709F44BC093E09E0FA82FB0E0A65183
:101A4000BD4F8C918B83961709F440C084E08E0FB4
:101A5000A92FB0E0A651BD4F9C919C838617B1F190
:101A600095E09E0FA82FB0E0A651BD4F8C918D83BD
:101A7000961761F186E08E0FA92FB0E0A651BD4FF9
:101A80009C919E83861711F197E09E0FA82FB0E0DE
:101A9000A651BD4F8C918F839617C1F088E08E0FB1
:101AA000A92FB0E0A651BD4F9C919887861771F081
:101AB000E75FA82FB0E0A651BD4F8C918987E6174C
:101AC00029F0F0E0E651FD4F80818A871F930F9344
:101AD0000E94C51E8AE090E00E94D91EC8010E94A3
:101AE000DC1C0F900F902A96E4E00C94CF1CEF9230
:101AF000FF920F931F930DC03091DA029091DB0299
:101B0000391779F09091DA029F5F9093DA022150B1
:101B1000E9F1E091DA02F0E0E651FD4F908198138F
:101B2000EBCF9091DA028091DB02981749F1809116
:101B3000DA028F5F8093DA028091DA02F801808303
:101B40000DC0E091DA02F0E0E651FD4F80814817C8
:101B500069F08091DA028F5F8093DA02E091DA0215
:101B6000F0E0E651FD4F80816813EBCF8091DA02FF
:101B7000F701808381E01F910F91FF90EF9008950E
:101B800082E01F910F91FF90EF90089583E01F91E5
:101B90000F91FF90EF900895ACE0B0E0E2EDFDE032
:101BA0000C94A51C80EDC82E82E0D82E9E012F5FDC
:101BB0003F4F790109EC12E091ECA92E92E0B92E89
:101BC00027EB822E22E0922E3DE8432E32E0532E68
:101BD00046E8642E42E0742E9091DA028091DB0296
:101BE000981709F45AC0E091DA0281E08E0F8093D1
:101BF000DA02F0E0E651FD4F8081803509F451C0F2
:101C0000873409F482C0813409F4C3C0833521F7D5
:101C10000E945C048B870E9459041F929B859F93AE
:101C20001F928F93DF92CF928091DD028F938091EC
:101C3000DC028F930E944B1EE091DA02F0E0E65145
:101C4000FD4F80810FB6F894DEBF0FBECDBF8A3046
:101C5000B1F4C2CF9091DA028091DB02981709F4B7
:101C6000BBCF8091DA028F5F8093DA02E091DA02D3
:101C7000F0E0E651FD4F80818A3009F4ADCFE0916C
:101C8000DA02F0E0E651FD4F80818D3019F7909136
:101C9000DA028091DB029813A6CF2C96E2E10C9435
:101CA000C11CE091DA02F0E0E651FD4F8081813302
:101CB00009F4ADC02091DC023091DD0244E050E037
:101CC00061E070E084E792E00E94931E15C0E0910D
:101CD000DA02F0E0E651FD4F80818D3009F47CCFCF
:101CE0009091DA028091DB02981709F475CF809108
:101CF000DA028F5F8093DA02E091DA02F0E0E651D7
:101D0000FD4F80818A3019F767CFE091DA0281E0D8
:101D10008E0F8093DA02F0E0E651FD4F808181332F
:101D200009F4E8C0823309F4F9C0833309F481C2AD
:101D3000843309F496C2853309F493C02091DC0200
:101D40003091DD0244E050E061E070E084E792E031
:101D50000E94931E15C0E091DA02F0E0E651FD4FBB
:101D600080818D3009F438CF9091DA028091DB02C6
:101D7000981709F431CF8091DA028F5F8093DA02ED
:101D8000E091DA02F0E0E651FD4F80818A3019F7E8
:101D900023CF19821A82E091DA02F0E0E651FD4F7A
:101DA00080818983C7010E94DF1C1C01883008F4F0
:101DB0003FC0883009F46DC02091DC023091DD0213
:101DC00044E050E061E070E084E792E00E94931EFE
:101DD00015C0E091DA02F0E0E651FD4F80818D30D0
:101DE00009F4FACE9091DA028091DB02981709F497
:101DF000F3CE8091DA028F5F8093DA02E091DA020B
:101E0000F0E0E651FD4F80818A3019F7E5CE86D2A9
:101E1000813009F4A6C02091DC023091DD024CE053
:101E200050E061E070E089E792E00E94931E64CF89
:101E300060E40E94C7019F938F93910133273F93E2
:101E40002F93BF92AF928091DD028F938091DC023D
:101E50008F930E944B1E0FB6F894DEBF0FBECDBF0E
:101E6000CDCFB1D8382E292E22D92F923F929F93D1
:101E70008F939F928F928091DD028F938091DC02ED
:101E80008F930E944B1E0FB6F894DEBF0FBECDBFDE
:101E900077CF6091DC027091DD0281E490E00E94D6
:101EA0005B1E212C312C60E4822D0E94C7019F9380
:101EB0008F933F922F921F930F938091DD028F9308
:101EC0008091DC028F930E944B1EBFEF2B1A3B0ABE
:101ED0000FB6F894DEBF0FBECDBFF8E02F16310469
:101EE00011F76091DC027091DD028AE090E00E94BF
:101EF0005B1E84CF1F92F1E0FF937F926F928091DF
:101F0000DD028F938091DC028F930E944B1E0F9015
:101F10000F900F900F900F900F9032CF0E945004AF
:101F2000362E272EAC018B875C870E9447045C8588
:101F30005F934B854F932F923F929F938F937F9305
:101F40006F935F924F928091DD028F938091DC02BC
:101F50008F930E944B1E0FB6F894DEBF0FBECDBF0D
:101F60000FCF94E10EC02091DA028091DB02281796
:101F700081F08091DA028F5F8093DA02915009F448
:101F800099CEE091DA02F0E0E651FD4F80818A338C
:101F900051F79091DA028091DB02981709F48ACE0A
:101FA0008091DA028F5F8093DA029091DA020DC09D
:101FB000E091DA02F0E0E651FD4F80818A3069F06D
:101FC0008091DA028F5F8093DA02E091DA02F0E02A
:101FD000E651FD4F80818A3359F78091DA022AE079
:101FE000D7011D922A95E9F7E1E0E90FA92FB0E0AA
:101FF000A651BD4F2C9129838E1709F44EC0A2E043
:10200000A90FF0E0E651FD4F20812A838A1709F4D9
:1020100044C0E3E0E90FB0E0A651BD4F2C912B8303
:102020008E17D9F1A4E0A90FF0E0E651FD4F208111
:102030002C838A1791F1E5E0E90FB0E0A651BD4F7E
:102040002C912D838E1749F1A6E0A90FF0E0E651FF
:10205000FD4F20812E838A1701F1E7E0E90FB0E000
:10206000A651BD4F2C912F838E17B9F0A8E0A90F70
:10207000F0E0E651FD4F208128878A1771F0E9E0F2
:10208000E90FB0E0A651BD4F9C9199878E1729F0BA
:10209000F0E0E651FD4F80818A87FF92EF920E9427
:1020A000C51E8AE090E00E94D91EC7010E94DC1C78
:1020B0000E947F03382E0F900F9094E10EC0309154
:1020C000DA028091DB02381781F08091DA028F5FAB
:1020D0008093DA02915009F4EDCDE091DA02F0E05C
:1020E000E651FD4F80818A3351F79091DA02809159
:1020F000DB02981709F4DECD8091DA028F5F8093BE
:10210000DA028091DA020DC0E091DA02F0E0E651E5
:10211000FD4F90819A3069F09091DA029F5F909321
:10212000DA02E091DA02F0E0E651FD4F90819A3355
:1021300059F79091DA023AE0F70111923A95E9F7EE
:10214000E1E0E80FA82FB0E0A651BD4F3C913983E4
:102150009E1709F44EC0A2E0A80FF0E0E651FD4F33
:1021600030813A839A1709F444C0E3E0E80FB0E005
:10217000A651BD4F3C913B839E17D9F1A4E0A80F17
:10218000F0E0E651FD4F30813C839A1791F1E5E094
:10219000E80FB0E0A651BD4F3C913D839E1749F139
:1021A000A6E0A80FF0E0E651FD4F30813E839A177C
:1021B00001F1E7E0E80FB0E0A651BD4F3C913F834D
:1021C0009E17B9F0A8E0A80FF0E0E651FD4F30816E
:1021D00038879A1771F0E9E0E80FB0E0A651BD4FDB
:1021E0008C9189879E1729F0F0E0E651FD4F8081A0
:1021F0008A87FF92EF920E94C51E8AE090E00E94BB
:10220000D91EC7010E94DC1C0E94C3030F900F90CF
:102210002091DC023091DD02311050CD81114ECD84
:1022200043E050E061E070E080E792E00E94931E9E
:1022300063CD0E947603362E272EAC018B875C87F8
:102240000E946D035C855F934B854F932F923F9265
:102250009F938F937F936F93ADE9B2E0BF93AF935A
:1022600072CE0E945C04382E0E9459041F923F9245
:102270001F928F93ADEAB2E0BF93AF93FCCD1F9254
:102280000F920FB60F9211242F933F934F935F93AA
:102290006F937F938F939F93AF93BF93EF93FF932E
:1022A000CF93DF931F92CDB7DEB78091C00087FF39
:1022B000FCCF8091C6008983E091DB0281E08E0F24
:1022C0008093DB02F0E08981E651FD4F80838981B4
:1022D0008A30B9F089818D30A1F00F90DF91CF91D4
:1022E000FF91EF91BF91AF919F918F917F916F91EE
:1022F0005F914F913F912F910F900FBE0F901F90C4
:1023000018954ADCEACF52985A9822982A98219830
:1023100029982098289854985C98089589B182FB50
:10232000882780F908951A9908C093B1892F82707F
:1023300091FF02C082E00895089581E00895189900
:1023400008C099B1892F807194FF02C082E008957E
:10235000089581E008952FEF80E792E021508040BA
:102360009040E1F700C0000040E052EC61E070E016
:102370008CED92E00E9445010E949601259A0E94F0
:10238000D6018CED92E055D98CED92E0E0DABBDF1E
:1023900013BC13BC7894C2DFC82FD0E206C095B13D
:1023A0009D2795B9BBDF8C1347C00E944609B6DF55
:1023B0008111F5CFB8DF813009F450C08230C9F403
:1023C0000E94470420E030E040E050E4C9D70E947A
:1023D0007F032CED32E048E150E061E070E080EFF7
:1023E00091E00E94931E02C00E9446099CDF811169
:1023F000FBCFA5DF813009F44EC0823099F60E94F0
:10240000500420E030E040E050E4AAD70E94C3032B
:102410002CED32E047E150E061E070E08EE192E0C7
:102420000E94931E02C00E94460989DF8111FBCFE2
:1024300075DF8C1709F4B9CF71DF2CED32E08130F4
:1024400009F443C046E150E061E070E080E592E0CD
:102450000E94931E0E940D0AC0E0A7CF0E9447046D
:1024600020E030E040E050E47CD70E947F032CED78
:1024700032E047E150E061E070E088ED91E00E94D9
:10248000931E02C00E9446094EDF8111FBCF57DF29
:10249000813009F0B2CF0E94500420E030E040E0EB
:1024A00050E45FD70E94C3032CED32E044E150E0DA
:1024B00061E070E089E092E00E94931E02C00E94F9
:1024C00046093DDF8111FBCF6DCF49E150E061E06E
:1024D00070E086E392E00E94931EC1E066CFA3E124
:1024E000B0E0E5E7F2E10C94A51C6C014B012A0178
:1024F000FC0117821682838181FF43C3AE014F5FC7
:102500005F4F3A01F6019381F40193FD859193FFAA
:1025100081914F01882309F430C3853239F493FD4A
:10252000859193FF81914F01853239F4B60190E096
:102530000E945B1E52012501E5CF10E0F12C20E046
:102540002032A0F48B3269F030F4803259F08332BB
:1025500069F420612CC08D3239F0803339F4216068
:1025600026C02260246023C0286021C027FD27C028
:1025700030ED380F3A3078F426FF06C0FAE01F9F9E
:10258000300D1124132F13C04AE0F49E300D112496
:10259000F32E20620CC08E3221F426FDEEC22064A0
:1025A00006C08C3611F4206802C0883641F4F4016C
:1025B00093FD859193FF81914F018111C1CF9BEBD9
:1025C000980F933018F42061805E06C09BE9980F45
:1025D000933008F071C12F7E26FF16E02F73322E44
:1025E000853619F42064322E08C0863621F4F22F85
:1025F000F0683F2E02C01111115037FE07C01C3386
:1026000050F4EE24E394E10E27E00BC0183038F0CC
:1026100027E017E005C027E04CE3E42E02C0212F9D
:10262000E12C520144E0A40EB11CF20160817181E1
:10263000828193810E2DA3010E94FC1C2C01098133
:1026400000FF02C003FF07C031FC08C032FE09C012
:1026500030E2232E07C02DE2222E04C09BE2292E59
:1026600001C0212C802F8C7019F0211068C2A8C2E3
:1026700037FE0FC0E40C04FF04C08A81813309F4E3
:10268000EA941E1474F5F8E0FE1578F588E0E82E5B
:102690002CC036FC2AC0812F90E0841595059CF053
:1026A0002CEF42162FEF520674F0432D4068342E63
:1026B0000AC0E2E0F0E0EC0FFD1FE10FF11D8081A8
:1026C000803319F411501111F4CF37FE0EC0EE24EF
:1026D000E394E10E812F90E0481659062CF414196A
:1026E00004C0EE24E39401C010E037FE06C01414C9
:1026F000150434F4C201019605C085E090E002C0E3
:1027000081E090E021100196112331F0212F30E07B
:102710002F5F3F4F820F931F2F2D30E082179307BB
:1027200014F4F81A01C0F12C832D897049F4FF20AC
:1027300039F0B60180E290E00E945B1EFA94F7CF78
:10274000222029F0B601822D90E00E945B1E33FC0E
:1027500009C0FF2039F0B60180E390E00E945B1EC3
:10276000FA94F7CF37FE5AC0942D852D57FE02C03C
:1027700090E080E0292E382E20E030E0A2014E19B2
:1027800051095D874C87A201421953095F874E8723
:10279000612F70E044275527461B570B598B488BF8
:1027A0005FEF2516350649F4B6018EE290E02A8BDC
:1027B0003B8B0E945B1E3B892A89421453046CF0B8
:1027C0004C855D854215530544F4EE85FF85E20F87
:1027D000F31FE60DF71D818101C080E351E0251A4A
:1027E00031082F5F3F4F48895989241635064CF030
:1027F000B60190E02A8B3B8B0E945B1E2A893B89A5
:10280000CFCF2414350439F49A81963318F49533D4
:1028100011F404FF81E3B60190E04BC08A8181335B
:1028200009F00F7EB60190E00E945B1E111105C0F9
:1028300034FC18C085E690E017C0B6018EE290E047
:102840000E945B1E82E0EE24E394E80EF301E80FA1
:10285000F11D8081B60190E00E945B1E11508E2D0B
:1028600091F7E6CF85E490E0B6010E945B1E57FC2D
:1028700005C04114510439F404FF05C0519441943A
:1028800051088DE201C08BE2B60190E00E945B1E10
:1028900080E39AE0491651042CF08F5F5AE0451A04
:1028A0005108F7CFB60190E00E945B1EB601C2014D
:1028B000C0960E945B1E57C1833631F0833779F092
:1028C000833509F058C021C05201E2E0AE0EB11CC0
:1028D000F2018081898301E010E0230114C05201DC
:1028E000F2E0AF0EB11CF2014080518026FF03C020
:1028F000612F70E002C06FEF7FEFC2012A8B0E9450
:10290000FA1D8C012A892F7715C05201F2E0AF0E13
:10291000B11CF2014080518026FF03C0612F70E09E
:1029200002C06FEF7FEFC2012A8B0E94EF1D8C0166
:102930002A892068322E23FD1AC08F2D90E00817B7
:102940001907A8F4B60180E290E00E945B1EFA9499
:10295000F4CFF20137FC859137FE81912F01B6014A
:1029600090E00E945B1EF110FA94015011090115CC
:10297000110579F7F8C0843611F0893659F55201FE
:1029800027FF09C0F4E0AF0EB11CF2016081718134
:10299000828193810AC0F2E0AF0EB11CF201608126
:1029A0007181072E000C880B990B2F76322E97FF22
:1029B00009C090958095709561957F4F8F4F9F4F7F
:1029C0002068322E2AE030E0A3010E94F71EE82E94
:1029D000E6183FC0022F853721F40F7E2AE030E051
:1029E0001DC0097F8F3691F018F4883559F0C5C0A5
:1029F000803719F0883711F0C0C0006104FF09C0AA
:102A0000046007C024FF08C0066006C028E030E06C
:102A100005C020E130E002C020E132E0520107FFB2
:102A200009C0F4E0AF0EB11CF201608171818281B6
:102A3000938108C0F2E0AF0EB11CF2016081718198
:102A400080E090E0A3010E94F71EE82EE6180F77C1
:102A5000302E36FE0BC0332D3E7FE11650F434FE8F
:102A60000AC032FC08C0332D3E7E05C00E2D332D2A
:102A700003C00E2D01C0012F34FF0CC0FE01EE0D6E
:102A8000F11D8081803311F4397E08C032FF05C00A
:102A90000E5F04C0832F867809F00F5F33FD13C0EB
:102AA00030FF06C01E2D0F1518F41F0D101B0F2D23
:102AB0000F1568F4B60180E290E03B8B0E945B1E2C
:102AC0000F5F3B89F5CF0F1510F4F01A01C0F12C00
:102AD00034FF12C0B60180E390E03B8B0E945B1E86
:102AE0003B8932FF17C031FD03C088E790E002C088
:102AF00088E590E0B6010CC0832F867859F031FF4D
:102B000002C08BE201C080E237FD8DE2B60190E0A9
:102B10000E945B1EE11638F4B60180E390E00E944B
:102B20005B1E1150F7CFEA94F301EE0DF11D808189
:102B3000B60190E00E945B1EE110F5CF14C0F4E0F6
:102B4000FF1558F584E0F81A33FE1EC0211026C088
:102B500003FF2AC006E910E0F32DF0713F2EF801C3
:102B60008491811124C0FF2009F4E5CCB60180E2F4
:102B700090E00E945B1EFA94F6CFF6018681978161
:102B800026C08FEF9FEF23C0B60180E290E00E9445
:102B90005B1EFA94F110F8CFD9CFF12CB601822D3B
:102BA00090E00E945B1ED4CF0AE910E0D5CF31102F
:102BB0008052B60190E00E945B1E0F5F1F4FCFCF87
:102BC00023E02F1510F483E0BECFF12CC1CF639624
:102BD000E2E1D7C620FD09C0FC0123FD05C022FFAC
:102BE00002C07383628351834083089544FD10C003
:102BF00046FD10C0DB01FC01AA0FBB1FEE1FFF1F2B
:102C00001094D1F76A0F7B1F8E1F9F1F31E003C006
:102C100033E001C034E0660F771F881F991F3150E1
:102C2000D1F7620F711D811D911D08950F931F93A0
:102C3000CF93DF938C01C801F0D7EC0197FD07C05B
:102C4000B3D7892BC1F7B801CE010E94DE1ECE0199
:102C5000DF91CF911F910F910895A0E0B0E0E2E3E2
:102C6000F6E179C67C018B016A01D22FD6D79C018F
:102C700033272B32310521F02D32310551F4D06844
:102C80000150110911F480E063C0C701C6D797FD58
:102C9000FACFCD2FCD7F2D2F2073F9F48033E9F4B7
:102CA000580181E0A81AB10809F43FC0C701B5D79F
:102CB00097FD3BC0282F2F7D283549F4C264025070
:102CC000110999F1C701A9D797FF07C02EC0D6FFF8
:102CD00002C0C26001C0C2618501812C912C5401E7
:102CE00020ED280F283080F0C4FF04C0B7010E94F7
:102CF000DE1E18C02A3040F0C6FFF8CF2F7D3FEE11
:102D0000320F363098F727504C2FC501B4016EDFD3
:102D10004B015C01C2600150110951F0C7017DD720
:102D200097FFDECFC1FD04C0AECF812C912C5401A2
:102D3000C7FF08C0B094A09490948094811C911C0B
:102D4000A11CB11C2C2FB501A401C60143DF81E0F9
:102D5000CDB7DEB7ECE01BC6A0E2B0E0E1EBF6E1F8
:102D6000F6C54C015B017A018E010F5F1F4F6801B0
:102D700080E2F80111928A95E9F7F401638040E05E
:102D800050E0712C412C80E0A1E0B0E0F90163FC3F
:102D9000559063FE51908F01952D9F01511003C0F6
:102DA00080E090E07EC0FEE55F1203C04115510552
:102DB00061F1682F70E0641775074CF46DE55616E5
:102DC00069F1EDE25E1203C0442009F103C0411035
:102DD00001C0752C692F669566956695F601E60F1C
:102DE000F11D692F67708D0102C0000F111F6A95D8
:102DF000E2F7B8017081672B6083971559F097153A
:102E000010F49F5FE7CF9150E5CF81E004C04424E8
:102E1000439401C0412C4F5F5F4FB8CF442019F05D
:102E20009E8190629E83811103C07724739418C0A1
:102E3000F6019E012F5D3F4F808180958193E217BF
:102E4000F307D1F7F2CFE114F10429F0F701808301
:102E5000C70101967C0191E0A91AB108712CD9F043
:102E6000C401DBD697FD15C0282F269526952695FB
:102E7000F601E20FF11D208130E0AC0147705527CB
:102E800002C0359527954A95E2F720FDDCCFB401C5
:102E900095D7711085CFE114F10411F0F70110827C
:102EA000C801A096E0E16FC5A6E0B0E0E9E5F7E172
:102EB0004CC55C017B011A01B0D69E838D83992796
:102EC0008B32910521F08D9781F410E801C010E05C
:102ED00021E0E21AF10811F480E01EC1C5019DD67F
:102EE0009E838D8397FF02C0F7CF10E08D819E8176
:102EF00063D68936910549F08E36910509F038C0C0
:102F000065EE862E61E0962E04C078EE872E71E085
:102F1000972EEFEF8E1A9E0AF40131970491002349
:102F2000B1F081E0E81AF10859F0C50176D66C01DC
:102F300097FD06C041D6081761F3B501C6013ED71B
:102F40009BEE891691E0990609F0C6CF05C0F8EE10
:102F50008F16F1E09F0629F080E090E0A0E8BFE73F
:102F600004C080E090E0A0ECBFE7BC01CD01C4C08C
:102F7000412C512C3201C12CD12C2D8120532A30CF
:102F800010F5012F0260812F887012FF06C0811199
:102F900020C02FEFC21AD20A1CC0882319F081E08A
:102FA000C81AD10840E2C301B20120DE2B013C0166
:102FB00098E9491699E95906690699E1790648F0B0
:102FC000012F066006C02E3F89F413FD0FC0012FAC
:102FD0000860E1E0EE1AF10841F0C5011ED69E83BB
:102FE0008D83102F97FFC9CF01C0102F11FF74CF11
:102FF0008D818F7D853409F04AC04701F1E08F1A39
:10300000910809F469CFC50108D69E838D8397FD89
:1030100063CF99278B32910519F08D9759F4106180
:10302000470122E0821A910809F456CFC501F5D56F
:103030009E838D838D819E81C0970A9708F04CCF27
:103040007401812C912CB401990C880B990B2D8162
:10305000205340E2CBDDAB01BC014A0181E0E81A1C
:10306000F10869F0C50149835A836B837C83D5D508
:103070009E838D83C09749815A810A9720F314FF5C
:1030800004C088249924841A950AC80CD91CEF28F6
:1030900039F0ED81FE81F7FD03C0B501CF018ED679
:1030A000C301B20182D2D7FE08C0D194C194D10825
:1030B00054E0852E52E0952E04C04CE1842E42E06F
:1030C000942E5401F8E1AF1AB10830E2E32EF12C4E
:1030D000CE14DF0448F0F4012591359145915491C7
:1030E00046D3CE18DF08F4CF24E0821A9108F69474
:1030F000E7948A149B0461F717FF05C0DC01CB013C
:10310000B058BC01CD012114310429F0F1016083D4
:1031100071838283938381E02696E2E132C4A1E049
:10312000B0E0E4E9F8E113C46C012B014A01FC01B1
:1031300017821682A12CF601F380F201F3FC85912F
:10314000F3FE8191482F2F01882309F401C190E0FB
:1031500049832AD54981892B19F0C60167DDEBCF58
:10316000453241F4F201F3FC4591F3FE41912F0108
:10317000453259F4C601498350D5498197FDE6C0CF
:103180004817C9F2B6011AD6E3C04A3239F4F3FC43
:103190004591F3FE41912F0151E001C050E0320111
:1031A00000E010E020ED240F2A3080F45260B801D6
:1031B00080E090E040E2598319DD8B01F301F3FCDC
:1031C0004591F3FE41913F015981ECCFB52E342F4B
:1031D000230151FF04C00115110519F4B9C00FEF07
:1031E0001FEF483619F04C3659F013C0F301F3FCC9
:1031F0003591F3FE31912F01383659F45860B52ED0
:10320000FB2DF460BF2EF201F3FC3591F3FE3191FA
:103210002F01332309F49CC0632F70E083ED91E00C
:103220003983D2D43981892B09F492C0B0FC07C00C
:10323000F401E080F180C40102964C0102C0E12C4F
:10324000F12C3E3649F4F6014681578160E070E08A
:103250002B2DC701BFDC6FCF3336A1F4B1FC02C008
:1032600001E010E0C601D9D497FD70C0E114F1046B
:1032700029F0F7018083C70101967C0101501109F3
:1032800089F760C03B3551F49201A701B801C6012E
:1032900063DD2C01892B09F055C04FC0C60139836D
:1032A000C5DC398197FD52C03F36C1F140F4343658
:1032B00089F13936B1F1383509F039C027C03337D3
:1032C000A1F018F4303711F132C0353719F1383721
:1032D000E9F02DC0E114F10429F0F7016082C70183
:1032E00001967C010150110959F0C60196D43C01A8
:1032F00097FD06C059D4892B69F3B601C3015ED589
:10330000E114F104F9F0F70110821CC0FB2DF06408
:10331000BF2E07C08B2D8062B82E03C09B2D9061FD
:10332000B92E2B2DA701B801C60197DC04C0A70157
:10333000B801C601B9DD811105C0F6018381807332
:1033400029F406C0B0FCF7CEA394F5CEAA2019F05C
:103350008A2D90E002C08FEF9FEF2196E0E113C32A
:103360005058BB27AA270ED0BDC1AED130F0B3D183
:1033700020F031F49F3F11F41EF47EC10EF4E0956D
:10338000E7FB74C1E92FBFD180F3BA176207730757
:103390008407950718F071F49EF5D7C10EF4E095F7
:1033A0000B2EBA2FA02D0B01B90190010C01CA01FF
:1033B000A0011124FF27591B99F0593F50F4503EAA
:1033C00068F11A16F040A22F232F342F4427585F9C
:1033D000F3CF469537952795A795F0405395C9F7B4
:1033E0007EF41F16BA0B620B730B840BBAF091506C
:1033F000A1F0FF0FBB1F661F771F881FC2F70EC00B
:10340000BA0F621F731F841F48F4879577956795DD
:10341000B795F7959E3F08F0B3CF9395880F08F0C6
:103420009927EE0F979587950895DF93DD27B92F9C
:10343000BF7740E85FE31616170648075B0710F4EE
:10344000D92F8ED19F938F937F936F9335D2E8E6D8
:10345000F0E015D147D12F913F914F915F9193D1DA
:10346000DD2349F09058A2EA2AED3FE049EC5FE302
:10347000D0785D2787DFDF9135C1D4D008F481E0B3
:1034800008950CD02FC127D140F01ED130F021F487
:103490005F3F19F0EBC0511159C1EEC034D198F320
:1034A0009923C9F35523B1F3951B550BBB27AA27C5
:1034B00062177307840738F09F5F5F4F220F331F37
:1034C000441FAA1FA9F333D00E2E3AF0E0E830D003
:1034D00091505040E695001CCAF729D0FE2F27D006
:1034E000660F771F881FBB1F261737074807AB07D4
:1034F000B0E809F0BB0B802DBF01FF2793585F4F49
:103500002AF09E3F510568F0B1C020C15F3FECF347
:10351000983EDCF3869577956795B795F7959F5F0D
:10352000C9F7880F911D9695879597F90895E1E061
:10353000660F771F881FBB1F621773078407BA07C0
:1035400020F0621B730B840BBA0BEE1F88F7E0951B
:103550000895E1D088F09F5790F0B92F9927B7517F
:10356000A0F0D1F0660F771F881F991F1AF0BA9547
:10357000C9F712C0B13081F0E8D0B1E00895E5C0DC
:10358000672F782F8827B85F39F0B93FCCF386953D
:1035900077956795B395D9F73EF49095809570959A
:1035A00061957F4F8F4F9F4F0895E89409C097FB17
:1035B0003EF490958095709561957F4F8F4F9F4F0A
:1035C0009923A9F0F92F96E9BB279395F69587954E
:1035D00077956795B795F111F8CFFAF4BB0F11F411
:1035E00060FF1BC06F5F7F4F8F4F9F4F16C08823B8
:1035F00011F096E911C0772321F09EE8872F762FEE
:1036000005C0662371F096E8862F70E060E02AF02E
:103610009A95660F771F881FDAF7880F969587951A
:1036200097F90895990F0008550FAA0BE0E8FEEFEF
:1036300016161706E807F907C0F012161306E40776
:10364000F50798F0621B730B840B950B39F40A266F
:1036500061F0232B242B252B21F408950A2609F44D
:10366000A140A6958FEF811D811D089597F99F6751
:1036700080E870E060E008959FEF80EC0895DF93AC
:10368000CF931F930F93FF92EF92DF927B018C01F8
:10369000689405C0DA2EEF0176D0FE01E894A5917A
:1036A0002591359145915591AEF3EF016BDEFE0109
:1036B0009701A801DA9479F7DF90EF90FF900F91CE
:1036C0001F91CF91DF91089500240A9416161706D2
:1036D00018060906089500240A9412161306140603
:1036E00005060895092E0394000C11F4882352F066
:1036F000BB0F40F4BF2B11F460FF04C06F5F7F4F1E
:103700008F4F9F4F089557FD9058440F551F59F004
:103710005F3F71F04795880F97FB991F61F09F3FBE
:1037200079F087950895121613061406551FF2CFE7
:103730004695F1DF08C0161617061806991FF1CF37
:1037400086957105610508940895E894BB2766275E
:103750007727CB0197F9089565DF08F48FEF089577
:103760009B01AC0160E070E080E89FE38ACE0BD063
:10377000B9CFAADF28F0AFDF18F0952309F076CF94
:103780007BCF1124E3CFBFDFA0F3959FD1F3950F3B
:1037900050E0551F629FF001729FBB27F00DB11DD5
:1037A000639FAA27F00DB11DAA1F649F6627B00D65
:1037B000A11D661F829F2227B00DA11D621F739F4E
:1037C000B00DA11D621F839FA00D611D221F749F5C
:1037D0003327A00D611D231F849F600D211D822FA3
:1037E000762F6A2F11249F5750408AF0E1F08823EA
:1037F0004AF0EE0FFF1FBB1F661F771F881F9150F7
:103800005040A9F79E3F510570F030CF9FCF5F3FEA
:10381000ECF3983EDCF3869577956795B795F79529
:10382000E7959F5FC1F7FE2B880F911D96958795B1
:1038300097F9089511F40EF41FCF41C06CDFD0F357
:103840009923D9F3CEF39F57550B87FF46D0002419
:10385000A0E640EA900180585695979528F4805C40
:10386000660F771F881F20F026173707480730F4A8
:10387000621B730B840B202931294A2BA6951794C0
:103880000794202531254A2758F7660F771F881F90
:1038900020F026173707480730F4620B730B840BB0
:1038A000200D311D411DA09581F7B901842F91583C
:1038B000880F9695879508959B01AC0158CF9F3F3F
:1038C00031F0915020F4879577956795B795880FDB
:1038D000911D9695879597F9089591505040660FE0
:1038E000771F881FD2F70895A1E21A2EAA1BBB1BCF
:1038F000FD010DC0AA1FBB1FEE1FFF1FA217B307BC
:10390000E407F50720F0A21BB30BE40BF50B661FD1
:10391000771F881F991F1A9469F760957095809595
:1039200090959B01AC01BD01CF010895A29FB0010C
:10393000B39FC001A39F700D811D1124911DB29FE3
:10394000700D811D1124911D08952F923F924F9269
:103950005F926F927F928F929F92AF92BF92CF921F
:10396000DF92EF92FF920F931F93CF93DF93CDB728
:10397000DEB7CA1BDB0B0FB6F894DEBF0FBECDBFA0
:1039800009942A88398848885F846E847D848C8471
:103990009B84AA84B984C884DF80EE80FD800C817A
:1039A0001B81AA81B981CE0FD11D0FB6F894DEBF5D
:1039B0000FBECDBFED0108956627772776C2FC01C3
:1039C00088279927E89421912032E9F3293010F0D3
:1039D0002E30C8F32B3239F02D3231F4689403C005
:1039E00014D1820F911D219120532A30C8F31EF467
:1039F000909581959F4F0895283008F027E0332750
:103A0000DA01990F311D87FD9160009661057105FE
:103A100039F432602E5F3D9330E32A95E1F7089543
:103A20009F3F30F080387105610509F03C5F3C5FD5
:103A30003D93913008F08068911DDF93CF931F93E1
:103A40000F93FF92EF92192F987F9695E92F9695F5
:103A50009695E90FFF27E850FF4F99273327EE246B
:103A6000FF24A701E70105900894079428F4360F76
:103A7000E71EF81E491F511D660F771F881F991FEB
:103A80000694A1F70590079428F4E70EF81E491F45
:103A9000561FC11D770F881F991F661F0694A1F737
:103AA0000590079428F4F80E491F561FC71FD11D13
:103AB000880F991F661F771F0694A1F7059007943A
:103AC00020F4490F561FC71FD81F990F661F771F75
:103AD000881F0694A9F784911095177041F0D69528
:103AE000C79557954795F794E7941A95C1F7EEE96E
:103AF000F0E0689415901591359165919591059038
:103B00007FE27395E118F10A430B560BC90BD009FC
:103B1000C0F7E10CF11E431F561FC91FD01D7EF4D4
:103B2000703311F48A95E6CFE894015030F0080F15
:103B30000AF40027021708F4202F2395022F7A3366
:103B400028F079E37D932A95E9F710C07D932A95B3
:103B500089F6069497956795379517951794E11808
:103B6000F10A430B560BC90BD00998F023957E91AF
:103B700073957A3308F070E37C932013B8F77E9145
:103B800070617D9330F0839571E37D9370E32A95A6
:103B9000E1F71124EF90FF900F911F91CF91DF91EA
:103BA000992787FD909508959111D1C2803219F01F
:103BB00089508550D0F708959111089581548A5104
:103BC00008F4805E855A0895FC010590061621F0E0
:103BD0000020D9F7C00108953197CF010895FC0165
:103BE0000590615070400110D8F7809590958E0F28
:103BF0009F1F0895FC016150704001900110D8F79B
:103C0000809590958E0F9F1F08957AE0979F902D35
:103C1000879F802D910D11240895CF93DF93EC01A0
:103C20002B8120FF33C026FF0AC02F7B2B838E8180
:103C30009F8101969F838E838A8190E029C022FF15
:103C40000FC0E881F9818081082E000C990B009744
:103C500019F420622B831AC03196F983E8830EC0D1
:103C6000EA85FB85099597FF09C02B81019611F024
:103C700080E201C080E1822B8B8308C02E813F81CE
:103C80002F5F3F4F3F832E83992702C08FEF9FEF17
:103C9000DF91CF910895A0E0B0E0E0E5FEE165CED0
:103CA000AE01475F5F4F6F8178858D819E810E9455
:103CB0006F12E2E076CE0F931F93CF93DF93FB0159
:103CC000238121FD03C08FEF9FEF28C022FF16C084
:103CD00046815781248135814217530744F4A081DE
:103CE000B1819D012F5F3F4F318320838C932681CB
:103CF00037812F5F3F4F3783268310C0EB01092F99
:103D0000182F0084F185E02D0995892BE1F68E812D
:103D10009F8101969F838E83812F902FDF91CF917A
:103D20001F910F910895A0E0B0E0E8E9FEE113CE05
:103D30005B014A017901D90113962C9121FF1DC025
:103D4000C0E0D0E0C815D905D9F08C016C01CA0CCF
:103D5000DB1CC8010C151D0571F00F5F1F4FD7014B
:103D60001896ED91FC911997B701DC018C9109959A
:103D7000892B79F305C02196E5CF80E090E001C062
:103D8000CE01CDB7DEB7ECE002CEA0E0B0E0EAECC9
:103D9000FEE1EBCDAE014B5F5F4FFA016191719196
:103DA000AF018091EC039091ED030E946F12E2E06D
:103DB000F8CD6091EC037091ED037DCFFB01238181
:103DC00020FF12C026FD10C08F3F3FEF930761F028
:103DD00082832F7D206423832681378121503109FE
:103DE00037832683992708958FEF9FEF0895FA016F
:103DF000AA27283051F1203181F1E8946F936E7F2A
:103E00006E5F7F4F8F4F9F4FAF4FB1E03ED0B4E01A
:103E10003CD0670F781F891F9A1FA11D680F791F5B
:103E20008A1F911DA11D6A0F711D811D911DA11D6C
:103E300020D009F468943F912AE0269F112430197C
:103E4000305D3193DEF6CF010895462F4770405D17
:103E50004193B3E00FD0C9F7F6CF462F4F70405DC6
:103E60004A3318F0495D31FD4052419302D0A9F721
:103E7000EACFB4E0A6959795879577956795BA951B
:103E8000C9F700976105710508959B01AC010A2EE1
:103E900006945795479537952795BA95C9F7620FB8
:103EA000731F841F951FA01D0895A0E0B0E0EAE5F0
:103EB000FFE14FCDEC017B016115710519F0DB01CC
:103EC0008D939C938E010F5F1F4F7880872D90E01C
:103ED0006BDE892B11F0E801F5CFBDE27B1205C046
:103EE0000F5F1F4F7980C1E008C0EBE27E1204C073
:103EF0008E010E5F1F4F7980C0E06801F1E0CF1A9C
:103F0000D10843E050E060EA71E0C60123D1892B7B
:103F1000E9F4680122E0C20ED11C45E050E06BE9F3
:103F200071E0C60117D1892B21F4680187E0C80E22
:103F3000D11CE114F10419F0D701CD92DC92C1112A
:103F4000F9C060E070E080E89FE7FDC043E050E02A
:103F500068E971E0C601FED0892B51F4E114F10447
:103F600009F4EDC00E5F1F4FF70111830083E7C016
:103F7000680160E070E0CB0100E010E0F601D0EDF8
:103F8000D70DDA3050F52C2F2260622E2C2F28709E
:103F9000C2FF05C0211127C00F5F1F4F24C022237D
:103FA00011F001501109A5E0B0E09B01AC01EAD08D
:103FB0004B015C01880C991CAA1CBB1CC501B401F7
:103FC0006D0F711D811D911D6839A9E97A078A0756
:103FD000A9E19A0740F0C66005C0DE3F51F4C3FD79
:103FE00044C0C8606C2EBFEFCB1ADB0A7080C62DB0
:103FF000C5CF2D2F2F7D2531C1F540814D3211F4D4
:10400000C06106C04B3221F0319621E030E006C09D
:104010003296D60111964C9122E030E0A0EDA40F2B
:10402000AA3018F0E21BF30B20C040E050E040380B
:10403000BCE05B075CF49A01220F331F220F331F91
:10404000420F531F440F551F4A0F511D3196DF0178
:1040500011972C91A0EDA20FAA3048F3C4FF03C022
:10406000519541955109040F151FC1FF07C0E11477
:10407000F10421F03197D701ED93FC9396DAC370E8
:10408000C33019F06B017C0106C06B017C01F7FAAB
:10409000F094F7F8F09420E030E0A901C701B601F0
:1040A000ECD9882309F443C017FF06C01195019588
:1040B0001109C7EBD1E002C0CFECD1E05E01B8E15D
:1040C000AB1AB1084601BE2DAF2D90E2E92EF12CBE
:1040D0000E151F057CF0FE012591359145915491F7
:1040E000B4018B2F9A2F43DB4B01B82FA92F0E1948
:1040F0001F09EECF2497F594E794CA15DB0541F725
:104100006401EB2EFA2E8E2D880F8F2D881F8F3F86
:1041100041F020E030E0A901C701B601AED981111C
:1041200006C082E290E09093F1038093F003C70110
:10413000B60109C060E070E080E89FEF04C060E075
:1041400070E080EC9FE7CDB7DEB7EEE01ECC99279C
:1041500088270895FB01DC014150504088F08D9183
:1041600081341CF08B350CF4805E659161341CF059
:104170006B350CF4605E861B611171F3990B089529
:10418000881BFCCFD3DBA59F900DB49F900DA49FFF
:0C419000800D911D11240895F894FFCFBC
:10419C0000000002000000003C01000000002B00A9
:1041AC002A000644002345000248002B002A000583
:1041BC0044008345000247002B002A000700062814
:1041CC000027000228002700030001000000000067
:1041DC00002F430101F401F4010000C03FEE000088
:1041EC00C842000016430000344303027A030080E7
:1041FC00BB430802700310270000003802D1001BDB
:10420C00034A022500240003B00083B10002B3006E
:10421C002B002A0003B00023B10002B400250024B7
:10422C0000040107280027000428002700050001CE
:10423C0000000000000048420101F401F4010000FC
:10424C00C03FEE000020410000A0420000A04054FE
:10425C00011C02000048435E0112021027000000FE
:10426C00D302630191022E015475726E696E672040
:10427C00322064656772656573206C6566740A002C
:10428C005475726E696E672032206465677265655D
:10429C00732072696768740A005475726E696E6770
:1042AC002032206465677265652055500A0054758C
:1042BC00726E696E67203220646567726565732063
:1042CC00444F574E0A004175746F6D6174696320D9
:1042DC006D6F6465207475726E6564204F4E0A00B4
:1042EC004D616E75616C206D6F64652041637469FE
:1042FC0076617465640A0074696D656F75740A0083
:10430C004F4B0A004552520A004D414E55414C5FED
:10431C004D4F44450A0047313A25640A0047323A6A
:10432C0025352E32663A25352E32660A0047333A49
:10433C0025352E32663A25352E32660A0047343A38
:10434C0025643A25640A0047353A25643A25640AFF
:10435C00004125643A25640A0025643A25643A0034
:0A436C00533A25643A25640A000064
:00000001FF
