:100000006EC1000089C1000087C1000085C10000E9
:1000100083C1000081C100007FC100007DC10000DC
:100020007BC1000079C1000077C10000A4C40000BA
:1000300073C1000071C100006FC100006DC10000FC
:100040006BC1000069C100000C94B61D65C10000C1
:1000500063C1000061C100005FC100005DC100001C
:100060005BC1000059C10000084AD73B3BCE016E7E
:1000700084BCBFFDC12F3D6C74319ABD56833DDAFF
:100080003D00C77F11BED9E4BB4C3E916BAAAABE0E
:10009000000000803F05A84CCDB2D44EB93836A937
:1000A000020C50B9918688083CA6AAAA2ABE000074
:1000B00000803F006E616E00696E660000407A103D
:1000C000F35A00A0724E18090010A5D4E80000E809
:1000D0007648170000E40B54020000CA9A3B000067
:1000E00000E1F505000080969800000040420F00F6
:1000F0000000A08601000000102700000000E803B7
:10010000000000006400000000000A000000000081
:100110000100000000002C76D888DC674F0823DF40
:10012000C1DFAE59E1B1B796E5E3E453C63AE65113
:10013000997696E8E6C28426EB898C9B62ED407C3A
:100140006FFCEFBC9C9F40F2BAA56FA5F490055AD6
:100150002AF75C936B6CF9676DC11BFCE0E40D47FB
:10016000FEF520E6B500D0ED902E0300943577051E
:100170000080841E080000204E0A000000C80C33D6
:100180003333330F986E12831141EF8D2114893B65
:10019000E65516CFFEE6DB18D1844B381BF77C1DE5
:1001A000901DA4BBE424203284725E228100C9F138
:1001B00024ECA1E53D274E414E494E495459494E44
:1001C00046CDCCCC3D0AD7233C17B7D13877CC2BC2
:1001D000329595E6241FB14F0A000020410000C867
:1001E0004200401C4620BCBE4CCA1B0E5AAEC59DE8
:1001F00074566F6C74616765204D696E3A00636177
:100200006C6962726174696F6E2072656164790AEB
:10021000005257206D61783A20004657206D696E74
:100220003A200063616C6962726174696E67206D67
:100230006F746F723A0053687574646F776E0A005A
:10024000204144435F76616C75653A006D6F746F51
:10025000723A0052756E6E696E67206D6F746F72C0
:1002600020004552522C6469720A0074696D656FF2
:1002700075740A00414552520A004D414E0A004F22
:100280004B0A004D414E0A004F4B0A004552520A9C
:10029000006364696E6F70737578585B6566674557
:1002A000464700616E006E66696E69747900CDCC58
:1002B000CC3D0AD7233C17B7D13877CC2B32959554
:1002C000E6241FB14F0A000020410000C842004050
:1002D0001C4620BCBE4CCA1B0E5AAEC59D741124D0
:1002E0001FBECFEFD8E0DEBFCDBF12E0A0E0B1E08F
:1002F000E6E9FBE502C005900D92AC3AB107D9F7EB
:1003000023E0ACEAB2E001C01D92A63CB207E1F7DF
:100310000E94221E0C94C92D73CE259A08959091A7
:10032000C00095FFFCCF8093C60080E090E0089568
:10033000CF93DF93EC01892B09F441C0440F551F83
:10034000661F771F440F551F661F771F9A01AB0169
:10035000220F331F441F551F60E074E284EF90E0CA
:100360000E94A329BA01A9014150510961097109EB
:10037000519A5098BB27A72F962F852F8093C500A1
:100380004093C4008091C10088698093C10080912E
:10039000C20086608093C2008091C000826080931A
:1003A000C0008EE0E0E0F1E0DE0101900D928A9560
:1003B000E1F780E091E09093C1038093C003DF9167
:1003C000CF9108959091C00095FFFCCF8093C60017
:1003D000089502C08091C6008091C00087FDFACFC9
:1003E00008958091C00087FFFCCF8091C6000895DA
:1003F000AC01F89420E06217A9F09091C00097FF3B
:10040000FCCF9091C600FA01E20FF11DE491E917CB
:1004100079F020E06111F1CF8091C00087FF06C024
:100420008091C6008091C00087FDFACF789408952E
:100430002F5FE1CF860F80937C0087EC80937A005A
:1004400080917A0086FDFCCF8091780090917900B0
:100450000895860F80937C0097EC90937A0090919A
:100460007A0096FDFCCF209178003091790020E051
:1004700031E040E050E0BA01A7EC80937C00A0930B
:100480007A0090917A0096FDFCCFE0917800F0918F
:1004900079004E0F5F1F611D711D2150310969F7F1
:1004A000CB01BA0124E096958795779567952A95B3
:1004B000D1F7089517B818B80895CF92DF92EF9248
:1004C000FF92242F860F80937C0097EC90937A0004
:1004D00090917A0096FDFCCF409178005091790080
:1004E000222349F130E0C12CD12C760147EC8093D6
:1004F0007C0040937A0090917A0096FDFCCFE091C9
:100500007800F0917900CE0EDF1EE11CF11C95E31E
:100510009A95F1F700003F5F3213E9CF30E040E0F9
:1005200050E0C701B6010E94A329C901FF90EF90D6
:10053000DF90CF900895C12CD12C7601EFCF860F9C
:100540002AE040E050E0BA0137EC80937C00309321
:100550007A0090917A0096FDFCCFE0917800F091BE
:1005600079004E0F5F1F611D711D215071F7CB0186
:10057000BA0108954F925F926F927F928F929F92ED
:10058000AF92BF92CF92DF92EF92FF92AC019C01AB
:10059000ACE7B1E00E94C5296B017C01BA0180E0A3
:1005A00090E00E94B4279B01AC010E94CF284B0130
:1005B0005C01C701B60164507D488109910924E0BE
:1005C000C20E2DE8D21EE11CF11C0E94B627A50127
:1005D00094010E948C2620E032E44FEE58E40E9401
:1005E0008D2620E030E44CE155E40E948D262B015D
:1005F0003C01C701B6010E94B627A50194010E94E3
:100600008D2620E032E44FEE58E40E948C2620E054
:1006100030E44CE155E40E948C269B01AC01C301FF
:10062000B2010E94CF280E943C299B01AC0160E0EE
:1006300072EE81E898E40E948C266B017C01A50192
:10064000940160E07CE387E597E40E948C2620E03B
:1006500032E44FEE58E40E948D2620E030E44CE175
:1006600055E40E948D269B01AC01C701B6010E9492
:1006700020270E94F12620E030E044EB53E40E9462
:10068000CF2890582BED3FE049E450E40E9420270A
:10069000FF90EF90DF90CF90BF90AF909F908F90A2
:1006A0007F906F905F904F9008954F925F926F92FE
:1006B0007F928F929F92AF92BF92CF92DF92EF92F2
:1006C000FF92AC019C01A4E5B1E00E94C5296B0139
:1006D0007C01BA0180E090E00E94B4279B01AC014C
:1006E0000E94CF284B015C01C701B601645E7047D0
:1006F0008109910924EEC20E20E7D21EE11CF11CF3
:100700000E94B627A50194010E948C2620E43CE0BB
:1007100049E758E40E948D2620E032E444EA56E49A
:100720000E948D262B013C01C701B6010E94B6270D
:10073000A50194010E948D2620E43CE049E758E49D
:100740000E948C2620E032E444EA56E40E948C2683
:100750009B01AC01C301B2010E94CF280E943C2939
:100760009B01AC0160E07DEA87E298E40E948C2660
:100770006B017C01A501940160E070E68FE996ECC5
:100780000E948C2620E43CE049E758E40E948D2634
:1007900020E032E444EA56E40E948D269B01AC013D
:1007A000C701B6010E9420270E94F12620E030E018
:1007B00044EB53E40E94CF282BED3FE049E450E4A2
:1007C0000E9420279B01AC0160E070E084EB92E482
:1007D0000E948C26FF90EF90DF90CF90BF90AF905B
:1007E0009F908F907F906F905F904F9008958F9221
:1007F0009F92AF92BF92CF92DF92EF92FF9220E052
:1008000030E044E353E40E948D262BED3FE049E4C1
:1008100050E40E94CF2820E030E044E353E40E94FB
:1008200020276B017C010E941D2720E030E04EE371
:1008300053E40E94CF2820E030E048E452E40E94D4
:100840008D264B015C01C701B6010E94322920E0D0
:1008500030E04EE353E40E94CF289B01AC0160E0FE
:1008600070E08FE294E40E948C266B017C01A5016C
:100870009401C501B4010E94CF284B015C01A7017E
:100880009601C701B6010E94CF289B01AC01C501AA
:10089000B4010E948D260E943C290E948827CB012A
:1008A000FF90EF90DF90CF90BF90AF909F908F9090
:1008B00008958F929F92AF92BF92CF92DF92EF9264
:1008C000FF9220E030E044EB52E40E948D262BEDB5
:1008D0003FE049E450E40E94CF2820E030E044E3C8
:1008E00053E40E9420276B017C010E941D2720E019
:1008F00030E04AE253E40E94CF2820E030E041E1BA
:1009000053E40E948C264B015C01C701B6010E9492
:10091000322920E030E04AE253E40E94CF289B01D4
:10092000AC0160E070E88CEF93E40E948C266B01D0
:100930007C01A5019401C501B4010E94CF284B019F
:100940005C01A7019601C701B6010E94CF289B0157
:10095000AC01C501B4010E948D260E943C290E9471
:100960008827CB01FF90EF90DF90CF90BF90AF90A2
:100970009F908F9008951F920F920FB60F9211249F
:100980008F939F938091AC029091AD0201969093CA
:10099000AD028093AC029F918F910F900FBE0F908C
:1009A0001F9018956091A2017091A3018091A401FC
:1009B0009091A501089560913E0170913F01809151
:1009C00040019091410108956091A2017091A301AD
:1009D0008091A4019091A5012091A6013091A701D9
:1009E0004091A8015091A9010C948D260895EFE043
:1009F000F1E067A570A981A992A923A934A945A905
:100A000056A90C948D260895809196019091970196
:100A10000895809132019091330108958091980159
:100A20009091990108958091340190913501089534
:100A3000CF93DF93CFE0D1E0E0915F01F0916001CF
:100A40008BA19CA109952FA938AD49AD5AAD0E9443
:100A50008D26DF91CF910895E091C301F091C401FB
:100A6000809196019091970109952091AA0130916A
:100A7000AB014091AC015091AD010C948D260895CD
:100A8000CF93DF93CFE0D1E0E0915F01F09160017F
:100A90008DA19EA109952FA938AD49AD5AAD0E94EF
:100AA0008D26DF91CF910895E091C301F091C401AB
:100AB000809198019091990109952091AA01309116
:100AC000AB014091AC015091AD010C948D2608957D
:100AD0008F929F92AF92BF92CF92DF92EF92FF924E
:100AE0006B017C0186E080935E0120913E01309194
:100AF0003F014091400150914101C701B6010E9460
:100B0000C42887FD1BC060913E0170913F01809118
:100B10004001909141012091420130914301409167
:100B20004401509145010E948D269B01AC01C701F3
:100B3000B6010E94192718160CF0CCC060913E0136
:100B400070913F01809140019091410120914201BB
:100B50003091430140914401509145010E948D26FE
:100B60009B01AC01C701B6010E94C42818160CF401
:100B700057C020913E0130913F014091400150917A
:100B80004101C701B6010E94192787FD7EC010925E
:100B90005A0110925B0110925C0110925D0120914C
:100BA0003201309133018091340190913501281741
:100BB000390738F1209132013091330180913401AD
:100BC000909135018217930770F4809132019091D2
:100BD00033012091340130913501821B930B9093A6
:100BE0007201809371011092AD021092AC0281E00B
:100BF000FF90EF90DF90CF90BF90AF909F908F903D
:100C00000895809134019091350120913201309105
:100C10003301821B930B9093720180937101E3CF98
:100C2000E0906701F090680160913E0170913F0192
:100C30008091400190914101209142013091430106
:100C400040914401509145018090460190904701A8
:100C5000A0904801B09049010E948D26A501940101
:100C60000E948C26F701099520915401309155017D
:100C70002817390728F48091540190915501019764
:100C8000909335018093340182CFE0906701F0901A
:100C9000680160913E0170913F0180914001909107
:100CA0004101209146013091470140914801509106
:100CB00049010E948C26F70109952091520130913B
:100CC000530182179307E0F68091520190915301EE
:100CD0000196D6CF10925A0110925B0110925C01DE
:100CE00010925D01A0906701B090680120914601CB
:100CF000309147014091480150914901C701B60127
:100D00000E948C26F501099520913401309135011E
:100D100028173907B0F520913C01820F911D2091D1
:100D20005401309155012817390708F44BC09093AE
:100D3000350180933401209132013091330180914B
:100D40003401909135012817390760F12091320163
:100D500030913301809134019091350182179307CE
:100D6000B8F5809132019091330120913401309196
:100D70003501821B930B909372018093710180E087
:100D800037CF20913C01821B910920915201309173
:100D900053018217930758F68091520190915301A5
:100DA0000196C5CF80913401909135012091320197
:100DB00030913301821B930B9093720180937101E8
:100DC00080E016CF80915401909155010197AFCFEB
:100DD00080E00ECF8F929F92AF92BF92CF92DF9220
:100DE000EF92FF926B017C0186E08093C20120911B
:100DF000A2013091A3014091A4015091A501C70126
:100E0000B6010E94C42887FD1BC06091A2017091A9
:100E1000A3018091A4019091A5012091A601309198
:100E2000A7014091A8015091A9010E948D269B0124
:100E3000AC01C701B6010E94192718160CF0CCC0EE
:100E40006091A2017091A3018091A4019091A501EC
:100E50002091A6013091A7014091A8015091A901CC
:100E60000E948D269B01AC01C701B6010E94C428D7
:100E700018160CF457C02091A2013091A3014091A3
:100E8000A4015091A501C701B6010E94192787FD51
:100E90007EC01092BE011092BF011092C00110924C
:100EA000C101209196013091970180919801909114
:100EB00099012817390738F120919601309197014F
:100EC00080919801909199018217930770F4809115
:100ED0009601909197012091980130919901821B80
:100EE000930B9093D6018093D5011092AD0210928E
:100EF000AC0281E0FF90EF90DF90CF90BF90AF9079
:100F00009F908F90089580919801909199012091E0
:100F1000960130919701821B930B9093D601809399
:100F2000D501E3CFE090CB01F090CC016091A2011C
:100F30007091A3018091A4019091A5012091A60137
:100F40003091A7014091A8015091A9018090AA0178
:100F50009090AB01A090AC01B090AD010E948D26A5
:100F6000A50194010E948C26F70109952091B801F2
:100F70003091B9012817390728F48091B801909170
:100F8000B9010197909399018093980182CFE090E5
:100F9000CB01F090CC016091A2017091A3018091EE
:100FA000A4019091A5012091AA013091AB0140913B
:100FB000AC015091AD010E948C26F701099520915A
:100FC000B6013091B70182179307E0F68091B60120
:100FD0009091B7010196D6CF1092BE011092BF0139
:100FE0001092C0011092C101A090CB01B090CC0131
:100FF0002091AA013091AB014091AC015091AD011B
:10100000C701B6010E948C26F5010995209198012F
:101010003091990128173907B0F52091A001820F6E
:10102000911D2091B8013091B9012817390708F4B2
:101030004BC0909399018093980120919601309133
:10104000970180919801909199012817390760F1D3
:10105000209196013091970180919801909199018A
:1010600082179307B8F5809196019091970120918E
:10107000980130919901821B930B9093D601809334
:10108000D50180E037CF2091A001821B91092091EA
:10109000B6013091B7018217930758F68091B601D7
:1010A0009091B7010196C5CF8091980190919901D7
:1010B0002091960130919701821B930B9093D6015A
:1010C0008093D50180E016CF8091B8019091B9014D
:1010D0000197AFCF80E00ECF2091B6013091B701DC
:1010E0008217930738F12091B8013091B901281780
:1010F000390700F140919601509197012091980194
:10110000309199016091A001260F311D24173507F8
:1011100078F4409196015091970120919801309177
:1011200099016091A001261B31094217530720F055
:1011300080E0089581E0089590939901809398014B
:1011400086E08093C20120919601309197018091B1
:1011500098019091990128173907D0F020919601B4
:10116000309197018091980190919901821793078E
:10117000F8F6809196019091970120919801309115
:101180009901821B930B9093D6018093D501D0CF08
:101190008091980190919901209196013091970149
:1011A000821B930B9093D6018093D50180E0089524
:1011B00020915201309153018217930738F1209109
:1011C0005401309155012817390700F1409132013F
:1011D00050913301209134013091350160913C01EF
:1011E000260F311D2417350778F4409132015091B4
:1011F0003301209134013091350160913C01261B6F
:1012000031094217530720F080E0089581E00895E6
:10121000909335018093340186E080935E012091A4
:1012200032013091330180913401909135012817BA
:101230003907D0F02091320130913301809134018F
:101240009091350182179307F8F6809132019091C1
:1012500033012091340130913501821B930B90931F
:10126000720180937101D0CF80913401909135014A
:101270002091320130913301821B930B90937201C4
:101280008093710180E0089580915E0108958091BE
:10129000C20108956091CD017091CE018091CF017E
:1012A0009091D00108956091690170916A018091D7
:1012B0006B0190916C0108956091D1017091D20100
:1012C0008091D3019091D401089560916D01709146
:1012D0006E0180916F019091700108958091D50108
:1012E0009091D601089580917101909172010895B5
:1012F000FC01E65AFF4F60817181828193810895DC
:10130000FC01E25AFF4F60817181828193810895CF
:10131000FC01EE59FF4F808191810895CF93DF93B7
:10132000EC01FC01E05BFF4F0190F081E02D8BA10F
:101330009CA109959B01AC016FA978AD89AD9AADCF
:101340000E948D26DF91CF910895CF93DF93EC011A
:10135000FC01E05BFF4F0190F081E02D8DA19EA18B
:1013600009959B01AC016FA978AD89AD9AAD0E943A
:101370008D26DF91CF910895A0E0B0E0E2ECF9E096
:101380000C94DE29EC0188A142E060E496D88C013F
:10139000C65ADF4F688179818A819B8120E030E0E5
:1013A00040E151E40E94CF286B017C01B80180E04C
:1013B00090E00E94B4279B01AC01C701B6010E94D6
:1013C0008D2620E030E040E251E40E94202768832F
:1013D00079838A839B83CDB7DEB7E8E00C94FA2942
:1013E0008F929F92AF92BF92CF92DF92EF92FF9235
:1013F000CF93DF93EC016A017B01FC01E15BFF4FBE
:1014000086E080836FA578A989A99AA9A70196018A
:101410000E94192718169CF06FA578A989A99AA986
:101420002BA93CA94DA95EA90E948D269B01AC0168
:10143000C701B6010E94192718160CF09BC06FA5B2
:1014400078A989A99AA92BA93CA94DA95EA90E94AE
:101450008D269B01AC01C701B6010E94C428181655
:101460000CF444C02FA538A949A95AA9C701B6014F
:101470000E94192787FD61C0FE01E55BFF4F1082C6
:101480001182128213822BA13CA18DA19EA128174B
:10149000390708F12BA13CA18DA19EA182179307CA
:1014A00050F48BA19CA12DA13EA1821B930BCE5980
:1014B000DF4F998388831092AD021092AC0281E0D5
:1014C000DF91CF91FF90EF90DF90CF90BF90AF90E2
:1014D0009F908F9008958DA19EA12BA13CA1821B6E
:1014E000930BCE59DF4F99838883E5CFFE01E85AED
:1014F000FF4FE080F1806FA578A989A99AA92BA94F
:101500003CA94DA95EA98FA898ACA9ACBAAC0E9421
:101510008D26A50194010E948C26F7010995FE01F4
:10152000EB5BFF4F208131812817390718F4808148
:10153000918101979EA38DA39FCFFE01E85AFF4F93
:10154000E080F1806FA578A989A99AA92FA938AD63
:1015500049AD5AAD0E948C26F7010995FE01ED5B5D
:10156000FF4F208131818217930720F7808191817D
:101570000196E0CFFE01E55BFF4F108211821282DF
:1015800013823D96A080B1802FA938AD49AD5AADE8
:10159000C701B6010E948C26F50109952DA13EA137
:1015A0002817390738F52DA5820F911DFE01EB5B39
:1015B000FF4F2081318128173907B8F19EA38DA3F1
:1015C0002BA13CA18DA19EA12817390710F12BA1B9
:1015D0003CA18DA19EA18217930758F58BA19CA1D8
:1015E0002DA13EA1821B930BCE59DF4F9983888397
:1015F00080E066CF2DA5821B9109FE01ED5BFF4FB8
:101600002081318182179307C8F6808191810196EC
:10161000D5CF8DA19EA12BA13CA1821B930BCE59AE
:10162000DF4F9983888380E04BCF80819181019740
:10163000C5CF80E045CFFC0123A134A185A196A1AF
:101640002817390790F023A134A185A196A182170C
:10165000930750F483A194A125A136A1821B930B7B
:10166000EE59FF4F91838083089525A136A183A170
:1016700094A1281B390BEE59FF4F31832083089525
:10168000FC0167A570A981A992A90895FC0167A52D
:1016900070A981A992A923A934A945A956A90C9496
:1016A0008D260895EFE0F1E0268DA28DB38D4C914B
:1016B00081E090E0BC0102C0660F771F2A95E2F737
:1016C0009B012095309524232C93A581B6811C92F3
:1016D000A085B1851C92A385B4851C92A289B3898B
:1016E0001C92A589B6891C92A08DB18D1C9211A265
:1016F00010925A0110925B0110925C0110925D01F0
:1017000023A134A136A325A330919101E0918D014D
:10171000F0918E01208102C0880F991F3A95E2F75F
:101720008095909582238083E0917801F0917901F2
:101730001082E0917B01F0917C011082E0917E01AA
:10174000F0917F011082E0918501F0918601108275
:10175000E0918801F09189011082E0918B01F09174
:101760008C011082109294011092BE011092BF0160
:101770001092C0011092C101809196019091970141
:1017800090939901809398010895FC01DC01AD5B71
:10179000BF4F8D919C91119768177907E0F01296D1
:1017A0008D919C9186179707B0F023A134A185A154
:1017B00096A145A5840F911D8217930750F423A18C
:1017C00034A185A196A145A5841B91092817390745
:1017D00020F080E0089581E0089576A365A386E077
:1017E000DF01A15BBF4F8C9323A134A185A196A1FA
:1017F0002817390798F023A134A185A196A1821753
:10180000930738F783A194A125A136A1821B930BDE
:10181000EE59FF4F9183808380E0089525A136A182
:1018200083A194A1281B390BEE59FF4F31832083EC
:10183000D0CFA0E0B0E0EFE1FCE00C94DE29611530
:10184000710539F0FC01EE59FF4F20813181232BC6
:1018500069F4FC01E25AFF4F108211821282138256
:10186000CDB7DEB7E8E00C94FA2926C08B01EC0175
:101870006081718180E090E00E94B4276B017C015F
:10188000B80180E090E00E94B42720E030E048EC0E
:1018900052E40E9420279B01AC01C701B6010E94BF
:1018A0002027C25ADF4F688379838A839B83CDB711
:1018B000DEB7E8E00C94FA29A0E0B0E0E2E6FCE054
:1018C0000C94D429E12CF12C33E2832E32E0932EB8
:1018D0004AEFC42E41E0D42E54E6552EAA24A394F8
:1018E000B12C7EEF272E71E0372E9F928F92809140
:1018F000B1028F938091B0028F930E948A2BFF9246
:10190000EF92DF92CF928091B1028F938091B002DB
:101910008F930E947A2B5E9CF0015F9CF00D112446
:10192000E15FFE4F86A581A32DB73EB7265F3F4FEF
:101930000FB6F8943EBF0FBE2DBF882309F49AC19D
:10194000A08DB18D1C92A385B4858C938189A585CA
:10195000B6852C91A50102C0440F551F8A95E2F768
:10196000CA018095909582238C93A289B3891C9299
:10197000A581B68187818C93A589B6891C92A085A3
:10198000B18582858C93868D028CF38DE02D20812C
:10199000D50102C0AA0FBB1F8A95E2F7CD01822BA9
:1019A00080835FEF89E698E1515080409040E1F7F5
:1019B00000C0000094E6492E612C712C5E9C8001D1
:1019C0005F9C100D1124025D1E4F0EC05FEF89E673
:1019D00098E1515080409040E1F700C000004A94E7
:1019E0003E01442009F46FC1D8018C9144E060E4C9
:1019F0000E945D02EC01C30102978C179D0730F72E
:101A0000B2E06B0E711CC615D70500F7AAE1B2E073
:101A1000BF93AF938091B1028F938091B0028F9367
:101A20000E948A2BDF93CF93DF92CF928091B102F5
:101A30008F938091B0028F930E947A2B4DB75EB73F
:101A4000465F5F4F0FB6F8945EBF0FBE4DBF5E9C02
:101A5000F0015F9CF00D1124E15FFE4F86A581A38C
:101A6000882309F4DEC0A385B4851C92A08DB18DB6
:101A70008C938481A081B1812C91A50102C0440F77
:101A8000551F8A95E2F7CA018095909582238C9321
:101A9000A581B6811C92A289B38984898C93A08583
:101AA000B1851C92A589B68987898C93868D028C15
:101AB000F38DE02D2081D50102C0AA0FBB1F8A95AE
:101AC000E2F7CD01822B80835FEF89E698E15150E8
:101AD00080409040E1F700C0000084E6482E612C71
:101AE000712C5E9C80015F9C100D1124025D1E4FC5
:101AF0000EC03FEF49E658E1315040405040E1F719
:101B000000C000004A943C01442009F4DFC0D80121
:101B10008C9144E060E40E945D02930122503109FF
:101B20002817390730F7B2E06B0E711C8615970540
:101B300000F78C01A1E1B2E0BF93AF938091B102B5
:101B40008F938091B0028F930E948A2B1F930F93E3
:101B5000DF92CF928091B1028F938091B0028F93E8
:101B60000E947A2B2DB73EB7265F3F4F0FB6F894F1
:101B70003EBF0FBE2DBF3F922F928091B1028F9337
:101B80008091B0028F930E948A2BA1EFB1E0BF93A6
:101B9000AF938091B1028F938091B0028F930E9496
:101BA0008A2BB80180E090E00E94B42720E030EE5C
:101BB00042E950E40E94CF289F938F937F936F93C5
:101BC000BE0180E090E00E94B42720E030EE42E9C0
:101BD00050E40E94CF289F938F937F936F93A4EE3E
:101BE000B1E0BF93AF938091B1028F938091B00227
:101BF0008F930E947A2B2DB73EB72C5E3F4F0FB6C6
:101C0000F8943EBF0FBE2DBF31E0E316F10429F476
:101C1000CDB7DEB7E2E10C94F029EE24E394F12C89
:101C200064CE868DA28DB38D2C91A50102C0440F88
:101C3000551F8A95E2F7CA018095909582238C936F
:101C4000A581B6811C92A085B1851C92A385B4851F
:101C50001C92A289B3891C92A589B6891C92A08D79
:101C6000B18D1C9211A2E55BFF4F1082118212828E
:101C700013822ACF868DA28DB38D2C91A50102C02F
:101C8000440F551F8A95E2F7CA01809590958223EB
:101C90008C93A581B6811C92A085B1851C92A385E9
:101CA000B4851C92A289B3891C92A589B6891C921D
:101CB000A08DB18D1C9211A2E55BFF4F10821182A5
:101CC000128213826ECEC0E0D4E0C1CE00E010E0FC
:101CD00052CF9C0136952795ABE7B4E10E94C52908
:101CE00096958795009759F020E030E04AEF4A95A5
:101CF000F1F700C02F5F3F4F28173907B9F7089554
:101D0000FC01368DA28DB38D2C9181E090E002C054
:101D1000880F991F3A95E2F78095909582238C93CE
:101D2000A581B6811C92A085B1851C92A385B4853E
:101D30001C92A289B3891C92A589B6891C92A08D98
:101D4000B18D1C9211A2E55BFF4F108211821282AD
:101D500013820895FC0141A34423A1F1613009F4E9
:101D60005AC0A385B4851C92A08DB18D4C9334814B
:101D7000A081B1812C9181E090E002C0880F991F71
:101D80003A95E2F78095909582238C93A581B68150
:101D90001C92A289B38984898C93A085B1851C92F9
:101DA000A589B68987898C93368D028CF38DE02DB9
:101DB000208181E090E001C0880F3A95EAF7822BFC
:101DC00080830895368DA28DB38D2C9181E090E0B3
:101DD00002C0880F991F3A95E2F78095909582236B
:101DE0008C93A581B6811C92A085B1851C92A38598
:101DF000B4851C92A289B3891C92A589B6891C92CC
:101E0000A08DB18D1C9211A2E55BFF4F1082118253
:101E1000128213820895A08DB18D1C92A385B48582
:101E20004C933189A585B6852C9181E090E002C064
:101E3000880F991F3A95E2F78095909582238C93AD
:101E4000A289B3891C92A581B68187818C93A589CB
:101E5000B6891C92A085B18582858C93A5CFA0E020
:101E6000B0E0E5E3FFE00C94D529C82F862E823040
:101E7000B0F082E692E09F938F938091B1028F93AE
:101E80008091B0028F930E948A2B0F900F900F9039
:101E90000F90CDB7DEB7E1E10C94F129EFC083E5F7
:101EA00092E09F938F938091B1028F938091B002C3
:101EB0008F930E948A2B1F928F928FEE91E09F93B7
:101EC0008F938091B1028F938091B0028F930E9483
:101ED0007A2B40913D016C2F8FE091E03BDF24E1B4
:101EE000829E400111248DB79EB70A960FB6F894D2
:101EF0009EBF0FBE8DBF8114910409F46EC0A12C4A
:101F0000B12C84E6582E9CE4C92E92E0D92E24EF01
:101F1000E22E21E0F22E00E412E0CAEFD1E010C080
:101F20002FEF80E792E0215080409040E1F700C021
:101F300000002FEFA21AB20A8A149B0409F44DC0C4
:101F4000612C712C569CF001579CF00D1124E15F1F
:101F5000FE4F878D44E060E40E945D02482E392EDA
:101F6000DF92CF928091B1028F938091B0028F93D4
:101F70000E948A2B7F926F92FF92EF928091B10222
:101F80008F938091B0028F930E947A2B1F930F93AF
:101F90008091B1028F938091B0028F930E948A2B1F
:101FA0003F924F92DF93CF938091B1028F938091B4
:101FB000B0028F930E947A2B8DB79EB744960FB6CE
:101FC000F8949EBF0FBE8DBF91E06916710409F4AD
:101FD000A7CF66246394712CB5CF86E392E09F93DC
:101FE0008F938091B1028F938091B0028F930E9462
:101FF0008A2B1092300130912D01E0912901F0914E
:102000002A01208181E090E002C0880F991F3A9553
:10201000E2F78095909582238083E0911401F091FE
:1020200015011082E0911701F09118011082E091E2
:102030001A01F0911B011082E0912101F09122011F
:102040001082E0912401F09125011082E091270196
:10205000F091280110821092300110925A011092D2
:102060005B0110925C0110925D010F900F900F9038
:102070000F90CDB7DEB7E1E10C94F1290F931F93D8
:10208000CF93DF93EC01062F142F8EA5841708F44D
:102090001EA589A1811708F069C089A1811708F0E0
:1020A0005BC041E050E0FE01E55BFF4F89A189A3E1
:1020B000882309F480C0013009F4A4C0AB85BC8535
:1020C0001C92A88DB98D8C938C81A881B9812C919B
:1020D000BA0102C0660F771F8A95E2F7CB0180959F
:1020E000909582238C93AD81BE811C92AA89BB8975
:1020F0008C898C93A885B9851C92AD89BE898F89FE
:102100008C938E8DAA8DBB8D2C91BA0102C0660F67
:10211000771F8A95E2F7CB01822B8C9329A53AA5EC
:1021200036952795ABE7B4E10E94C529969587952A
:10213000009759F020E030E07AEF7A95F1F700C08F
:102140002F5F3F4F28173907B9F789A18F5F89A300
:1021500089A1811708F4AACF49A1602FCE01FADD29
:102160000AA3DF91CF911F910F91089589A11817AC
:10217000B8F789A1181780F749A1602FCE01EADDD1
:102180002BA53CA536952795ABE7B4E10E94C52960
:1021900096958795009759F020E030E04AEF4A95F0
:1021A000F1F700C02F5F3F4F28173907B9F789A112
:1021B000815089A3DECF8E8DAA8DBB8D2C91BA0163
:1021C00002C0660F771F8A95E2F7CB018095909544
:1021D00082238C93AD81BE811C92A885B9851C9207
:1021E000AB85BC851C92AA89BB891C92AD89BE892E
:1021F0001C92A88DB98D1C9219A210821182128294
:1022000013828CCFA88DB98D1C92AB85BC858C9325
:102210008989AD85BE852C91BA0102C0660F771FF2
:102220008A95E2F7CB018095909582238C93AA89B9
:10223000BB891C92AD81BE818F818C93AD89BE8993
:102240001C92A885B9858A858C935BCFA0E0B0E00D
:10225000ECE2F1E10C94D429EC018F8D44E060E4D0
:102260000E945D026C01E12CF12CFE01EE5AFF4F41
:1022700080819181A0E0B0E0C816D906EA06FB068D
:1022800008F467C0DE01AC5ABF4F8D919C91C29695
:10229000A0E0B0E08C159D05AE05BF0508F459C05F
:1022A000208031806BAD7CADFE01FF964080518077
:1022B0006280738077960081118180E090E00E94B7
:1022C000B4274B015C01B80180E090E00E94B42784
:1022D0009B01AC01C301B2010E9420272B013C01EC
:1022E000C701B60162197309810991090E94B427D7
:1022F0009B01AC01C301B2010E94CF289B01AC013C
:10230000C501B4010E948D260E9488276B017C01C3
:10231000CB01FE01EB5BFF4F208131812617370790
:1023200028F43A962081213009F451C0FE01ED5B7A
:10233000FF4F208131818217930720F43C968081E2
:102340008230C1F1C601CDB7DEB7E2E10C94F029CD
:1023500040C0FE01E15BFF4F87E080836AA140E05F
:10236000CE018CDE8FEF80930E018BA19CA19EA3EA
:102370008DA384E792E09F938F938091B1028F9316
:102380008091B0028F930E948A2B2FEF89E698E10B
:10239000215080409040E1F700C000008BA19CA13B
:1023A0000F900F900F900F90CDB7DEB7E2E10C9435
:1023B000F0290FC084E080836AA140E0CE015EDE98
:1023C0008FEF80930E01DEA2CDA2C601EDCF85E096
:1023D000F2CFA8E0B0E0EFEEF1E10C94D4299093B5
:1023E000B1028093B0029FE0A92E91E0B92E212C7A
:1023F000312C01E010E044E6429D9001439D300DF8
:102400001124C901815F9E4F98878F83DC01149648
:102410008C9114971296ED91FC9113972081A8014D
:1024200002C0440F551F8A95E2F7CA01822B8083B0
:1024300051968C9151971F96ED91FC915097208168
:10244000D80102C0AA0FBB1F8A95E2F7CD01822BEB
:102450008083EF81F885868D048CF58DE02D2081B9
:10246000A80102C0440F551F8A95E2F7CA01822BCA
:102470008083AF81B88514968C911497ED91FC916F
:1024800011972081A80102C0440F551F8A95E2F7D9
:10249000CA01809590958223808351968C915197A3
:1024A0001D96ED91FC911E972081D80102C0AA0FC4
:1024B000BB1F8A95E2F7CD0180959095822380839A
:1024C000EF81F885868D028CF38DE02D2081A801A7
:1024D00002C0440F551F8A95E2F7CA018095909576
:1024E00082238083AF81B8851596ED91FC91169774
:1024F00010821896ED91FC91199710821B96ED9120
:10250000FC911C9710825296ED91FC91539710828A
:102510005596ED91FC91569710825896ED91FC914D
:1025200059971082EFE3FCE93197F1F700C0000002
:102530005F968C9144E060E40E945D022C01612C66
:10254000712CEF81F885EE5AFF4F80819181A0E0D8
:10255000B0E0481659066A067B0608F49FC0AF81B2
:10256000B885AC5ABF4F8D919C91C296A0E0B0E067
:1025700084159505A605B70508F490C08080918064
:10258000EF81F88563AD74ADFF96C080D180E280A5
:10259000F380EF81F885EA5AFF4F2081318180E096
:1025A00090E02D833E830E94B42769837A838B83D6
:1025B0009C832D813E81B90180E090E00E94B42788
:1025C0009B01AC01C701B6010E9420276B017C0171
:1025D000C301B20168197909810991090E94B427E0
:1025E0009B01AC01C701B6010E94CF289B01AC0141
:1025F00069817A818B819C810E948D260E94882727
:102600006B017C01CB01EF81F885EB5BFF4F2081F3
:1026100031812617370740F4EF81F885E15BFF4FE2
:102620002081213009F48EC0F4E6F29DA001F39DD3
:10263000500D11249A01215F3E4F4901F901ED5BD4
:10264000FF4F208131818217930708F467C024E689
:10265000229DF001239DF00D1124E15FFE4FD4A2D5
:10266000C3A283A194A196A385A334E6A30EB11CB3
:1026700041E02416310409F04DC0109280008DE035
:1026800080938100109289008CE98093880082E019
:1026900080936F002896E2E10C94F029F4E6F29D15
:1026A0009001F39D300D1124A901415F5E4F7A0125
:1026B000FA01E15BFF4F57E05083D70192966C918E
:1026C00040E0C501DBDCBFEFB0930E01F70183A151
:1026D00094A196A385A3A4E7B2E0BF93AF938091A2
:1026E000B1028F938091B0028F930E948A2BFFEFEB
:1026F00029E638E1F15020403040E1F700C0000009
:10270000D7019396CD90DC9094970F900F900F90F7
:102710000F909DCF22242394312C6DCE3C96808146
:10272000823009F094CF84E08083D40192966C913A
:1027300040E0C501A3DCBFEFB0930E01F401D6A2C7
:10274000C5A285CF25E02083AF81B88592966C9194
:1027500040E0C50193DCBFEFB0930E01EF81F88537
:10276000D6A2C5A274CFA6E0B0E0E9EBF3E10C94E9
:10277000D4294FE0A42E41E0B42E212C312C44E684
:10278000429D9001439D300D1124C901815F9E4FF0
:102790009E838D83DC015F968C9144E060E40E940F
:1027A0005D026C01E12CF12CED81FE81EE5AFF4FB0
:1027B00080819181A0E0B0E0C816D906EA06FB0648
:1027C00008F496C0AD81BE81AC5ABF4F8D919C91EB
:1027D000C296A0E0B0E08C159D05AE05BF0508F4DB
:1027E00087C080809180ED81FE8163AD74ADFF96DE
:1027F0004080518062807380ED81FE81EA5AFF4FF4
:102800000081118180E090E00E94B42769837A837F
:102810008B839C83B80180E090E00E94B4279B01E9
:10282000AC01C301B2010E9420272B013C01C7016A
:10283000B60168197909810991090E94B4279B01A1
:10284000AC01C301B2010E94CF289B01AC01698198
:102850007A818B819C810E948D260E9488276B0142
:102860007C01CB01ED81FE81EB5BFF4F208131814B
:102870002617370740F4ED81FE81E15BFF4F208191
:10288000213009F4E6C1F4E6F29D8001F39D100DBC
:102890001124015F1E4FF801ED5BFF4F2081318154
:1028A0008217930708F46EC124E6229DF001239D50
:1028B000F00D1124E15FFE4FD4A2C3A280910E015E
:1028C000082E000C990B2816390609F44FC0809188
:1028D0000E018F3F09F44AC0A4E6AA0EB11CB1E074
:1028E0002B16310409F03EC02696E2E10C94F02943
:1028F000B4E6B29D8001B39D100D1124015F1E4FFF
:10290000F801E15BFF4F27E02083D80192966C919C
:1029100040E0C501B3DBBFEFB0930E01F80183A126
:1029200094A196A385A3A4E7B2E0BF93AF9380914F
:10293000B1028F938091B0028F930E948A2BFFEF98
:1029400029E648E1F15020404040E1F700C0000096
:10295000D8019396CD90DC9094970F900F900F90A4
:102960000F90A2CF22242394312C09CF44E6429D1C
:102970009001439D300D1124C901815F9E4F6C0170
:102980008C01015B1F4FD8018C91882309F4A4CFDF
:102990007601BBE4EB0EF11CF701408151816281AD
:1029A0007381349780819181A281B381481759073F
:1029B0006A077B0708F05EC1F60123A134A185A157
:1029C00096A145A5840F911D8217930708F478C13D
:1029D00023A134A185A196A145A5841B910928179F
:1029E000390708F4E3C080A142E060E40E945D0280
:1029F0008C017601BAE5EB0EF11CF7016081718163
:102A00008281938120E030E040E151E40E94CF28B0
:102A10002B013C01B80180E090E00E94B4279B01AB
:102A2000AC01C301B2010E948D2620E030E040E2FB
:102A300051E40E942027D7016D937D938D939C9341
:102A400013977601B1E2EB0EF11CF60181A1882308
:102A500071F186010E5D1F4FBBE2CB0ED11CC6018A
:102A600067017C01F6014081D8016C91C50172D9E2
:102A7000F7012081318136952795ABE7B4E10E94BB
:102A8000C52996958795009759F020E030E0BAEF78
:102A9000BA95F1F700C02F5F3F4F28173907B9F7F4
:102AA000D6018C9181508C938C918111DBCFF4E60F
:102AB000F29D9001F39D300D1124A901415F5E4FFD
:102AC0004A01BA01655B7F4FDB011D921D921D9289
:102AD0001C92139714961C92FA01868DA28DB38DC9
:102AE0002C9141E050E002C0440F551F8A95E2F757
:102AF000CA018095909582238C93A581B6811C9202
:102B0000A085B1851C92A385B4851C92A289B38946
:102B10001C92A589B6891C92A08DB18D1C9211A220
:102B2000DB011D921D921D921C9213970091AC0225
:102B30001091AD020115110541F0F401EE59FF4F5E
:102B400080819181892B09F0CDC024E6229DF0017E
:102B5000239DF00D1124E359FE4F10821182128241
:102B600013824FE758E381E0415050408040E1F745
:102B700000C000009FEF90930E011092AD021092E2
:102B8000AC02AACE3C968081823009F08DCE84E0E2
:102B90008083D80192966C9140E0C5016FDABFEF57
:102BA000B0930E01F801D6A2C5A27ECE46A561E083
:102BB000C50164DAF70180819181A281B381019618
:102BC000A11DB11D80839183A283B38381E0D801CD
:102BD0008C9320920E01608171818281938124E621
:102BE00030E040E050E00E94A329672B682B692B5E
:102BF00009F072CEF60180A142E060E40E945D021D
:102C00008C014601FAE58F0E911CD4016D917D91E6
:102C10008D919C9120E030E040E151E40E94CF286A
:102C20006B017C01B80180E090E00E94B4279B0119
:102C3000AC01C701B6010E948D2620E030E040E2E1
:102C400051E40E942027F40160837183828393837F
:102C500043CE25E02083AD81BE8192966C9140E009
:102C6000C5010CDABFEFB0930E01ED81FE81D6A253
:102C7000C5A21ACED60192966C9140E0C501FED94C
:102C800023E0F8012083ABE6B2E0BF93AF938091DD
:102C9000B1028F938091B0028F930E948A2BD6014C
:102CA00093968D919C91949796969C938E939597DD
:102CB000BFEFB0930E010F900F900F900F900CCEBE
:102CC00046A560E0C501DAD9F70180819181A28132
:102CD000B3810196A11DB11D80839183A283B3832B
:102CE00082E075CF6081718180E090E00E94B4271E
:102CF0006B017C01B80180E090E00E94B42720E0E5
:102D000030E048EC52E40E9420279B01AC01C7014F
:102D1000B6010E942027F401E25AFF4F60837183BD
:102D2000828393831ECFE091AE02F0E0E254FD4F28
:102D300080818A30A1F0E091AE02F0E0E254FD4FD4
:102D400080818D3061F09091AE028091AF02981732
:102D500031F08091AE028F5F8093AE02E4CF089590
:102D60009093B1028093B002EEEBF2E010823196C4
:102D700083E0ED3BF807D1F70895A5E0B0E0E3EC80
:102D8000F6E10C94E429E82FCE01019625E0DC0160
:102D90001D922A95E9F741E04E0F2E2F30E0225484
:102DA0003D4FD9012C912983461711F122E02E0FB6
:102DB000A42FB0E0A254BD4F3C913A832617C1F036
:102DC00033E03E0FA22FB0E0A254BD4F2C912B83D5
:102DD000361771F0EC5FA32FB0E0A254BD4F2C91D9
:102DE0002C83E61729F0F0E0E254FD4F20812D837B
:102DF0000E940E2A2596E2E00C94002AAAE0B0E098
:102E0000E4E0F7E10C94E429E82FCE0101962AE0F2
:102E1000DC011D922A95E9F741E04E0F2E2F30E09C
:102E200022543D4FD9012C912983461709F456C0ED
:102E300022E02E0FA42FB0E0A254BD4F3C913A8364
:102E4000261709F44BC033E03E0FA22FB0E0A25486
:102E5000BD4F2C912B83361709F440C024E02E0F70
:102E6000A32FB0E0A254BD4F3C913C832617B1F193
:102E700035E03E0FA22FB0E0A254BD4F2C912D8320
:102E8000361761F126E02E0FA32FB0E0A254BD4FFC
:102E90003C913E83261711F137E03E0FA22FB0E0A0
:102EA000A254BD4F2C912F833617C1F028E02E0F6E
:102EB000A32FB0E0A254BD4F3C913887261771F084
:102EC000E75FA22FB0E0A254BD4F2C912987E617EF
:102ED00029F0F0E0E254FD4F20812A870E940B2A5E
:102EE0002A96E2E00C94002AEF92FF920F931F9330
:102EF0000DC03091AE029091AF02391779F09091E8
:102F0000AE029F5F9093AE022150E9F1E091AE02D4
:102F1000F0E0E254FD4F90819813EBCF9091AE0218
:102F20008091AF02981749F18091AE028F5F809334
:102F3000AE028091AE02F80180830DC0E091AE0236
:102F4000F0E0E254FD4F8081481769F08091AE02B5
:102F50008F5F8093AE02E091AE02F0E0E254FD4F4D
:102F600080816813EBCF8091AE02F701808381E00E
:102F70001F910F91FF90EF90089582E01F910F91A4
:102F8000FF90EF90089583E01F910F91FF90EF90D5
:102F900008958CE892E09F938F938091B1028F9374
:102FA0008091B0028F930E948A2B0F900F900F9008
:102FB0000F900895A2E1B0E0E0EEF7E10C94D4297F
:102FC00082EA482E82E0582E9E012F5F3F4F590122
:102FD0000CE812E09AE9C92E92E0D92E2AE8E22EF6
:102FE00022E0F22E32E8232E32E0332E9091AE0210
:102FF0008091AF02981709F480C0E091AE0281E0A1
:103000008E0F8093AE02F0E0E254FD4F8081803558
:1030100009F495C0873409F4DAC0863409F45FC036
:10302000843409F483C0813409F429C1823409F459
:1030300066C18335D9F60E944709982E0E9444093B
:103040001F929F921F928F935F924F928091B10235
:103050008F938091B0028F930E947A2BE091AE0201
:10306000F0E0E254FD4F80810FB6F894DEBF0FBE52
:10307000CDBF8A30B1F4BACF9091AE028091AF0249
:10308000981709F4B3CF8091AE028F5F8093AE02A0
:10309000E091AE02F0E0E254FD4F80818A3009F405
:1030A000A5CFE091AE02F0E0E254FD4F80818D307B
:1030B00019F79CCFE091AE02F0E0E254FD4F808121
:1030C0008D3009F493CF9091AE028091AF029817A2
:1030D00009F48CCF8091AE028F5F8093AE02E091B5
:1030E000AE02F0E0E254FD4F80818A3019F79091F2
:1030F000AE028091AF02981380CF6296E2E10C9409
:10310000F029E091AE02F0E0E254FD4F80818D3075
:1031100009F46CCF9091AE028091AF02981709F438
:1031200065CF8091AE028F5F8093AE02E091AE02D8
:10313000F0E0E254FD4F80818A3019F757CFE091DB
:10314000AE02F0E0E254FD4F8081813309F419C1F1
:10315000E091AE02F0E0E254FD4F8081823309F449
:1031600019C1E091AE02F0E0E254FD4F808183335B
:1031700009F405C11F930F938091B1028F93809141
:10318000B0028F930E948A2B0F900F900F900F9098
:1031900015C0E091AE02F0E0E254FD4F80818D3029
:1031A00009F424CF9091AE028091AF02981709F4F0
:1031B0001DCF8091AE028F5F8093AE02E091AE0290
:1031C000F0E0E254FD4F80818A3019F70FCFE09193
:1031D000AE0281E08E0F8093AE02F0E0E254FD4F2C
:1031E0008081813309F4F7C0823309F40AC1833343
:1031F00009F476C1843309F4D0C1853309F4E8C1F8
:10320000863309F4F2C1873309F41BC2883309F409
:10321000A1C3893309F497C4813409F4A9C1823464
:1032200009F400C21F930F938091B1028F93809194
:10323000B0028F930E948A2B0F900F900F900F90E7
:1032400015C0E091AE02F0E0E254FD4F80818D3078
:1032500009F4CCCE9091AE028091AF02981709F498
:10326000C5CE8091AE028F5F8093AE02E091AE0238
:10327000F0E0E254FD4F80818A3019F7B7CE198211
:103280001A82E091AE02F0E0E254FD4F8081898322
:10329000C5010E940E2A4C01883008F484C0883091
:1032A00009F4EDC01F930F938091B1028F93809129
:1032B000B0028F930E948A2B0F900F900F900F9067
:1032C00015C0E091AE02F0E0E254FD4F80818D30F8
:1032D00009F48CCE9091AE028091AF02981709F458
:1032E00085CE8091AE028F5F8093AE02E091AE02F8
:1032F000F0E0E254FD4F80818A3019F777CE1982D1
:103300001A82E091AE02F0E0E254FD4F80818983A1
:10331000C5010E940E2A4C01883008F494C0883000
:1033200009F4F3C01F930F938091B1028F938091A2
:10333000B0028F930E948A2B0F900F900F900F90E6
:1033400015C0E091AE02F0E0E254FD4F80818D3077
:1033500009F44CCE9091AE028091AF02981709F417
:1033600045CE8091AE028F5F8093AE02E091AE02B7
:10337000F0E0E254FD4F80818A3019F737CE45D412
:103380001DCF43D4813009F49BC183E892E09F9321
:103390008F93F2CE3AD4813009F4E9C28AE792E001
:1033A0009F938F93E9CE60E40E941A029F938F93BC
:1033B00099249F928F923F922F928091B1028F9386
:1033C0008091B0028F930E947A2B0FB6F894DEBFE3
:1033D0000FBECDBF8BCF1F9281E08F9387EF91E01F
:1033E0009F938F938091B1028F938091B0028F93BE
:1033F0000E947A2B0F900F900F900F900F900F90CC
:1034000035CF0E945405962E872E782E692E0E9465
:1034100040056F927F928F929F929F938F937F939D
:103420006F938EEF91E09F938F938091B1028F9372
:103430008091B0028F930E947A2B0FB6F894DEBF72
:103440000FBECDBF13CF60E40E9429029F938F93DC
:103450007F936F9399249F928F92A1E9B2E0BF93DB
:10346000AF938091B1028F938091B0028F930E94AD
:103470007A2B0FB6F894DEBF0FBECDBF77CF609129
:10348000B0027091B10281E490E00E94A32B812CE4
:10349000912C60E4882D0E941A029F938F939F9233
:1034A0008F92FF92EF928091B1028F938091B00240
:1034B0008F930E947A2B9FEF891A990A0FB6F8947E
:1034C000DEBF0FBECDBFB8E08B16910411F760913F
:1034D000B0027091B1028AE090E00E94A32B06CF67
:1034E0000E942C05962E872E782E692E0E94180594
:1034F0006F927F928F929F929F938F937F936F9300
:103500008EE092E09F938F9390CF6091B002709184
:10351000B10282E490E00E94A32B812C912C60E404
:10352000882D0E9429029F938F937F936F939F9280
:103530008F92DF92CF928091B1028F938091B002EF
:103540008F930E947A2B3FEF831A930A0FB6F89459
:10355000DEBF0FBECDBF98E08916910401F76091E0
:10356000B0027091B1028AE090E00E94A32BFECEDF
:103570000E945C09962E872E782E692E0E9465097E
:103580006F927F928F929F929F938F937F936F936F
:10359000A8E6B2E0BF93AF9348CF0E944709982EA8
:1035A0000E9444091F929F921F928F938EE192E096
:1035B0009F938F938091B1028F938091B0028F93EC
:1035C0000E947A2B0FB6F894DEBF0FBECDBF4ECE51
:1035D0000E940405982E892E0E9409058F929F92C1
:1035E0009F938F9388E292E0E3CF20D3882E12D36B
:1035F000982E0BD31F928F921F929F921F928F93A0
:1036000087ED91E09F938F938091B1028F9380918A
:10361000B0028F930E947A2B0FB6F894DEBF0FBED4
:10362000CDBF24CE0E946E09982E892E0E94730968
:103630008F929F929F938F93A8E7B2E0BF93AF932F
:10364000B9CF0E94E4046B877C879A8B898B0E9498
:10365000F704AB018D879E876F87588B0E94D20439
:10366000962E872E782E692E0E94DB042A892F93AE
:1036700039893F933C853F932B852F933E853F931C
:103680002D852F9358895F934F854F936F927F922B
:103690008F929F929F938F937F936F9382E392E099
:1036A0009F938F938091B1028F938091B0028F93FB
:1036B0000E947A2B0FB6F894DEBF0FBECDBFD6CDD9
:1036C00094E10EC02091AE028091AF02281781F0E4
:1036D0008091AE028F5F8093AE02915009F44ACD83
:1036E000E091AE02F0E0E254FD4F80818A3351F761
:1036F0009091AE028091AF02981709F43BCD809172
:10370000AE028F5F8093AE029091AE020DC0E09149
:10371000AE02F0E0E254FD4F80818A3069F0809182
:10372000AE028F5F8093AE02E091AE02F0E0E25411
:10373000FD4F80818A3359F78091AE022AE0D5018E
:103740001D922A95E9F7E1E0E90FA92FB0E0A25414
:10375000BD4F2C9129838E1709F44EC0A2E0A90F0A
:10376000F0E0E254FD4F20812A838A1709F444C017
:10377000E3E0E90FB0E0A254BD4F2C912B838E17EC
:10378000D9F1A4E0A90FF0E0E254FD4F20812C8391
:103790008A1791F1E5E0E90FB0E0A254BD4F2C91FA
:1037A0002D838E1749F1A6E0A90FF0E0E254FD4FFA
:1037B00020812E838A1701F1E7E0E90FB0E0A254DF
:1037C000BD4F2C912F838E17B9F0A8E0A90FF0E020
:1037D000E254FD4F208128878A1771F0E9E0E90F54
:1037E000B0E0A254BD4F9C9199878E1729F0F0E06C
:1037F000E254FD4F80818A87C5010E940B2A0E94F6
:103800006805982E24E10EC09091AE028091AF021F
:10381000981781F08091AE028F5F8093AE022150A5
:1038200009F4A8CCE091AE02F0E0E254FD4F8081B3
:103830008A3351F79091AE028091AF02981709F444
:1038400099CC8091AE028F5F8093AE028091AE02E0
:103850000DC0E091AE02F0E0E254FD4F90819A304D
:1038600069F09091AE029F5F9093AE02E091AE023C
:10387000F0E0E254FD4F90819A3359F79091AE02F7
:103880002AE0F50111922A95E9F7E1E0E80FA82F67
:10389000B0E0A254BD4F2C9129839E1709F44EC06D
:1038A000A2E0A80FF0E0E254FD4F20812A839A178E
:1038B00009F444C0E3E0E80FB0E0A254BD4F2C91FE
:1038C0002B839E17D9F1A4E0A80FF0E0E254FD4F3E
:1038D00020812C839A1791F1E5E0E80FB0E0A25423
:1038E000BD4F2C912D839E1749F1A6E0A80FF0E063
:1038F000E254FD4F20812E839A1701F1E7E0E80F93
:10390000B0E0A254BD4F2C912F839E17B9F0A8E0D0
:10391000A80FF0E0E254FD4F208128879A1771F03C
:10392000E9E0E80FB0E0A254BD4F8C9189879E1763
:1039300029F0F0E0E254FD4F80818A87C5010E94A2
:103940000B2A0E94EA06911015CC811113CC88E84D
:1039500092E01DCD0E940E05982E892E0E9413051F
:103960008F929F929F938F938EE492E021CE94E169
:103970000EC02091AE028091AF02281781F0809195
:10398000AE028F5F8093AE02915009F417CCE091A4
:10399000AE02F0E0E254FD4F80818A3351F79091FE
:1039A000AE028091AF02981709F408CC8091AE0264
:1039B0008F5F8093AE029091AE020DC0E091AE0297
:1039C000F0E0E254FD4F80818A3069F08091AE02D0
:1039D0008F5F8093AE02E091AE02F0E0E254FD4FC3
:1039E00080818A3359F78091AE0225E0D5011D927E
:1039F0002A95E9F7A1E0A90FE92FF0E0E254FD4F85
:103A0000208129838A1701F1E2E0E90FB0E0A25496
:103A1000BD4F2C912A838E17B9F0A3E0A90FF0E0D7
:103A2000E254FD4F20812B838A1771F0E4E0E90F07
:103A3000B0E0A254BD4F9C919C838E1729F0F0E01A
:103A4000E254FD4F80818D83C5010E940E2A0E94A1
:103A5000D808982E24E10EC09091AE028091AF025A
:103A6000981781F08091AE028F5F8093AE02215053
:103A700009F4A4CBE091AE02F0E0E254FD4F808166
:103A80008A3351F79091AE028091AF02981709F4F2
:103A900095CB8091AE028F5F8093AE029091AE0283
:103AA0000DC0E091AE02F0E0E254FD4F80818A301B
:103AB00069F08091AE028F5F8093AE02E091AE021A
:103AC000F0E0E254FD4F80818A3359F78091AE02D5
:103AD00025E0F50111922A95E9F7A1E0A90FE92F58
:103AE000F0E0E254FD4F208129838A1701F1E2E0E2
:103AF000E90FB0E0A254BD4F2C912A838E17B9F084
:103B0000A3E0A90FF0E0E254FD4F20812B838A1738
:103B100071F0E4E0E90FB0E0A254BD4F9C919C83AA
:103B20008E1729F0F0E0E254FD4F80818D83C501AE
:103B30000E940E2A0E946C0891101CCB81111ACB96
:103B40008FE792E024CC0E944A09962E872E782E89
:103B5000692E0E9453096F927F928F929F929F933A
:103B60008F937F936F93A8E5B2E014CD1F920F92CD
:103B70000FB60F9211242F933F934F935F936F9340
:103B80007F938F939F93AF93BF93EF93FF93CF93C5
:103B9000DF931F92CDB7DEB78091C00087FFFCCFC7
:103BA0008091C6008983E091AF0281E08E0F8093FF
:103BB000AF02F0E08981E254FD4F808389818A3031
:103BC000B9F089818D30A1F00F90DF91CF91FF91F5
:103BD000EF91BF91AF919F918F917F916F915F9185
:103BE0004F913F912F910F900FBE0F901F901895FE
:103BF000E1D9EACF52985A9822982A982198299880
:103C00002098289854985C98089589B182FB882759
:103C100080F908951A9908C093B1892F827091FF95
:103C200002C082E00895089581E00895189908C0BF
:103C300099B1892F807194FF02C082E008950895A0
:103C400081E00895A0E0B0E0E8E2FEE10C94DE2916
:103C50002FEF39E688E1215030408040E1F700C085
:103C6000000040E052EC61E070E080EB92E00E94E6
:103C700098010E94E901259A0E945A0280EB92E085
:103C80000E94E91180EB92E06BD8B4DF13BC78940A
:103C9000BCDFC82FCBDF182FBDDFD82FB6DF1F92B8
:103CA0001F931F92DF931F928F9387ED91E09F9355
:103CB0008F9380EB92E09F938F930E947A2B2DB786
:103CC0003EB7265F3F4F0FB6F8943EBF0FBE2DBFE5
:103CD000D0E287EDE82E81E0F82E00EB12E006C07E
:103CE00095B19D2795B991DF8C1360C00E94B313E5
:103CF0008CDF8111F5CF8EDF813009F47AC08230FC
:103D000029F594DFC82E86DFD82E7FDF1F92CF9251
:103D10001F92DF921F928F93FF92EF921F930F9348
:103D20000E947A2B0E94130505970E94D8082DB790
:103D30003EB7265F3F4F0FB6F8943EBF0FBE2DBF74
:103D400002C00E94B31366DF8111FBCF6FDF8130A9
:103D500009F477C0823009F0C6CF68DFC82E5ADF79
:103D6000D82E53DF1F92CF921F92DF921F928F9314
:103D7000FF92EF921F930F930E947A2B0E940E05E1
:103D800005970E946C082DB73EB7265F3F4F0FB6D0
:103D9000F8943EBF0FBE2DBF02C00E94B31346DF92
:103DA0008111FBCF32DF8C1709F4A0CF3FDFD82E73
:103DB00031DFC82F2ADF1F92DF921F92CF931F920D
:103DC0008F93FF92EF921F930F930E947A2B1DDF28
:103DD000C1E02DB73EB7265F3F4F0FB6F8943EBF08
:103DE0000FBE2DBF813009F481CF0E94520BC0E07D
:103DF0007DCF1CDFC82E0EDFD82E07DF1F92CF929B
:103E00001F92DF921F928F93FF92EF921F930F9357
:103E10000E947A2B0E94130505960E94D8088DB740
:103E20009EB70A960FB6F8949EBF0FBE8DBF02C014
:103E30000E94B313EFDE8111FBCFF8DE813009F071
:103E400089CFF4DEC82EE6DED82EDFDE1F92CF92B9
:103E50001F92DF921F928F93FF92EF921F930F9307
:103E60000E947A2B0E940E0505960E946C088DB761
:103E70009EB70A960FB6F8949EBF0FBE8DBF02C0C4
:103E80000E94B313D3DE8111FBCF2DCFA3E1B0E0AD
:103E9000ECE4FFE10C94D4296C014B012A01FC01F4
:103EA00017821682838181FF43C3AE014F5F5F4F4C
:103EB0003A01F6019381F40193FD859193FF81917D
:103EC0004F01882309F430C3853239F493FD85917D
:103ED00093FF81914F01853239F4B60190E00E9441
:103EE000A32B52012501E5CF10E0F12C20E0203278
:103EF000A0F48B3269F030F4803259F0833269F4E7
:103F000020612CC08D3239F0803339F4216026C015
:103F10002260246023C0286021C027FD27C030ED27
:103F2000380F3A3078F426FF06C0FAE01F9F300DB4
:103F30001124132F13C04AE0F49E300D1124F32EE8
:103F400020620CC08E3221F426FDEEC2206406C031
:103F50008C3611F4206802C0883641F4F40193FDD8
:103F6000859193FF81914F018111C1CF9BEB980FF8
:103F7000933018F42061805E06C09BE9980F93305F
:103F800008F071C12F7E26FF16E02F73322E853682
:103F900019F42064322E08C0863621F4F22FF0681E
:103FA0003F2E02C01111115037FE07C01C3350F4D0
:103FB000EE24E394E10E27E00BC0183038F027E040
:103FC00017E005C027E04CE3E42E02C0212FE12CCE
:103FD000520144E0A40EB11CF20160817181828122
:103FE00093810E2DA3010E942B2A2C01098100FF31
:103FF00002C003FF07C031FC08C032FE09C030E236
:10400000232E07C02DE2222E04C09BE2292E01C0E0
:10401000212C802F8C7019F0211068C2A8C237FEA5
:104020000FC0E40C04FF04C08A81813309F4EA94D0
:104030001E1474F5F8E0FE1578F588E0E82E2CC023
:1040400036FC2AC0812F90E0841595059CF02CEF5A
:1040500042162FEF520674F0432D4068342E0AC0EA
:10406000E2E0F0E0EC0FFD1FE10FF11D80818033F5
:1040700019F411501111F4CF37FE0EC0EE24E39461
:10408000E10E812F90E0481659062CF4141904C053
:10409000EE24E39401C010E037FE06C014141504AA
:1040A00034F4C201019605C085E090E002C081E0D1
:1040B00090E021100196112331F0212F30E02F5F85
:1040C0003F4F820F931F2F2D30E08217930714F478
:1040D000F81A01C0F12C832D897049F4FF2039F0C2
:1040E000B60180E290E00E94A32BFA94F7CF222041
:1040F00029F0B601822D90E00E94A32B33FC09C069
:10410000FF2039F0B60180E390E00E94A32BFA94DF
:10411000F7CF37FE5AC0942D852D57FE02C090E090
:1041200080E0292E382E20E030E0A2014E195109FE
:104130005D874C87A201421953095F874E87612F23
:1041400070E044275527461B570B598B488B5FEF70
:104150002516350649F4B6018EE290E02A8B3B8B9A
:104160000E94A32B3B892A89421453046CF04C858E
:104170005D854215530544F4EE85FF85E20FF31F7C
:10418000E60DF71D818101C080E351E0251A310859
:104190002F5F3F4F48895989241635064CF0B601E8
:1041A00090E02A8B3B8B0E94A32B2A893B89CFCF9F
:1041B0002414350439F49A81963318F4953311F4A4
:1041C00004FF81E3B60190E04BC08A81813309F09E
:1041D0000F7EB60190E00E94A32B111105C034FCA4
:1041E00018C085E690E017C0B6018EE290E00E940C
:1041F000A32B82E0EE24E394E80EF301E80FF11D17
:104200008081B60190E00E94A32B11508E2D91F772
:10421000E6CF85E490E0B6010E94A32B57FC05C0D1
:104220004114510439F404FF05C0519441945108DC
:104230008DE201C08BE2B60190E00E94A32B80E3E7
:104240009AE0491651042CF08F5F5AE0451A510844
:10425000F7CFB60190E00E94A32BB601C201C09631
:104260000E94A32B57C1833631F0833779F0833511
:1042700009F058C021C05201E2E0AE0EB11CF201BB
:104280008081898301E010E0230114C05201F2E033
:10429000AF0EB11CF2014080518026FF03C0612F98
:1042A00070E002C06FEF7FEFC2012A8B0E94292BC2
:1042B0008C012A892F7715C05201F2E0AF0EB11C94
:1042C000F2014080518026FF03C0612F70E002C0E0
:1042D0006FEF7FEFC2012A8B0E941E2B8C012A896F
:1042E0002068322E23FD1AC08F2D90E00817190781
:1042F000A8F4B60180E290E00E94A32BFA94F4CFD8
:10430000F20137FC859137FE81912F01B60190E0D3
:104310000E94A32BF110FA94015011090115110507
:1043200079F7F8C0843611F0893659F5520127FF24
:1043300009C0F4E0AF0EB11CF2016081718182818D
:1043400093810AC0F2E0AF0EB11CF201608171816D
:10435000072E000C880B990B2F76322E97FF09C081
:1043600090958095709561957F4F8F4F9F4F2068F6
:10437000322E2AE030E0A3010E94F42BE82EE6184A
:104380003FC0022F853721F40F7E2AE030E01DC0A8
:10439000097F8F3691F018F4883559F0C5C0803701
:1043A00019F0883711F0C0C0006104FF09C0046033
:1043B00007C024FF08C0066006C028E030E005C042
:1043C00020E130E002C020E132E0520107FF09C0E5
:1043D000F4E0AF0EB11CF2016081718182819381A2
:1043E00008C0F2E0AF0EB11CF2016081718180E083
:1043F00090E0A3010E94F42BE82EE6180F77302EF0
:1044000036FE0BC0332D3E7FE11650F434FE0AC059
:1044100032FC08C0332D3E7E05C00E2D332D03C067
:104420000E2D01C0012F34FF0CC0FE01EE0DF11D59
:104430008081803311F4397E08C032FF05C00E5FE1
:1044400004C0832F867809F00F5F33FD13C030FF5F
:1044500006C01E2D0F1518F41F0D101B0F2D0F1564
:1044600068F4B60180E290E03B8B0E94A32B0F5FC3
:104470003B89F5CF0F1510F4F01A01C0F12C34FF71
:1044800012C0B60180E390E03B8B0E94A32B3B89D6
:1044900032FF17C031FD03C088E790E002C088E515
:1044A00090E0B6010CC0832F867859F031FF02C02E
:1044B0008BE201C080E237FD8DE2B60190E00E9400
:1044C000A32BE11638F4B60180E390E00E94A32B01
:1044D0001150F7CFEA94F301EE0DF11D8081B60182
:1044E00090E00E94A32BE110F5CF14C0F4E0FF157B
:1044F00058F584E0F81A33FE1EC0211026C003FFD1
:104500002AC004EB10E0F32DF0713F2EF8018491E6
:10451000811124C0FF2009F4E5CCB60180E290E0CF
:104520000E94A32BFA94F6CFF6018681978126C0CC
:104530008FEF9FEF23C0B60180E290E00E94A32B93
:10454000FA94F110F8CFD9CFF12CB601822D90E07A
:104550000E94A32BD4CF08EB10E0D5CF31108052AE
:10456000B60190E00E94A32B0F5F1F4FCFCF23E037
:104570002F1510F483E0BECFF12CC1CF6396E2E19A
:104580002FC720FD09C0FC0123FD05C022FF02C08A
:104590007383628351834083089544FD10C046FDB8
:1045A00010C0DB01FC01AA0FBB1FEE1FFF1F109400
:1045B000D1F76A0F7B1F8E1F9F1F31E003C033E0CE
:1045C00001C034E0660F771F881F991F3150D1F763
:1045D000620F711D811D911D08950F931F93CF933D
:1045E000DF938C01C8010E943C2BEC0197FD08C0B1
:1045F0000E94032B892BB1F7B801CE010E94DB2B5F
:10460000CE01DF91CF911F910F910895A0E0B0E00E
:10461000EBE0F3E2CFC67C018B016A01D22F0E944E
:104620003C2B9C0133272B32310521F02D323105F3
:1046300059F4D0680150110911F480E065C0C70138
:104640000E943C2B97FDF9CFCD2FCD7F2D2F2073CE
:1046500001F58033F1F4580181E0A81AB10809F49A
:1046600040C0C7010E943C2B97FD3BC0282F2F7DE7
:10467000283549F4C2640250110999F1C701FCD7E9
:1046800097FF07C02EC0D6FF02C0C26001C0C26142
:104690008501812C912C540120ED280F283080F0C9
:1046A000C4FF04C0B7010E94DB2B18C02A3040F0C1
:1046B000C6FFF8CF2F7D3FEE320F363098F72750E8
:1046C0004C2FC501B40169DF4B015C01C260015090
:1046D000110951F0C701D0D797FFDECFC1FD04C04B
:1046E000ACCF812C912C5401C7FF08C0B094A0948A
:1046F00090948094811C911CA11CB11C2C2FB5019D
:10470000A401C6013EDF81E0CDB7DEB7ECE06EC6A6
:10471000A0E2B0E0EDE8F3E249C64C015B017A01AA
:104720008E010F5F1F4F680180E2F80111928A9598
:10473000E9F7F401638040E050E0712C412C80E007
:10474000A1E0B0E0F90163FC559063FE51908F0148
:10475000952D9F01511003C080E090E07EC0FEE5E2
:104760005F1203C04115510561F1682F70E06417B5
:1047700075074CF46DE5561669F1EDE25E1203C063
:10478000442009F103C0411001C0752C692F6695C2
:1047900066956695F601E60FF11D692F67708D012C
:1047A00002C0000F111F6A95E2F7B8017081672BF4
:1047B0006083971559F0971510F49F5FE7CF9150DC
:1047C000E5CF81E004C04424439401C0412C4F5FF5
:1047D0005F4FB8CF442019F09E8190629E83811173
:1047E00003C07724739418C0F6019E012F5D3F4FDC
:1047F000808180958193E217F307D1F7F2CFE1141E
:10480000F10429F0F7018083C70101967C0191E052
:10481000A91AB108712CD9F0C4012ED797FD15C083
:10482000282F269526952695F601E20FF11D208169
:1048300030E0AC014770552702C0359527954A9561
:10484000E2F720FDDCCFB401B6D7711085CFE114BB
:10485000F10411F0F7011082C801A096E0E1C2C591
:10486000A6E0B0E0E5E3F4E29FC55C017B011A013C
:1048700003D79E838D8399278B32910521F08D97E5
:1048800081F410E801C010E021E0E21AF10811F40F
:1048900080E01EC1C501F0D69E838D8397FF02C0C4
:1048A000F7CF10E08D819E81B6D68936910549F00B
:1048B0008E36910509F038C063EA862E62E0962EA6
:1048C00004C076EA872E72E0972EEFEF8E1A9E0ACA
:1048D000F401319704910023B1F081E0E81AF10866
:1048E00059F0C501C9D66C0197FD06C094D60817CA
:1048F00061F3B501C6015FD799EA891692E099067E
:1049000009F0C6CF05C0F6EA8F16F2E09F0629F03F
:1049100080E090E0A0E8BFE704C080E090E0A0EC79
:10492000BFE7BC01CD01C4C0412C512C3201C12CC8
:10493000D12C2D8120532A3010F5012F0260812FB8
:10494000887012FF06C0811120C02FEFC21AD20A50
:104950001CC0882319F081E0C81AD10840E2C301C5
:10496000B2011BDE2B013C0198E9491699E9590671
:10497000690699E1790648F0012F066006C02E3FCE
:1049800089F413FD0FC0012F0860E1E0EE1AF10871
:1049900041F0C50171D69E838D83102F97FFC9CF3B
:1049A00001C0102F11FF74CF8D818F7D853409F0E8
:1049B0004AC04701F1E08F1A910809F469CFC50197
:1049C0005BD69E838D8397FD63CF99278B329105AC
:1049D00019F08D9759F41061470122E0821A91086D
:1049E00009F456CFC50148D69E838D838D819E8163
:1049F000C0970A9708F04CCF7401812C912CB40118
:104A0000990C880B990B2D81205340E2C6DDAB0138
:104A1000BC014A0181E0E81AF10869F0C501498347
:104A20005A836B837C8328D69E838D83C09749816C
:104A30005A810A9720F314FF04C088249924841A09
:104A4000950AC80CD91CEF2839F0ED81FE81F7FDDD
:104A500003C0B501CF01AFD6C301B20185D2D7FEE5
:104A600008C0D194C194D10852EC852E52E0952E05
:104A700004C04AED842E42E0942E5401F8E1AF1AAE
:104A8000B10830E2E32EF12CCE14DF0448F0F4013B
:104A9000259135914591549182D3CE18DF08F4CFFA
:104AA00024E0821A9108F694E7948A149B0461F733
:104AB00017FF05C0DC01CB01B058BC01CD012114AA
:104AC000310429F0F101608371838283938381E053
:104AD0002696E2E185C4A1E0B0E0E0E7F5E266C435
:104AE0006C012B014A01FC0117821682A12CF601F0
:104AF000F380F201F3FC8591F3FE8191482F2F01A1
:104B0000882309F401C190E049837DD54981892B2F
:104B100019F0C60162DDEBCF453241F4F201F3FC3E
:104B20004591F3FE41912F01453259F4C601498365
:104B3000A3D5498197FDE6C04817C9F2B6013BD617
:104B4000E3C04A3239F4F3FC4591F3FE41912F0161
:104B500051E001C050E0320100E010E020ED240FF0
:104B60002A3080F45260B80180E090E040E259833E
:104B700014DD8B01F301F3FC4591F3FE41913F01FC
:104B80005981ECCFB52E342F230151FF04C00115FC
:104B9000110519F4B9C00FEF1FEF483619F04C3664
:104BA00059F013C0F301F3FC3591F3FE31912F015D
:104BB000383659F45860B52EFB2DF460BF2EF20143
:104BC000F3FC3591F3FE31912F01332309F49CC09E
:104BD000632F70E081E992E0398325D53981892BF3
:104BE00009F492C0B0FC07C0F401E080F180C40178
:104BF00002964C0102C0E12CF12C3E3649F4F6013C
:104C00004681578160E070E02B2DC701BADC6FCF81
:104C10003336A1F4B1FC02C001E010E0C6012CD58E
:104C200097FD70C0E114F10429F0F7018083C701FA
:104C300001967C010150110989F760C03B3551F4A0
:104C40009201A701B801C60163DD2C01892B09F08F
:104C500055C04FC0C6013983C0DC398197FD52C0B1
:104C60003F36C1F140F4343689F13936B1F1383587
:104C700009F039C027C03337A1F018F4303711F1EB
:104C800032C0353719F13837E9F02DC0E114F1049D
:104C900029F0F7016082C70101967C0101501109DA
:104CA00059F0C601E9D43C0197FD06C0ACD4892B6C
:104CB00069F3B601C3017FD5E114F104F9F0F701FE
:104CC00010821CC0FB2DF064BF2E07C08B2D8062AC
:104CD000B82E03C09B2D9061B92E2B2DA701B801D2
:104CE000C60194DC04C0A701B801C601B9DD811179
:104CF00005C0F6018381807329F406C0B0FCF7CEAD
:104D0000A394F5CEAA2019F08A2D90E002C08FEF6F
:104D10009FEF2196E0E166C35058BB27AA270ED02B
:104D2000E8C1B1D130F0B6D120F031F49F3F11F499
:104D30001EF481C10EF4E095E7FB77C1E92FFBD1AA
:104D400080F3BA17620773078407950718F071F4A8
:104D50009EF513C20EF4E0950B2EBA2FA02D0B0179
:104D6000B90190010C01CA01A0011124FF27591BB0
:104D700099F0593F50F4503E68F11A16F040A22FB6
:104D8000232F342F4427585FF3CF46953795279527
:104D9000A795F0405395C9F77EF41F16BA0B620B26
:104DA000730B840BBAF09150A1F0FF0FBB1F661F6D
:104DB000771F881FC2F70EC0BA0F621F731F841FB0
:104DC00048F4879577956795B795F7959E3F08F0D6
:104DD000B3CF9395880F08F09927EE0F9795879595
:104DE0000895DF93DD27B92FBF7740E85FE31616FC
:104DF000170648075B0710F4D92FCAD19F938F93EA
:104E00007F936F9377D2E8E6F0E018D172D12F91BB
:104E10003F914F915F91CFD1DD2349F09058A2EAA5
:104E20002AED3FE049EC5FE3D0785D2787DFDF9133
:104E300060C1D7D008F481E0089534D1E3956AC108
:104E40000CD057C127D140F01ED130F021F45F3F84
:104E500019F0EBC0511192C1EEC06DD198F39923B6
:104E6000C9F35523B1F3951B550BBB27AA2762172E
:104E70007307840738F09F5F5F4F220F331F441F73
:104E8000AA1FA9F333D00E2E3AF0E0E830D09150AB
:104E90005040E695001CCAF729D0FE2F27D0660F98
:104EA000771F881FBB1F261737074807AB07B0E8D7
:104EB00009F0BB0B802DBF01FF2793585F4F2AF0ED
:104EC0009E3F510568F0B1C059C15F3FECF3983E79
:104ED000DCF3869577956795B795F7959F5FC9F74A
:104EE000880F911D9695879597F90895E1E0660FD3
:104EF000771F881FBB1F621773078407BA0720F04C
:104F0000621B730B840BBA0BEE1F88F7E0950895B4
:104F10001AD188F09F5790F0B92F9927B751A0F078
:104F2000D1F0660F771F881F991F1AF0BA95C9F73D
:104F300012C0B13081F021D1B1E008951EC1672FB8
:104F4000782F8827B85F39F0B93FCCF386957795ED
:104F50006795B395D9F73EF49095809570956195D6
:104F60007F4F8F4F9F4F0895E89409C097FB3EF401
:104F700090958095709561957F4F8F4F9F4F9923A6
:104F8000A9F0F92F96E9BB279395F6958795779524
:104F90006795B795F111F8CFFAF4BB0F11F460FFE4
:104FA0001BC06F5F7F4F8F4F9F4F16C0882311F03C
:104FB00096E911C0772321F09EE8872F762F05C050
:104FC000662371F096E8862F70E060E02AF09A95EB
:104FD000660F771F881FDAF7880F9695879597F9E0
:104FE0000895990F0008550FAA0BE0E8FEEF16167A
:104FF0001706E807F907C0F012161306E407F507CD
:1050000098F0621B730B840B950B39F40A2661F040
:10501000232B242B252B21F408950A2609F4A140E3
:10502000A6958FEF811D811D089597F99F6780E8F0
:1050300070E060E008959FEF80EC0895DF93CF93D8
:105040001F930F93FF92EF92DF927B018C01689484
:1050500005C0DA2EEF01AFD0FE01E894A5912591AD
:10506000359145915591AEF3EF0168DEFE01970150
:10507000A801DA9479F7DF90EF90FF900F911F91DC
:10508000CF91DF91089500240A941616170618068A
:105090000906089500240A9412161306140605063C
:1050A0000895C9CF50D0E8F3E894E0E0BB279F57BC
:1050B000F0F02AED3FE049EC06C0EE0FBB0F661F93
:1050C000771F881F28F0B23A62077307840728F019
:1050D000B25A620B730B840BE3959A9572F7803882
:1050E00030F49A95BB0F661F771F881FD2F7904840
:1050F00006C1092E0394000C11F4882352F0BB0F53
:1051000040F4BF2B11F460FF04C06F5F7F4F8F4FDF
:105110009F4F0895EF93E0FF06C0A2EA2AED3FE01B
:1051200049EC5FEB0BDEE5DF0F90039401FC905838
:10513000E5E9F0E0F7C057FD9058440F551F59F0CE
:105140005F3F71F04795880F97FB991F61F09F3F74
:1051500079F087950895121613061406551FF2CF9D
:105160004695F1DF08C0161617061806991FF1CFED
:1051700086957105610508940895E894BB27662714
:105180007727CB0197F908952CDF08F48FEF089566
:105190009B01AC0160E070E080E89FE351CE0BD052
:1051A000A8CF71DF28F076DF18F0952309F03DCF06
:1051B00042CF1124E3CFBFDFA0F3959FD1F3950F2A
:1051C00050E0551F629FF001729FBB27F00DB11D8B
:1051D000639FAA27F00DB11DAA1F649F6627B00D1B
:1051E000A11D661F829F2227B00DA11D621F739F04
:1051F000B00DA11D621F839FA00D611D221F749F12
:105200003327A00D611D231F849F600D211D822F58
:10521000762F6A2F11249F5750408AF0E1F088239F
:105220004AF0EE0FFF1FBB1F661F771F881F9150AC
:105230005040A9F79E3F510570F0F7CE9FCF5F3FDA
:10524000ECF3983EDCF3869577956795B795F795DF
:10525000E7959F5FC1F7FE2B880F911D9695879567
:1052600097F908959F931EDF0F9007FCEE5F52CFD2
:1052700011F40EF4E0CE41C066DFD0F39923D9F3E8
:10528000CEF39F57550B87FF46D00024A0E640EA97
:10529000900180585695979528F4805C660F771F8B
:1052A000881F20F026173707480730F4621B730B5E
:1052B000840B202931294A2BA69517940794202581
:1052C00031254A2758F7660F771F881F20F02617C9
:1052D0003707480730F4620B730B840B200D311D28
:1052E000411DA09581F7B901842F9158880F96959B
:1052F000879508959B01AC0152CF9F3F31F09150AB
:1053000020F4879577956795B795880F911D9695A9
:10531000879597F9089591505040660F771F881F21
:10532000D2F708959F938F937F936F93FF93EF939B
:105330009B01AC0134DFEF91FF9180DE2F913F9113
:105340004F915F912CCFA1E21A2EAA1BBB1BFD012E
:105350000DC0AA1FBB1FEE1FFF1FA217B307E40754
:10536000F50720F0A21BB30BE40BF50B661F771FAC
:10537000881F991F1A9469F760957095809590958C
:105380009B01AC01BD01CF010895A29FB001B39F65
:10539000C001A39F700D811D1124911DB29F700D3E
:1053A000811D1124911D08952F923F924F925F927B
:1053B0006F927F928F929F92AF92BF92CF92DF9225
:1053C000EF92FF920F931F93CF93DF93CDB7DEB78A
:1053D000CA1BDB0B0FB6F894DEBF0FBECDBF09941E
:1053E0002A88398848885F846E847D848C849B8475
:1053F000AA84B984C884DF80EE80FD800C811B8183
:10540000AA81B981CE0FD11D0FB6F894DEBF0FBEB1
:10541000CDBFED0108956627772744C2FC01882798
:105420009927E89421912032E9F3293010F02E30A9
:10543000C8F32B3239F02D3231F4689403C014D103
:10544000820F911D219120532A30C8F31EF49095AC
:1054500081959F4F0895283008F027E03327DA011F
:10546000990F311D87FD916000966105710539F432
:1054700032602E5F3D9330E32A95E1F708959F3F18
:1054800030F080387105610509F03C5F3C5F3D9369
:10549000913008F08068911DDF93CF931F930F9395
:1054A000FF92EF92192F987F9695E92F96959695F2
:1054B000E90FFF27EA5EFE4F99273327EE24FF24EA
:1054C000A701E70105900894079428F4360FE71E1A
:1054D000F81E491F511D660F771F881F991F0694DC
:1054E000A1F70590079428F4E70EF81E491F561FF0
:1054F000C11D770F881F991F661F0694A1F705909D
:10550000079428F4F80E491F561FC71FD11D880F96
:10551000991F661F771F0694A1F70590079420F442
:10552000490F561FC71FD81F990F661F771F881F67
:105530000694A9F784911095177041F0D695C795F8
:1055400057954795F794E7941A95C1F7ECEBF0E07F
:1055500068941590159135916591959105907FE22C
:105560007395E118F10A430B560BC90BD009C0F72C
:10557000E10CF11E431F561FC91FD01D7EF470336E
:1055800011F48A95E6CFE894015030F0080F0AF440
:105590000027021708F4202F2395022F7A3328F0D2
:1055A00079E37D932A95E9F710C07D932A9589F6D2
:1055B000069497956795379517951794E118F10A12
:1055C000430B560BC90BD00998F023957E91739528
:1055D0007A3308F070E37C932013B8F77E91706102
:1055E0007D9330F0839571E37D9370E32A95E1F725
:1055F0001124EF90FF900F911F91CF91DF91992788
:1056000087FD9095089591119FC2803219F08950BD
:105610008550D0F708959111089581548A5108F466
:10562000805E855A0895FC010590061621F0002041
:10563000D9F7C00108953197CF010895FC01059075
:10564000615070400110D8F7809590958E0F9F1F84
:105650000895FC016150704001900110D8F78095C9
:1056600090958E0F9F1F08957AE0979F902D879FAA
:10567000802D910D11240895CF93DF93EC012B81A0
:1056800020FF33C026FF0AC02F7B2B838E819F8192
:1056900001969F838E838A8190E029C022FF0FC0EC
:1056A000E881F9818081082E000C990B009719F48C
:1056B00020622B831AC03196F983E8830EC0EA85F5
:1056C000FB85099597FF09C02B81019611F080E2B7
:1056D00001C080E1822B8B8308C02E813F812F5F28
:1056E0003F4F3F832E83992702C08FEF9FEFDF91BB
:1056F000CF910895A0E0B0E0EFE7FBE265CEAE0108
:10570000475F5F4F6F8178858D819E810E94461F24
:10571000E2E076CEA0E0B0E0EFE8FBE253CE0F810E
:105720001885F801838188608383AE01455F5F4FF0
:1057300069857A85C8010E94461FF8012381277F69
:105740002383E4E05BCE0F931F93CF93DF93FB01A2
:10575000238121FD03C08FEF9FEF28C022FF16C0D9
:1057600046815781248135814217530744F4A08133
:10577000B1819D012F5F3F4F318320838C93268120
:1057800037812F5F3F4F3783268310C0EB01092FEE
:10579000182F0084F185E02D0995892BE1F68E8183
:1057A0009F8101969F838E83812F902FDF91CF91D0
:1057B0001F910F910895FB01238120FF12C026FD48
:1057C00010C08F3F3FEF930761F082832F7D2064ED
:1057D00023832681378121503109378326839927F6
:1057E00008958FEF9FEF0895FA01AA27283051F10D
:1057F000203181F1E8946F936E7F6E5F7F4F8F4F02
:105800009F4FAF4FB1E03ED0B4E03CD0670F781F60
:10581000891F9A1FA11D680F791F8A1F911DA11D45
:105820006A0F711D811D911DA11D20D009F468947E
:105830003F912AE0269F11243019305D3193DEF626
:10584000CF010895462F4770405D4193B3E00FD0DC
:10585000C9F7F6CF462F4F70405D4A3318F0495DC7
:1058600031FD4052419302D0A9F7EACFB4E0A695AA
:105870009795879577956795BA95C9F700976105CC
:10588000710508959B01AC010A2E06945795479522
:1058900037952795BA95C9F7620F731F841F951F17
:1058A000A01D0895A0E0B0E0E7E5FCE281CDEC01A9
:1058B0007B016115710519F0DB018D939C938E01BD
:1058C0000F5F1F4F7880872D90E09DDE892B11F0B0
:1058D000E801F5CFBDE27B1205C00F5F1F4F798055
:1058E000C1E008C0EBE27E1204C08E010E5F1F4FC4
:1058F0007980C0E06801F1E0CF1AD10843E050E0C0
:105900006EEB71E0C60123D1892BE9F4680122E036
:10591000C20ED11C45E050E069EB71E0C60117D121
:10592000892B21F4680187E0C80ED11CE114F10431
:1059300019F0D701CD92DC92C111F9C060E070E09E
:1059400080E89FE7FDC043E050E066EB71E0C601F0
:10595000FED0892B51F4E114F10409F4EDC00E5F7F
:105960001F4FF70111830083E7C0680160E070E01A
:10597000CB0100E010E0F601D0EDD70DDA3050F5A4
:105980002C2F2260622E2C2F2870C2FF05C02111FF
:1059900027C00F5F1F4F24C0222311F001501109AF
:1059A000A5E0B0E09B01AC01EAD04B015C01880CA2
:1059B000991CAA1CBB1CC501B4016D0F711D811D72
:1059C000911D6839A9E97A078A07A9E19A0740F089
:1059D000C66005C0DE3F51F4C3FD44C0C8606C2EF4
:1059E000BFEFCB1ADB0A7080C62DC5CF2D2F2F7DC0
:1059F0002531C1F540814D3211F4C06106C04B32F2
:105A000021F0319621E030E006C03296D6011196A1
:105A10004C9122E030E0A0EDA40FAA3018F0E21B78
:105A2000F30B20C040E050E04038BCE05B075CF482
:105A30009A01220F331F220F331F420F531F440FAF
:105A4000551F4A0F511D3196DF0111972C91A0ED82
:105A5000A20FAA3048F3C4FF03C0519541955109E4
:105A6000040F151FC1FF07C0E114F10421F03197A5
:105A7000D701ED93FC9378DAC370C33019F06B0152
:105A80007C0106C06B017C01F7FAF094F7F8F09402
:105A900020E030E0A901C701B601CBD9882309F481
:105AA00043C017FF06C0119501951109C5EDD1E05E
:105AB00002C0CDEED1E05E01B8E1AB1AB1084601FB
:105AC000BE2DAF2D90E2E92EF12C0E151F057CF0B6
:105AD000FE012591359145915491B4018B2F9A2F58
